:020000041000EA
:1000000000B5324B212058609868022188439860DF
:10001000D860186158612E4B002199600221596106
:100020000121F02299502B49196001219960352056
:1000300000F044F80222904214D00621196600F024
:1000400034F8196E01211966002018661A6600F04E
:100050002CF8196E196E196E052000F02FF8012189
:100060000842F9D1002199601B49196000215960AB
:100070001A491B48016001219960EB211966A021F2
:10008000196600F012F800219960164914480160C1
:100090000121996001BC002800D000471248134993
:1000A000086003C880F30888084703B5996A0420EC
:1000B0000142FBD001200142F8D103BD02B5186610
:1000C0001866FFF7F2FF186E186E02BD00000240BE
:1000D000000000180000070000035F00212200005C
:1000E000F4000018222000A00001001008ED00E03C
:1000F00000000000000000000000000074B24E7A12
:1001000000200420F7010010C3010010C5010010F9
:10011000C1010010C1010010C1010010C101001097
:10012000C1010010C1010010C1010010C701001081
:10013000C1010010C1010010C9010010CB01001065
:10014000CD010010CD010010CD010010CD01001037
:10015000CD010010CD010010CD010010CD01001027
:10016000CD010010CD010010CD010010CD01001017
:10017000CD010010CD010010CD010010CD01001007
:10018000CD010010CD010010CD010010CD010010F7
:10019000CD010010CD010010CD010010CD010010E7
:1001A000CD010010CD010010CD010010CD010010D7
:1001B000CD010010CD010010CD010010CD010010C7
:1001C00000BE00BE00BE00BE00BE00BEEFF3058054
:1001D000103800BEF2EB8871EC4305101044051096
:1001E0003402001090A31AE700201F49086006C8D7
:1001F00081F3088810471D48006800282FD10DA4FE
:100200000ECC002902D000F012F8F9E71849194A7B
:10021000002000E001C19142FCD1174988471749ED
:1002200088471749884700BEFDE701C901C29A42C5
:10023000FBD3704710440510C00000207018002048
:10024000E05B05100000042000000420E05B0510C6
:10025000001004200010042000000000704709482E
:1002600005F02CF80047000008ED00E0000000D089
:1002700090180020880101202D4000106D190010F9
:10028000E93F00105756000006005250ABB36053D0
:100290004C8C011006005250861C03025C8C01102D
:1002A000060052505422A29D688C01100500525045
:1002B000DE65F468E05B0510F8B5C0460448054B00
:1002C00010B5834203D0044B002B00D0984710BDDB
:1002D0007018002070180020000000000648074930
:1002E000091A8B10C90FC91810B5491003D0044B57
:1002F000002B00D0984710BD701800207018002007
:100300000000000010B5074C2378002B09D1FFF73F
:10031000D5FF054B002B02D0044800E000BF0123AD
:10032000237010BDF0190020000000005875011066
:10033000054B10B5002B03D00449054800E000BF71
:10034000FFF7CCFF10BDC04600000000F4190020EC
:100350005875011070B501248440D0263606B4616A
:10036000FA25AD00280002F0DBFF7461280002F0DE
:10037000D7FF70BDF0B585B005006846871DC38006
:1003800012010E236B441A8001248C40D0263606BD
:10039000B46101221900280017F0CEF801223900BB
:1003A000280017F0C9F8746105B0F0BDF0B5C64675
:1003B00000B582B0040008001201694606310A80C7
:1003C0001A0C01ADA8462A806A46971C5380012565
:1003D0008540D0263606B5610122200017F0ACF822
:1003E00001224146200017F0A7F801223900200021
:1003F00017F0A2F8756102B080BCB846F0BD0000ED
:1004000070B504000D000023344AFFF7B3FF00234A
:10041000602229002000FFF7C9FF0223304A29008B
:100420002000FFF7A7FFC0231B012E4A2900200050
:10043000FFF7A0FF00232C4A29002000FFF79AFFB6
:1004400000232A4A29002000FFF794FF0C23284AA2
:1004500029002000FFF78EFF1E23264A29002000D6
:10046000FFF788FF0123244A29002000FFF79EFFA1
:100470000023224A29002000FFF798FF0023204A8A
:1004800029002000FFF792FF802394225B01D20015
:1004900029002000FFF76EFF1A4B1B4A290020009D
:1004A000FFF784FF0023722229002000FFF77EFF60
:1004B000164B174A29002000FFF75CFF96221123F4
:1004C000D20029002000FFF755FF90220123D2001F
:1004D00029002000FFF74EFF70BDC046B9040000A0
:1004E00081040000AF0400009304000092040000A7
:1004F000B60400009A040000050400000604000091
:100500000704000028EA22000F0400003F1F00003B
:10051000B2040000F0B583B00500120108326B464A
:10052000DA80063301248C40D0273F06BC610122CB
:10053000190017F001F801AE012332000021280054
:1005400016F0C2FF7C61308803B0F0BDF0B5C6463E
:1005500000B582B00400120108326B46DA8006331F
:1005600001258D40D0221206904695610122190086
:1005700016F0E2FF01AF01233A000021200016F03F
:10058000A3FF6B469E1C012332000021200016F0C1
:100590009BFF43465D613B881B043088C01802B056
:1005A00080BCB846F0BDF0B5C64600B588B00600C0
:1005B0001F000E9D120108321E236B441A80012277
:1005C0008A409046D02212064146916101221900CC
:1005D00016F0B2FF00244FE00E236A4600213000DF
:1005E00016F072FF6B461B881B046A4652889B18E4
:1005F000A20053516B469B881B046A46D2889B1805
:10060000621CFF32920053516B461B891B046A46E1
:1006100052899B1880229200A218920053516B4677
:100620009B891B046A46D2899B18C0229200A2189B
:10063000920053516B461B8A1B046A46528A9B18D0
:100640008022D200A218920053516B469B8A1B0451
:100650006A46D28A9B18A022D200A2189200535157
:100660006B461A8B12045B8BD218C023DB00E31895
:100670009B005A510134A4B2BC42ADD3D0231B0617
:1006800042465A6108B080BCB846F0BD70B505005E
:100690000E00140084229200FFF758FF20608C2285
:1006A000920031002800FFF751FF60609422920011
:1006B00031002800FFF74AFFA06070BD70B505004B
:1006C0000E001400084AFFF741FF2060074A31007E
:1006D0002800FFF73BFF6060054A31002800FFF764
:1006E00035FFA06070BDC0460D0200002D02000065
:1006F0004D02000070B505000E0014008322920028
:10070000FFF724FF20608B22920031002800FFF7C2
:100710001DFF60609322920031002800FFF716FF52
:10072000A060034A31002800FFF710FFE06070BDB1
:100730006602000070B505000E001400124AFFF7B3
:1007400005FF206005F025FAC821890505F0DFF9CD
:10075000E0600E4A31002800FFF7F8FE606005F007
:1007600018FAC821890505F0D2F92061084A31003C
:100770002800FFF7EBFEA06005F00BFAC821890501
:1007800005F0C5F9606170BD160200003602000078
:100790005602000070B505000E0014008322D2003E
:1007A000FFF7D4FE2060013005F0F3F9011C10487A
:1007B00005F099F9E0600F4A31002800FFF7C6FE06
:1007C0006060013005F0E5F9011C094805F08BF97E
:1007D0002061094A31002800FFF7B8FEA06001300F
:1007E00005F0D7F9011C024805F07DF9606170BD84
:1007F0000000FA4D190400001A04000030B583B05F
:100800000C001300C268156801790068012200928B
:100810002200A84703B030BD30B585B00C000F23CF
:100820006B441A70C2685568017900680122009211
:100830002200A84705B030BD30B583B00C00C168B8
:100840000D6801790068009313002200A84703B0E7
:1008500030BD30B583B00500012405E0EB689B682E
:10086000012098470134E4B2052C0DD86B46DA1DFF
:10087000D0212800FFF7C2FF0028EFD16B460733D5
:100880001B78602BEAD101E06420404203B030BD08
:1008900010B5B622E021FFF7BFFF10BD30B583B021
:1008A0000500012401E00134E4B2052C11D8EB6805
:1008B0009B68022098476B46DA1DF3212800FFF75A
:1008C0009DFF002807D16B4607331B78DB07EAD46E
:1008D00001E06520404203B030BD43185B781B0245
:1008E000405C18437047421852781202405C104333
:1008F00000B2704770B588B004001A2301AA88219D
:10090000FFF79AFF051E3FD101AE00213000FFF72F
:10091000E4FF208202213000FFF7E5FF608204211E
:100920003000FFF7E0FFA08206213000FFF7D5FF7F
:10093000E08208213000FFF7D6FF20830A21300033
:10094000FFF7D1FF60830C213000FFF7CCFFA083BD
:100950000E213000FFF7C7FFE08310213000FFF7C2
:10096000C2FF208412213000FFF7BDFF60841421F4
:100970003000FFF7B8FFA08416213000FFF7B3FF67
:10098000E084727E2823E254002D1FD0002D1AD15E
:1009900001AE00213000FFF7A6FF6085B2782C235E
:1009A000E25403217156090133790F221A400A4398
:1009B000E2850522B25612011B0913432386062243
:1009C000B2563223E254280008B070BD072301AAB2
:1009D000E1212000FFF730FF0500D7E710B582B016
:1009E00004006B46DA1DF521FFF708FF002815D03B
:1009F000002825D000280FD1A37A012B37D003215E
:100A000062795201A3799B001A4352B20A43D2B2CF
:100A1000F4212000FFF700FF02B010BD6B46D9792A
:100A200003220A40617A49010A4352B2217A8900BD
:100A30000A43D2B2DA71F5212000FFF7EDFED7E7C5
:100A40006B469A1DF2212000FFF7D8FE0028D1D175
:100A50006B469A7907218A4352B2072161560A43AD
:100A6000D2B29A71F2212000FFF7D6FEC2E7002130
:100A7000C6E710B582B00C0008236A46F721FFF7DD
:100A8000DBFE00281DD16B461B781B036A4652789B
:100A9000120113436A4692781209134363606B464E
:100AA000DB781B036A461279120113436A465279B6
:100AB0001209134323606B469A791202DB791343C0
:100AC000238102B010BDF8B50400080005F061F8FC
:100AD000061CE221890505F01AF8071C208805F09C
:100AE00058F8051CEA21890505F011F8011C381C8D
:100AF00004F0F3FF071C0223E05E05F04FF8011C31
:100B0000381C05F004F8071CDC218905301C04F0B2
:100B1000FEFF061CE4218905281C04F0F8FF011CD7
:100B2000301C04F0DAFF011C04F0F1FF051C042363
:100B3000E05E05F033F8011C281C04F0E8FF011CFE
:100B4000381C04F0CDFFF8BDF0B583B0040001916E
:100B5000101CFC21890504F0DAFF594904F0BDFF9F
:100B6000051C011C04F0D3FF071C1023E05E05F0F8
:100B700015F8011C381C04F0CAFFE021890504F0B7
:100B8000C6FF071C0E23E05E05F008F8291C04F0E0
:100B9000BEFF011C04F0A4FF391C04F0A1FFFA21E0
:100BA000890504F0B4FF071C0C23E05E04F0F6FF97
:100BB0008F21C90504F0ABFF011C381C04F090FF25
:100BC000071C0A23E05E04F0E9FF291C04F09FFFE4
:100BD000291C04F09CFFD821890504F098FF061C0D
:100BE0000823E05E04F0DAFF291C04F090FF011CEA
:100BF000301C04F075FFD821890504F088FFE0213E
:100C0000890504F084FFFE21890504F069FF051CB5
:100C1000E08804F0BEFF011C281C04F078FF051CCE
:100C2000002104F0A3FF002848D1019804F0B1FF8F
:100C3000011C9320C00504F050FF061CE621890525
:100C4000381C04F064FF011C301C04F046FF1D49F1
:100C500004F05DFF291C04F046FF051C1623E05E2E
:100C600004F09CFF291C04F052FF291C04F04FFFE4
:100C7000C021890504F04BFF061C1423E05E04F03C
:100C80008DFF291C04F043FFE021890504F03FFF9C
:100C9000011C301C04F024FF061C1223E05E04F04B
:100CA0007DFF011C301C04F01BFFF621890504F0B8
:100CB0002EFF291C04F014FF03B0F0BD0020FBE759
:100CC00000007A470050C345F0B5C64600B50400A1
:100CD0000E00101C364904F000FF051C300004F023
:100CE00058FF061C1E23E05E04F058FF8521C9054D
:100CF00004F00DFF071C2023E05E04F04FFFE2210B
:100D0000890504F004FF291C04F001FF011C381CB4
:100D100004F0E6FE011C301C04F0DFFE061C1A2362
:100D2000E05E04F03BFFDE21890504F0F0FE071CC5
:100D30002223E05604F032FFCA21890504F0E7FEC1
:100D4000291C04F0E4FE8046207F04F022FFCA2123
:100D5000890504F0DCFE291C04F0D9FEFE2189057A
:100D600004F0BEFE011C404604F0D1FEFE218905C0
:100D700004F0B6FE011C381C04F0C9FE011C301C36
:100D800004F0C5FE051C207E04F003FF291C04F0BE
:100D9000BEFED821890504F0BAFE011CFE208005A4
:100DA00004F09BFE291C04F0B2FE80BCB846F0BDE6
:100DB0000000964701600271C3600123C371837113
:100DC0004371002303724372033383727047000040
:100DD000F0B5C64600B584B004000E0001A9FFF7C7
:100DE00048FE051E44D1103401992000FFF76BFE28
:100DF0008046224904F077FE071C214904F0BEFE1C
:100E0000002807D11F49381C04F0BEFE002802D07C
:100E10001C4F00E01A4F3760424602992000FFF74E
:100E200093FE071C7060184904F0A8FE002807D143
:100E30001649381C04F0A8FE002802D0134F00E029
:100E4000114F776001AB198942462000FFF73CFF44
:100E5000041C002104F092FE002807D10C49201C3C
:100E600004F092FE002802D0094C00E00024B46097
:100E7000280004B080BCB846F0BDC0460000A045C4
:100E8000000020C20000AA420060EA4600D8D6470F
:100E90000000C84210B54279194B9A5C81795C5CBC
:100EA000C179595C002A25D0D00080188001801AB1
:100EB0008000144B9C466044002C1DD0E2001219A7
:100EC0009201121B9200104B9C466244801800292C
:100ED00014D0CB005B189B015B1A9B000A4A944616
:100EE0006344C018094B9C466044FA21890004F011
:100EF00039FA10BD0348DFE70022E7E70023F0E7F7
:100F000058750110E20400003F020000E7030000F2
:100F100070B50500FFF79DFC041E0CD0002C0FD00F
:100F2000002C12D0002C15D0002C02D1AB7A032B50
:100F300015D0200070BD2800FFF7AAFC0400EDE7E3
:100F40002800FFF7ABFC0400EAE72800FFF7D2FC1B
:100F50000400E7E72800FFF741FD0400E4E7EB6841
:100F60009E682800FFF796FFB047E2E710B502F051
:100F7000D7F910BDF0B5C64600B582B002AF060085
:100F8000884619003B7E5C1CE4B2E51DED08ED00CF
:100F90006846401B854602AD2A70092068441A0045
:100FA00004F0D0FE0023009323002A0041463000C5
:100FB00007F09CFD844204D10020BD4680BCB846A9
:100FC000F0BD02204042F8E7F0B585B004000D0006
:100FD00011001E000AAB1F780F226A441170012312
:100FE0000093290007F082FD01280CD10023009313
:100FF0003B0032002900200007F084FDB84205D1F3
:10100000002005B0F0BD02204042FAE70120404236
:10101000F7E7000010B5024804F0CAFF002010BD39
:101020006C75011070B5050014001100094804F03A
:10103000EFFF094BEA5894466444EC50074B9C423E
:1010400001DC002070BD064B0022EA50054804F088
:10105000AFFFF6E780750110840800003B04000034
:10106000880800009475011010B58921090101203C
:1010700004F02AFE041E04D0044804F099FF200066
:1010800010BD034804F094FFF9E7C046E87501106D
:10109000B475011070B504004068002834D00021F8
:1010A0000AF066FA0022002160680AF097FA00212F
:1010B00060680AF06FFA002160680AF05DFA0021AA
:1010C00060680AF075FA60680AF0ACFD051E11D17F
:1010D000002363602068002807D000210AF048FA46
:1010E00020680AF09FFD00232360084804F060FF99
:1010F000280070BD0100064804F08AFF60680AF00D
:10110000BFFB0D256D42E3E70025E3E720760110E4
:101110000076011010B5002904D1044804F048FFFE
:10112000002010BD024804F073FFF9E73C7601107F
:1011300044760110F0B583B00600019114001F0041
:10114000002A13D015F0A8F815F0BAF82189002963
:1011500011D1200009F01EFC15F0A8F8284BF25818
:10116000284B9A4229D0002003B0F0BD012149420A
:10117000FFF7D0FFF8E7224D3B007259224804F0F8
:1011800047FF705982B21F4B9B1A9BB21F4AB1187E
:1011900027893A1C9F4200D91A1C92B209180023D1
:1011A000200009F011FE164BF25894466044F050AE
:1011B000218901980AF080F9CBE7144BF118114A04
:1011C0003000093015F0E4FE00280AD1104804F080
:1011D000EFFE104AB3580133B350092B0ADC00204C
:1011E000C2E70D4804F0E4FE012149423000FFF758
:1011F00091FFB9E700213000FFF78CFF0020B3E733
:10120000880800003C0400005076011045040000EE
:10121000807601108C0800007076011070B5050012
:101220000C000B000D3300D170BD044804F0F0FE3B
:1012300021002800FFF76EFFF6E7C0469C760110FC
:1012400070B506000C00151E1CD100291AD01248DA
:1012500004F0AEFE7460310020000AF089F90F49F5
:1012600020000AF097F90E4920000AF085F90622BD
:101270000C4920000AF0B2F90B4920000AF098F955
:10128000280070BD094804F093FE29003000FFF7E4
:1012900041FF06204042F4E7C876011025100010F7
:1012A00035110010151000101D120010B476011039
:1012B00070B506000D001B4B1868043011F0CCFA15
:1012C00001002A00184804F0A3FE2E200AF006FCB4
:1012D000041E13D0134B19680431AAB209F0EEFFB3
:1012E000011E10D1012120000AF0B4F8306000285E
:1012F0000FD031000AF03CF9012070BD0B4804F01A
:1013000057FE0020F9E72A00094804F081FE00207A
:10131000F3E7084804F04CFE20000AF083FC0020AC
:10132000EBE7C046ACEE0020DC7601100077011040
:10133000187701104077011010B504000D4804F033
:1013400037FE2000FFF7A6FE0B492000FFF7B0FF95
:10135000002808D0094804F02BFE206808490AF04C
:1013600035F9002010BD074804F022FE012040425C
:10137000F8E7C0465477011092100000A8770110DA
:10138000411200107C770110F0B583B004000D000D
:10139000234B0022C250234E3100234804F038FE74
:1013A00014F07AFF14F08CFF210009310123320080
:1013B00028000CF065FF0190060028000DF016FCD7
:1013C0000500070014F072FF002E04D1002D1CD17F
:1013D000380003B0F0BD0199144804F019FE330041
:1013E0000B3308D00E360BD0012149422000FFF705
:1013F00091FE0700ECE72000FFF79EFF0700E7E7FC
:101400000B4804F0D5FD0027E2E72900094804F065
:10141000FFFD012149422000FFF77CFE0700D7E7CE
:10142000840800003C040000C8770110E877011030
:10143000047801101C780110F0B5CE46474680B5FF
:1014400091B004000D001600984618AB80CB1B78B5
:1014500099464E4B984200D191E00721404600F05A
:1014600021FC0123009342462900200007F0C6FC1E
:101470001022002108A804F05FFC80235B0208937F
:10148000F8235B0209938023DB020A93C0231B032A
:101490000A93102208A904A804F054FCF31C059A2E
:1014A00003923B491140F20111431B03194305917B
:1014B000079B0393DB00DB0880229205134307930D
:1014C000344B19400591102204A90CA804F03AFCF1
:1014D0000F9B0393304B039A1340424692021343EF
:1014E0000F934B46002B4CD020220E9B03932B498D
:1014F000194080239B020B435206F82189050A40BC
:1015000013430E939B009B088022D20513430E9336
:10151000052002F02FFC04F03CFB80462049381CDB
:1015200004F0F5FA011C404604F0DDFA804604F0B0
:1015300057FB87B2002F26D0380004F02AFB011C8D
:10154000404604F0CAFA8721C90504F0E0FA04F025
:1015500047FBC0B200023F0407430C970CAB3200BC
:101560002900200007F09CFC22680123AB409A432D
:101570001343236011B0C0BCB946B046F0BD06218C
:101580006CE71822B1E70020E4E7C04600002050D5
:101590007F00FEFFFFFFFF9FFF83FFFFFFFFF5C1FF
:1015A00000002041F0B5DE4657464E464546E0B5C0
:1015B00083B06F4A13680133136001F07DFF002987
:1015C00000DAC9E000D1CDE0FA229200002303F056
:1015D00007FF684D2860684E31006848FFF7F8FB48
:1015E000674B9946674C1A0011212068FFF74EF8A7
:1015F000654B9A461A0011212068FFF77BF8634B70
:101600009B461A0011212068FFF758F8604B984656
:101610001A0011212068FFF78DF85E4F3A00112162
:101620002068FFF7B7F880235B019422D2001121D4
:101630002068FEF79FFE91235B019422D2001121C6
:101640002068FEF797FE544B9422D20011212068A7
:10165000FEF790FEC82001F063FE80238022206800
:101660004E4900915B0012011121FEF79CFF4C4C8A
:101670002B6823605B46186804F090FA04F0B6FA11
:10168000484A494B04F0CDF804F07CF960605B46B1
:10169000586804F083FA04F0A9FA424A424B04F075
:1016A000C0F804F06FF9A0605346186804F076FAA9
:1016B00004F09CFA3D4A3E4B04F0B3F804F062F9A2
:1016C000E0605346586804F069FA04F08FFA374A2C
:1016D000374B04F0A6F804F055F920614B46186822
:1016E00004F05CFA04F082FA324A334B04F099F8C1
:1016F00004F048F960614B46586804F04FFA04F072
:1017000075FA2C4A2C4B04F08CF804F03BF9A061DC
:101710004346DB68E36143461B692362FB686362FF
:101720003B69A3623368E36273682363B3686363EE
:101730000023A363802220003C3018498023DB0073
:101740009C466144D20004F0FDFA03B0F0BCBB46F5
:10175000B246A946A046F0BD184B194A3F21194888
:1017600002F046FCFA21890003F0FCFD31E7C04697
:10177000243D0020383D0020F4EE0020B03B002046
:10178000E8EE0020C00E0020283D00204C01012082
:10179000C0EE00205C50002030120000441A0020EF
:1017A000EC4600204B8F6B97E988E63E1F2A1CD839
:1017B000B581A63EC6E3BBE3F0B24F3F38780110D7
:1017C000C07B011054780110F0B5CE46474680B575
:1017D00085B04E4D280004F0EBFB4D4B19684D4889
:1017E00004F016FC4C4B19684C4804F011FC4C4CAE
:1017F000236B9846636B9946E06A04F0F7F906009C
:101800000F00484604F0F2F902900391404604F0BC
:10181000EDF90090019132003B00424804F0F8FBE2
:10182000414804F0C5FB606804F0E0F902000B00D9
:101830003E4804F0EDFBE06804F0D8F902000B002C
:101840003B4804F0E5FB606A04F0D0F902000B00AD
:10185000384804F0DDFBE06904F0C8F902000B0031
:10186000354804F0D5FB606904F0C0F902000B00B4
:10187000324804F0CDFBA06804F0B8F902000B0078
:101880002F4804F0C5FB206904F0B0F902000B00FA
:101890002C4804F0BDFBA06A04F0A8F902000B007C
:1018A000294804F0B5FB206A04F0A0F902000B00FF
:1018B000264804F0ADFBA06904F098F902000B0083
:1018C000234804F0A5FB234C234A11212068FEF78E
:1018D00021FE0100214804F09BFB90222068D200E9
:1018E0001121FEF717FE01001D4804F091FB2800AE
:1018F00004F05EFB1B491C4804F08AFB0A2004F03C
:1019000023FB05B0C0BCB946B046F0BD94780110C9
:10191000243D0020B8780110383D0020CC7801101B
:10192000EC460020E07801101C790110407901108C
:101930004C790110587901106479011078790110FF
:1019400098790110A4790110B0790110BC790110C7
:10195000D0790110C00E0020FE040000F0790110C3
:10196000107A01103C040000247A0110F0B5C6463C
:1019700000B582B004F058FBA14CA249206807F0E2
:10198000A7F90200A04B19682068012301939F4B1F
:1019900000930923FFF750FD9D4B5B68DB03FBD4ED
:1019A0009B4B802212021A6111F096F9041E00D09E
:1019B000C9E011F05FF8974D9749286806F0A4FE3A
:1019C000964E9749306807F065F82B6859680227EA
:1019D0003940181DC0229201024317601F680F2270
:1019E0007A40CF273A4080277F013B431A6080230B
:1019F0009B01034319600121122000F053F90121DA
:101A0000132000F04FF90121102000F04BF90321C1
:101A1000042000F047F90321052000F043F90022DB
:101A20000121042000F056F900220121052000F0D8
:101A300051F90E2000F0FAF90C2000F0F7F914200B
:101A400000F0F4F9112000F0F1F9D0231B068022F8
:101A5000D2015A6280214903884659629F628021DF
:101A60008902596259619A6142465A61FA27BF0058
:101A7000380001F055FC6B496B4804F0C9FA6B481B
:101A800004F096FA1420FEF765FCC82001F048FC2B
:101A900011212868FEF7B4FC9620400001F040FCBC
:101AA000634A11212868FEF735FD0100614804F002
:101AB000AFFA614A11212868FEF748FD414601400E
:101AC0005E4804F0A5FA5E4A11212868FEF722FD5F
:101AD00001005C4804F09CFA5B4D5C4B7622316857
:101AE0002800FFF767F92800FFF712FA584804F0BA
:101AF0005FFA380001F014FC454B5B68DB03FBD454
:101B0000434B544A1A61022C2EDC534D2A0021000B
:101B1000524804F07DFA524B524A5349280011F0C2
:101B200073F800281CD0504A4B49504804F070FA12
:101B3000022C11D04E4804F03BFAFA20800001F04C
:101B4000EFFB0134DFE74B4804F062FA012040422A
:101B500002B080BCB846F0BD474804F029FAF5E76A
:101B60003D49464804F054FAFFF77EFA041EEDD0D2
:101B70004349FFF79DFB002813D0424804F018FAB0
:101B80004149206809F022FDFA20800001F0C8FBDD
:101B90001F4B5B68DB03FBD41D4B802212061A61CE
:101BA00018E03A4804F004FAD0E7FFF7FBFCFFF72F
:101BB0000BFE374A37492000093004F0C3F8364895
:101BC00004F0F6F961682000FFF7DEFBC820400052
:101BD00001F0A6FB6368002BE7D1FFF7E3FCFFF7FA
:101BE000F3FD2E4B1868043010F036FE0100244A35
:101BF0002B4804F00DFAFA20C00001F091FBE9E750
:101C0000BC0E0020D87B0110E400012000504349A5
:101C100000002050C00E0020404B4C00B80E0020A9
:101C2000A086010000C01F10587A0110847A0110AC
:101C3000FE040000A07A011072040000C87A0110AE
:101C400003040000EC7A0110B03B00206075011025
:101C5000047B011000785010187B0110207B0110CC
:101C600030750000040040003C7B0110487B0110EF
:101C70007C7B0110447A01106C7B0110887B011081
:101C800092100000A8770110411200107C7701101B
:101C90003C040000EC4600209C7B0110ACEE0020D0
:101CA000AC7B011010B58300084A944663441C685D
:101CB00040226240C02414408022520113431C6021
:101CC000C000034B9C466044416010BD04C001400D
:101CD0000040014080000B4B9C46604400290DD021
:101CE0000823002A0CD004221343026853400C221C
:101CF0001340802252011043036070470023F0E735
:101D00000022F1E704C00140002909D08000094BFE
:101D10009C46604480239B01184302230360704764
:101D20008000044B9C466044C0239B01184302235F
:101D30000360F4E704C0014070B5D0231B061B68A4
:101D40009D00094C2C59204207D19B002043064C92
:101D500018510D2000F0F2F970BD044B044ACC215B
:101D6000044802F045F9C046BCFE0020E87B0110A3
:101D70009C7C0110147C011010B50400D0231B06BC
:101D80001B689B000A4A9B5818420BD00D2000F09C
:101D9000EFFAD0231B061B6805499B005A58A24343
:101DA0005A5010BD034B044AD621044802F020F9D2
:101DB000BCFE00204C7C0110787C0110147C0110CA
:101DC000072303409B00C00899403C308000014B32
:101DD000C150704700400140F8B507000C001600E4
:101DE0001D00FFF7EDFFFB089B00ED1807203840B2
:101DF00080008440002E04D080239B011D432C6072
:101E0000F8BDC0239B011D432C60F9E710B5D0231A
:101E10001B061B68002B03D0024BFFF7DDFF10BD34
:101E2000014BFAE7304101400041014010B5012368
:101E30008340D0221206936293610521FFF732FF9F
:101E400010BD0000034B1B6802201840431E984140
:101E5000C0B2704700C00640EFF3108072B6034B6B
:101E60001B68002BFBD0BFF35F8F70472C0100D0A5
:101E7000BFF35F8F024B00221A6080F31088704717
:101E80002C0100D0F8B506000C001500FFF7E4FFA8
:101E9000E308F718F15C07222240012393400B422C
:101EA00005D1DBB20B433B70FFF7E2FFF8BD210029
:101EB000280002F037F9F0B583B006000191140054
:101EC0001F00FFF7C9FF00E00134BC420CD8E30853
:101ED000F518F35C0721214001228A401A42F3D110
:101EE000D2B21A432A7001E001246442FFF7C0FF16
:101EF000002C02DB200003B0F0BD019B002BF9D0C9
:101F0000089802F00FF9000070B505000C00FFF70B
:101F1000A3FFE308EE18EA5C07210C400123A3406D
:101F2000134204D09A433270FFF7A2FF70BD034BF7
:101F3000034A2C31034802F05BF8C046D07C011004
:101F40002C7D0110F07C0110002307E0054A9A184F
:101F50009200BFF35F8F0021116001331F2BF5D971
:101F60007047C04640000034054A1078431CDBB27D
:101F70001370172B02D9130010221A707047C04635
:101F8000C40E002000B583B00100044B00931F2352
:101F900018220348FFF78FFF03B000BD3C7D0110FE
:101FA000F83C0020074B9B68103080001950BFF3AD
:101FB0005F8FBFF35F8F044B0021196082F310889D
:101FC0007047C04600ED00E0240100D01F23181A1E
:101FD0007047000010B5091A081F0A4B9C4661445F
:101FE000094A914208D8C30706D440104005400D65
:101FF000064B184380B210BD054B064AA321064884
:1020000001F0F6FFFC070000FE0F000000E0FFFFFC
:10201000587D0110C07F0110887D011010B5091A8C
:1020200004394C08090B08D14905490D064A1143EA
:102030000180064B2343438010BD054B054AAB216D
:10204000054801F0D5FFC04600F0FFFF00F8FFFF94
:10205000C07D0110947F0110887D01100123834011
:10206000034A10681840431E9841C0B27047C046EA
:1020700000E100E0002904D0034B1860034B186016
:102080007047034B1860FBE780E200E000E100E0EE
:1020900080E100E010B5012383401800FFF7EAFF5C
:1020A00010BD000001238340014A13607047C04601
:1020B00000E200E0024B9B6810308000C05870477F
:1020C00000ED00E010B5FFF7F5FF002805D0054B47
:1020D000C01A2F2803D8012010BD0020FCE70020E3
:1020E000FAE7C046C80E002070B504000D00EFF3FB
:1020F000108672B60C4B1B68002BFBD0BFF35F8FB2
:102100002000FFF7D7FF094B984201D0A84205D124
:10211000320029002000FFF745FF70BD044B054A3F
:102120008621054801F064FF240100D0CD01001094
:10213000D07D0110F47F0110887D0110F0B5DE46DE
:1021400057464E464546E0B589B081460191150097
:10215000EFF3108A72B6744B1B68002BFBD0BFF3F1
:102160005F8F724B0027DF57002F40DB7C00E419A4
:10217000A4006F4824180622A2566C4B1A706D4BAF
:102180009A684B4610339B00D35898461E001B1A82
:102190002F2B38D9684B98452FD105AE674B33802C
:1021A0007B009B46D8198000614B98464044023022
:1021B0006349FFF70FFF7080624BB380FF23B37159
:1021C000F571019B07935F44BF0047440ECE0EC7D5
:1021D00001231C43A046524641464846FFF7E2FE13
:1021E00009B0F0BCBB46B246A946A046F0BD564B6E
:1021F000564AD721564801F0FBFE564B534ADE2182
:10220000534801F0F5FEC04340440C2103F0AAF806
:10221000002912D101239E43B34633000026DA7908
:10222000AA4211D90621595600290CDB4A0052183E
:1022300092001E003E4B9B18F1E7474B434AEA21B0
:10224000434801F0D5FE1E00002E3AD005AB434AAC
:102250001A80813A5A800623F3560293002B17DA2C
:102260003F4805AB9B469880029A9A71DD71019AAE
:102270000792301D2100FFF7ADFEB080B7717B00E3
:10228000DB199B002A4FFF185B4607CB07C7A2E765
:102290007800C0198000264BC0180430321DB38866
:1022A000D90A1C2907D15B0559150231490051187B
:1022B000FFF790FED5E72B4B2B4AB121244801F0C4
:1022C00097FE05AE1D4B33807B000293D81980002A
:1022D000174A9046020042440392901C1849FFF7A7
:1022E00079FE7080039A101D5946FFF773FEB08087
:1022F0001E4B5A464146521A524153431B0DB3716D
:10230000F571019A0792029B9C466744BF004744BF
:102310000ECE0EC7114B5A461380813B53800123CA
:102320001C43A04657E7C046240100D07901012094
:10233000C80E002000ED00E0CD01001000A1FFFF5D
:10234000F80E002001BDFFFF087E0110DC7F0110A8
:10235000887D0110307E0110587E01100148000078
:1023600001BD0000CC7E0110CC7F0110AAAA0000A4
:10237000F0B5CE46474680B583B006000D00EFF3BA
:10238000108872B6564B1B68002BFBD0BFF35F8FD3
:10239000544B9A6834001034A300D758524B9F42D4
:1023A00007D0AF4200D198E00197504BFB1A2F2B7A
:1023B00009D9424639003000FFF7F4FD03B0C0BC34
:1023C000B946B046F0BD3000FFF748FE8146002117
:1023D0003000FFF75FFEBFF35F8FEFF30581002949
:1023E00001D08C4211D10123019C9C430022A3689F
:1023F000AB4212D00622A256002A0DDB53009B18D6
:102400009B002200394CE418F1E73621384B394A59
:10241000FF31394801F0ECFD2200AB4256D10625D0
:102420006557002D38DB6B005B199A002F4B9B180A
:102430009A68A260DA79E27106229A56A2719B79B3
:102440005BB2002B0FDA2D48A0806B005B199B005C
:10245000264AD3182A4A11789971157049463000D6
:10246000FFF718FEA5E7201D6B005B199B001F4AB4
:102470009B181A1D9B88D90A1C2907D15B055B157F
:10248000023359005118FFF7A5FDDDE71D4B1E4A29
:10249000B121194801F0ACFD002912D1002A0ED05B
:1024A000FF239371194B9380154A1378A371184B2E
:1024B0000E49641A644163431B0D1370CEE70A4F43
:1024C000F2E7201D1349FFF7A9FDC7E76A21124B68
:1024D000084AFF31084801F08BFD034F69E7C04609
:1024E000240100D000ED00E0CD010010C80E002056
:1024F000E47E0110AC7F0110887D011001BD000059
:1025000079010120CC7E0110CC7F011001BDFFFFBD
:10251000AAAA0000020F0020187F011010B50323A3
:1025200004009C43064A9446644422681840C00054
:10253000FC3383409A43130081400B43236010BD5A
:1025400000E400E070B5012101432E4BCB1A2F2B84
:1025500028D8EFF30583002B2BD0EFF3108C72B645
:10256000294A1268002AFBD0BFF35F8F274A040074
:10257000244D641B64416243120D54B2244A926894
:102580009B00D2588A421BD00022032A32D8530023
:102590009B189B001B49CB189B795BB2A3421FD0B1
:1025A0000132F2E7C7211B4B1B4A49001B4801F0CF
:1025B0001FFD92211A4B184AFF31184801F018FDEF
:1025C000134A92681749D150174B1A7882711C70C0
:1025D000BFF35F8F0C4B00221A608CF3108870BD24
:1025E0000D005300991889006918FF268E710F4A53
:1025F0008A80E9E7D1210E4B074A4900074801F0DC
:10260000F7FCC046C80E0020240100D0AAAA000092
:1026100000ED00E0207F0110787F0110887D01101F
:10262000487F0110CD0100107901012001BDFFFF9D
:10263000547F01100022044B02E0044902C301321E
:10264000072AFAD97047C04600E400E08080808005
:1026500010B5FFF7BBFC01000148FFF755FC10BDAA
:102660008501012000B583B00100064B00930523CE
:1026700000220548FFF71FFC002801DB1F23181A62
:1026800003B000BD5C7F01108501012070B504001E
:102690000E001500FFF768FC0100200000F006F8AE
:1026A000A680E580BFF35F8F70BD0000024B9C46A3
:1026B00061448900016070474000003410B5040097
:1026C000FFF752FC01002000FFF7F0FFFF2323710A
:1026D000BFF35F8F10BD10B50400FFF745FC01008C
:1026E0002000FFF7E3FFFF23237100236371BFF393
:1026F0005F8F10BD034B9C46614489000160BFF3AE
:102700005F8F70474000003410B504000120FFF7D0
:1027100039FC01002000FFF7EDFF10BD70B505008A
:102720000C00080000F0A4FF0949200000F0E4FEBE
:10273000FFF71AFC074B9C466044800068602C75CC
:10274000D0231B061B786B75A400034BE55070BDAE
:10275000612A001040000034D8EE00200A4B1A68AD
:10276000EFF3108172B61368002BFCD0BFF35F8FBC
:10277000054B1B68BFF35F8F00221A6081F310883E
:1027800040BF002000217047E000012010B5002963
:1027900022D003681B7B99421ED8174B9C4661448C
:1027A000090183689C4661440C684968002A19D075
:1027B00003681B7B9A4215D883680F48844662449D
:1027C00012019A1810685368020001208B4201D848
:1027D0000ED00020C0B210BD084B094A3C21094868
:1027E00001F006FC054B064A3C21064801F000FCBE
:1027F000A242EFD8EDE7C046FFFFFF0F688101104E
:10280000EC8301103881011010B500291ED0037B24
:1028100099421BD84B005B18033B0468A4466344F1
:10282000002919D0002A1DD0914221D0002A25D09C
:10283000047BA24222D80468500080180338201874
:102840008170197800291FD11A7010BD104B114AE0
:102850006821114801F0CCFB104B114A6F310E4832
:1028600001F0C6FB0F4B0E4A70210B4801F0C0FB74
:102870000D4B0B4A7121084801F0BAFB044B054A85
:102880006821054801F0B4FB41701A70DDE7C046CD
:102890008C8101106C840110A8810110EC81011061
:1028A00048840110F88101100482011070B50600FF
:1028B0000D001400002914D0002A14D08068736819
:1028C0009847002806D0220029003000FFF79CFF1F
:1028D000280007E02A0021003000FFF795FF2000C4
:1028E00000E0100070BD0800FCE70000F0B583B008
:1028F0000500009201930AAB1C780BAB1F78002CEB
:1029000026D003685A7B944207D10123002B19D1AA
:10291000002C3BD1200003B0F0BD002C0CD01A7B62
:10292000944209D81A6863001B19033BD3189B789B
:10293000002BEBD00123E9E73E4B3F4A68213F489B
:1029400001F056FB3E4B3F4A67213F4801F050FBE8
:1029500003689C7B002CDBD012D01A7B94420FD8EA
:1029600062001219033A19688C46624451789973CF
:10297000002900D1D9730023937053701370C7E7F7
:102980002C4B2D4A68212D4801F032FB002C3AD007
:102990002B681B7B9C4236D82C4BE3181B01AA6882
:1029A00094466344009A1A60019A5A60089A9A60A1
:1029B000099ADA602E68002C2BD030D0337B9C42F1
:1029C0002DD863001B19033B3268944663440022F0
:1029D0009A705A701A70717B22003000FFF766FF00
:1029E0007073844200D095E7287D009A019B00F027
:1029F000CBFD061E01D0002F17D00C9B002B00D161
:102A000088E71E7086E7124B124A3C210E4801F0FF
:102A1000EFFA114B114AA521084801F0E9FA054BDC
:102A2000054A6821054801F0E3FA2868210001F011
:102A300021F8E2E78C8101106C840110A88101105B
:102A40001C8201107884011038810110FFFFFF0FF4
:102A500068810110EC830110348101105C84011045
:102A6000F0B5DE4657464E464546E0B58BB0099078
:102A7000002308938200B54BD658370052E0B44B80
:102A8000B44A3F21B44801F0B3FAB44BB44A3C21F4
:102A9000B44801F0ADFA002901D1002869D1002124
:102AA000404600F0DDFFA04219D12A686B6806920B
:102AB0000793AB689846EB689A464346002B14D0C0
:102AC000002C18D03B681B7B9C4214D8631EFA680C
:102AD000D35C08931B0218433861002015E0A24B19
:102AE000A24A8E219F4801F083FAA14B9F4A92216E
:102AF0009C4801F07DFA994B9E4A4121994801F08A
:102B000077FA00239A46984600207B68BFF35F8FD0
:102B100000221A6086F310884346002B32D1002829
:102B200000D10CE100F0C8FC02000B1EA7DB002066
:102B30000021069007917868EFF3108672B601685D
:102B40000029FCD0BFF35F8F396888464C7B002C8E
:102B5000D7D09AD0097B8C4297D8874965182D0128
:102B6000B9688C46654428686968801A99410029CB
:102B700091DD2A686B68099800F006FD00239A46EB
:102B80009846C2E7089B1B0223439946514618000A
:102B9000C04705000E007A68EFF3108B72B6136819
:102BA00059424B41D9B2002BF9D1BFF35F8F002EB0
:102BB0001EDB002E46DD3B69002B47D04B456DD117
:102BC00000F07AFC02000B1E6EDB52197341002BE1
:102BD00070DB002B72DB0021049101310391029420
:102BE00051460191414600913800FFF77FFE4CE0CD
:102BF0003B69002BDDD04B4514D1069A079B521B35
:102C0000B341002B14DB002B16DB002104910131B2
:102C10000391029451460191414600913800FFF71B
:102C200065FE32E0554B514AA1214E4801F0E0F9D2
:102C300001225242524BE6E7454B464A3F21464865
:102C400001F0D6F9002E01D1002DB4D13B68002C43
:102C500050D05A7B944237D1012100294AD1DA7BE6
:102C6000002A4DD19A7B002A03D1DA7B002A5AD15F
:102C70009C73DC73002C5CD03B681B7B9C4258D857
:102C8000FA68013C135D0133135500233B617A68F8
:102C9000BFF35F8F13608BF3108843E7374B334AE2
:102CA000A421304801F0A4F9294B2A4A3F212A489F
:102CB00001F09EF901225242314B8AE7244B254A0A
:102CC0003F21254801F094F9002C0DD01A7B944245
:102CD0000AD862001219033A18688446624492784E
:102CE000002ABAD00121B8E7264B274A6821274895
:102CF00001F07EF9264B274AF621244801F078F9A5
:102D0000002A0AD0197B8A4207D851008A18033A50
:102D100019688C4662445470A4E71A4B1A4A682119
:102D20001A4801F065F91C4B1A4AFB21174801F0BB
:102D30005FF90A4B0F4A41210A4801F059F90BB0DB
:102D4000F0BCBB46B246A946A046F0BDD8EE002076
:102D500038780110B883011054780110688101108F
:102D6000EC8301103881011044820110D0830110DE
:102D70005C82011024840110FFFFFF0F68820110A4
:102D8000FFFFFF7F8C8101106C840110A88101106E
:102D9000A482011038840110C882011010B50C4BB8
:102DA0005B68002B04D00A210A48FFF77FFC10BDA6
:102DB000074C2300084A1021206800F043FD03203F
:102DC00000F056FB03212000FFF7A8FCEBE7C0460C
:102DD000100F0020E00001208D27001010B5064BD9
:102DE0005B68002B01D0044810BD044B044A5E21EF
:102DF000044801F0FDF8C046100F0020DC820110ED
:102E00000C8401103881011070B50500182002F003
:102E10003DFF040002000C49280000F01AFD20606C
:102E20001021280002F050FFA0600121280002F0CC
:102E30004BFFE060012000F02FFB01002000FFF7B6
:102E40006DFC200070BDC0468D27001010B5040039
:102E5000164B98421DD0037D9900154A8A5882422C
:102E60001DD19B00124A00219950006800F007FD17
:102E7000207D002100F040FB207D00F005FBE06894
:102E800002F042FFA06802F03FFF200002F03CFF8A
:102E900010BD084B084AD321084801F0A9F8084B97
:102EA000054AD721054801F0A3F8C046100F0020BD
:102EB000D8EE0020187F0110F8830110388101102E
:102EC00000830110F0B5DE4657464E464546E0B554
:102ED0008BB0804616001F00149B9A46159B99469E
:102EE00016AB1B789B461F2302AA9446634400221C
:102EF0001A702BE0002809D042461268127B9042DB
:102F000004D8421E4146C9688A5C41E0404B414AB0
:102F10004121414801F06CF807984CE0361BAF4165
:102F2000002F07DB002F11DA3C4B3D4A3F213D4883
:102F300001F05EF8012676423B4FF3E7374B384A03
:102F40003F21384801F054F8002F4FDB43465A68C0
:102F5000EFF3108472B6136859424B41D9B207910E
:102F6000002BF8D1BFF35F8F1F3302AA944663444E
:102F700004930023039302934B460193534600931B
:102F800032003B004046FFF7B1FC031EB2D1020005
:102F900041464968BFF35F8F00250D6084F31088B8
:102FA000002B29D01F2302A98C4663441B78002BD9
:102FB000B2D112021043002B20D05B46002B1DD053
:102FC0004946D04704000D0003000B431DD00029E3
:102FD000A4DB00F071FA06000F1EAFDB36196F415B
:102FE000002FB1DA012676420F4FADE70B4B0C4AAA
:102FF0003F210C4800F0FCFF012040420BB0F0BC28
:10300000BB46B246A946A046F0BD0798F6E7C046C3
:103010006881011024840110388101103878011072
:10302000B883011054780110FFFFFF7FF0B589B01D
:1030300005001F216944002008706868EFF31087BD
:1030400072B601680029FCD0BFF35F8F1F2169446D
:10305000049101210391002102910F9901910E9990
:1030600000912800FFF742FC0400031E12D1060065
:103070006A68BFF35F8F0021116087F31088002B0F
:103080001CD01F236B441B78002B13D1300220432C
:1030900009B0F0BD002807D02A68127B904203D8FF
:1030A000421EE9688E5CE3E7064B074A4121074868
:1030B00000F09EFF287D00F0FBFAE7E70120404288
:1030C000E6E7C046688101102484011038810110B0
:1030D000F8B50400002900D162E04268EFF31085E2
:1030E00072B6136858424341D8B2002BF9D1BFF3EE
:1030F0005F8FCBB22268567BB3421BD101200028E0
:1031000048D0206988422BD0090AC9B2002B2ED0A2
:103110002068007B83422AD8581EE668305C8842CB
:103120002BD000206368BFF35F8F00221A6085F305
:103130001088F8BD002B0DD0167BB3420AD85E0074
:10314000F618033E1768BC466644B678002ED6D003
:103150000120D4E7134B144A6821144800F048FFBB
:103160002C21134B134AFF31134800F041FF134B3E
:10317000134A4121104800F03BFF1900100000F0F5
:1031800079FC0028CED199210E4B0A4A49000A4801
:1031900000F02EFF23698B42C4D100232361C1E7D5
:1031A0000020C6E78C8101106C840110A8810110F9
:1031B00028830110A083011038810110688101105B
:1031C000248401104C830110407D7047F0B587B016
:1031D00006000F00EFF30583002B1FD10624644285
:1031E000E517A4197D418D4202D803D1844201D94B
:1031F00000240025002D14DB0494059500F05CF9F3
:1032000002000B1E13DBA41A9D41002D17DC14D005
:103210003000390000F05CF907B0F0BD234800F041
:1032200081FF234B234A3F21234800F0E1FE204B3E
:10323000204A3F21204800F0DBFE002CE8D0FFF7B9
:10324000CDFD0023029301931C4B0093049A059B30
:10325000FFF738FE002818DADAE7002300E0002341
:10326000002BD5D1164B1A68EFF3108172B6136894
:10327000002BFCD0BFF35F8F114B1B68BFF35F8F38
:1032800000221A6081F3108820BF0499059A0D4B23
:103290005B6A9A42E3D80B48806A884203D29A421A
:1032A000DBD00123DCE70123DAE7C04650830110BD
:1032B00038780110B8830110547801105D27001090
:1032C000E00001200040054070B504000D0000F052
:1032D000F3F802000B1E0ADB200029008018594178
:1032E00000290ADB00290CDBFFF770FF70BD084BDB
:1032F000084A3F21084800F07BFE01204042074970
:10330000F0E7034B034A3F21034800F071FEC0463B
:1033100038780110B883011054780110FFFFFF7F47
:1033200010B5FA2292000023002102F0B9FBFFF74A
:10333000CBFF10BD70B584B005000C00EFF3058322
:10334000002B1ED1FFF74AFD002302930193224B6D
:1033500000932A002300FFF7B5FD061E23DD20BFE2
:10336000FFF73CFD3100FFF7B3FE1C4B5B6A9C424C
:103370002DD81A4A926AAA422CD29C4225D001200A
:1033800026E0164B5B6A994209D8144A926A824237
:1033900007D2994201D001201AE0002018E0002055
:1033A00016E0012014E00D4B5B6A9C4209D80B4AE1
:1033B000926AAA4207D29C4201D0012008E0002074
:1033C00006E0002004E0012002E0002000E00020F0
:1033D00004B070BD0120FBE75D27001000400540F0
:1033E00070B5EFF305801038EFF3108C72B61A4BFE
:1033F0001B68002BFBD0BFF35F8F012213008340BB
:1034000016494B6316490B60164909780C00C440F5
:10341000224214D0114A546A8200134D52599442E8
:1034200006D38200114C125999430E4B197007E0D4
:103430000A4A031D9B0099589950002200E000227F
:10344000BFF35F8F044B002119608CF31088002AB2
:1034500000D0904770BDC046280100D00040054014
:103460003C7005408401012000010120943A0020B5
:1034700010B50100024A0348FEF704FD10BDC04626
:10348000988401107301012010B501000148FEF776
:103490003BFD10BD7301012000B583B00100044B5A
:1034A0000093032300220348FEF705FD03B000BD8F
:1034B000BC84011073010120044B5B6A034A906ACB
:1034C0001900536A9942F9D17047C046004005403F
:1034D000084B5B6A01E0074B5B6A8B42FBD301E060
:1034E000044B5B6A8B4203D1024B9B6A8342F7D346
:1034F0007047C0460040054070B504000D00EFF372
:10350000108672B61B4B1B68002BFBD0BFF35F8F7E
:10351000002D1CD02000FEF7CDFD174B83420BD0B1
:1035200019002000FEF7E0FD01212000FEF7B2FDAA
:103530000123A340114A1360A400114BE550BFF3CF
:103540005F8F0C4B00221A6086F3108870BDA200BA
:103550000B4B0021D1500122A2400A490B78934322
:103560000B7005492000FEF703FF00212000FEF745
:1035700091FDE4E7280100D0E133001038600540F8
:10358000943A002084010120F0B5DE4600B584B0F5
:103590000400150001921E000293FFF78DFF0395B2
:1035A0008E4202D84ED185424CD9EFF3108B72B6C1
:1035B000274B1B68002BFBD0BFF35F8F254A177882
:1035C0000125A540EBB23B431370234B5D63221DE5
:1035D00092000199D150A2002049029850501B6AD4
:1035E0002B4212D11C4B1B6C2B4208D00020BFF386
:1035F0005F8F174B00221A608BF3108823E0184B63
:10360000184AC521184800F0F3FCFFF755FF8E4219
:1036100014D802D1039B834210D80E4B1B78BB42B7
:103620000ED00D4B1D625D631F2004400123A3409B
:103630000E4A1360074B1F701E38D8E70020D6E7EC
:103640000120D4E7012004B080BCBB46F0BDC046D9
:10365000280100D084010120004005400001012024
:10366000D084011030850110F484011080E200E064
:10367000EFF3108C72B60B4B1B68002BFBD0BFF323
:103680005F8F01238340084A136208490A789A43EE
:103690000A70BFF35F8F034B00221A608CF310880F
:1036A0007047C046280100D0004005408401012039
:1036B000EFF3108C72B60B4B1B68002BFBD0BFF3E3
:1036C0005F8F01238340DAB20749087802430A700A
:1036D000BFF35F8F034A002111608CF31088034A07
:1036E00013607047280100D0840101203C60054030
:1036F00010B500291ED0037B99421BD84B005B18E4
:10370000033B0468A4466344002919D0002A1DD055
:10371000914221D0002A25D0047BA24222D80468FD
:1037200050008018033820188170197800291FD1A3
:103730001A7010BD104B114A6821114800F058FC56
:10374000104B114A6F310E4800F052FC0F4B0E4ADD
:1037500070210B4800F04CFC0D4B0B4A71210848BE
:1037600000F046FC044B054A6821054800F040FC87
:1037700041701A70DDE7C0468C810110308601105F
:10378000A8810110EC8101101C860110F881011044
:103790000482011070B506000D001400002914D039
:1037A000002A14D0806873689847002806D0220049
:1037B00029003000FFF79CFF280007E02A002100C5
:1037C0003000FFF795FF200000E0100070BD0800FA
:1037D000FCE7000010B50023437301338373037BC0
:1037E000C3730123027B9A4214D9002B0CD0027BB5
:1037F000934209D85A00D218033A01688C466244B1
:103800000133DBB25370EDE70B4B0C4A68210C48D7
:1038100000F0EEFB002A09D0924207D8016853005D
:103820009A18033A8A180023537010BD024B034ABA
:103830006821034800F0DCFB8C8101103086011008
:10384000A881011010B5017342608360FFF7C2FFC9
:1038500010BDF8B505000E0017001021012002F080
:1038600033FA04000321280002F02EFA20603B0006
:10387000320029002000FFF7E5FF2000F8BD10B559
:103880000400006802F040FA200002F03DFA10BD8A
:1038900070B50400081E00D170BD002934D0237B10
:1038A000994231D84B005B18033B2268944663442D
:1038B0005A78002AF0D02DD0237B9A422AD8530080
:1038C0009B18033B21688C4663445D780021597046
:1038D000002825D0237B984222D843001B18033BA5
:1038E00021688C4663440021597001002000FFF7D5
:1038F00051FF060029002000FFF7CAFF0200310037
:103900002000FFF747FFC7E7084B094A682109482D
:1039100000F06EFB054B064A6821064800F068FB84
:10392000024B034A6821034800F062FB8C810110BE
:1039300030860110A881011070B505000C0016003A
:1039400000292FD034D0037B994231D84B005B182B
:10395000033B0268944663445A78002A2ED19A7831
:10396000002A31D11978FFF793FF0300002E0AD007
:10397000EA7B002A2ED1AA7B002A03D1EA7B002A07
:103980003BD1AC73EC73002B3DD1002C4FD02B7B83
:103990009C424CD82B6861000C19033C1C19002375
:1039A000637070BD254B264A3821264800F020FB65
:1039B000254B264A6821264800F01AFB254B204A51
:1039C0003A21204800F014FB234B1D4A3B211D489F
:1039D00000F00EFB002A0AD0297B8A4207D851004A
:1039E0008A18033A29688C4662445470C3E7164B20
:1039F000164A6821164800F0FBFA184B104A42217B
:103A0000104800F0F5FA002B0BD02A7B934208D81F
:103A100043001B18033B2A689446634400229A70B3
:103A2000B3E7094B094A6821094800F0E1FA064B5F
:103A3000064A6821064800F0DBFAC0464C850110B2
:103A400008860110548501108C8101103086011008
:103A5000A881011084850110AC850110C882011075
:103A600070B504000A00457B2900FFF765FF60730D
:103A7000280070BD70B50400002967D0437B8B42DD
:103A80000ED0002911D0037B99420ED84B005B1851
:103A9000033B0268D0188378002B0CD1002056E03D
:103AA0000121FFF7DDFF012051E0294B294A682160
:103AB000294800F09DFA002B20D0227B93421DD88C
:103AC0005A00D318033B2268D2182568EB5C8B425E
:103AD0001AD0002B1BD0227B934218D85A00D3183F
:103AE000033B2268D21853788B4216D0002BF0D1BA
:103AF0001A4B1B4A6B211B4800F07AFA144B154AEB
:103B00006821154800F074FA4378137007E0104BF1
:103B1000104A6821104800F06BFA43785370002374
:103B20008370437001222000FFF706FF0200617BD3
:103B3000814205D02000FFF72DFE6073012006E0D2
:103B4000094B074A7121074800F052FA002070BD66
:103B50008C81011030860110A8810110547F011062
:103B6000F085011054850110D0850110F8B5DE46AE
:103B700057464E464546E0B505000F0092460A9A64
:103B8000934250D31A0E91461E020A9A0023300027
:103B9000494601F025FC80466C006419A400304BB6
:103BA0009C4664446368834200D260602B1FDBB292
:103BB0009B46012B3DD9C0239B0123438022120148
:103BC0001A60AB00274A9958002907D0506901F0C4
:103BD000C9FB431C5800C0180338FDD253465A0194
:103BE00023685A40E0231A4080235B0123431A6074
:103BF0005A46012A28D980239B012343802212019F
:103C00001A6043466360424600233000494601F093
:103C1000E7FBAD00134B58510120F0BCBB46B24648
:103C2000A946A046F8BD104B104A3321104800F0B9
:103C3000DFF9012FBFD1C0239B01234303221A6068
:103C4000A368DB07FCD5C9E72168794003220A4055
:103C50001A60A2680123BB401342FAD0CBE7C046EA
:103C600000800040FC3C00203C8601108C86011046
:103C70005086011030B583B00C2000F011F9FEF72A
:103C8000E1F800280DD0002304E099002D4A2E48C9
:103C900088500133092BF8D92A4B2C4A5A6203B0B9
:103CA00030BD2B4B00229A6700F06CF9294B0122A2
:103CB0001A60274B5B6C012BFBD1274B03221A6048
:103CC000234B9B6B012BFBD1013300930433234A1D
:103CD0000121234800F054F805230093214A0121D3
:103CE000214800F04DF8214B0093002202210420CE
:103CF000FFF73CFF1E4D00952B00002201210520FF
:103D0000FFF734FF104C009423000022002107200D
:103D1000FFF72CFF00942300002200210820FFF76A
:103D200025FF0A4B00932300002200210920FFF702
:103D30001DFF00952B00002200210620FFF716FF33
:103D4000ADE7C046FC3C0020006CDC021BB7000065
:103D5000008000403CB0004030B00040002F685967
:103D600000800240008C864700C00240001BB70064
:103D7000405973078000014BC0587047FC3C00203D
:103D8000F0B5C64600B504000E0017001D00374808
:103D900001F0E8FA8046364BFA18364B9A4239D889
:103DA0000100380001F0DEFA0200103A98235B00AF
:103DB0009A4235D86B1E062B38D8069B013B062B42
:103DC00034D83F09474537D32D04069B1A031543C2
:103DD0002368002B36DB284B9C4244D080225201C2
:103DE000264B1A60264B1A60264B9B68110099439C
:103DF000FAD12660A060231DC02292011A4321231C
:103E000013602368002BFCDAE5600823136080BC94
:103E1000B846F0BD1C4B1D4A11211D4800F0E8F8C2
:103E20001C4B1A4A19211A4800F0E2F81A4B174A9B
:103E30001C21174800F0DCF8184B144A23211448C1
:103E400000F0D6F822683F231340B342C3D1A368E1
:103E50001B051B0D8342BED1E368EE22D202134044
:103E6000AB42B8D1D3E780229201B9E7001BB7007B
:103E700080E84BD380F8A93200C0024000E0004047
:103E800000F0004000C000409C860110B88701107F
:103E9000FC86011034870110508701109C870110A7
:103EA00080239B000343014AD36270470080054092
:103EB000024B1A68024B5A607047C046A854002053
:103EC0000080054010B50200164B8020C005186028
:103ED000154B1648186000290AD0154BE021C9047B
:103EE0001960002A09D1124B802212061A6010BDF7
:103EF0000C4BE021C9041960F3E753019B1A9800A9
:103F0000801800010B4B186080235B04984202D399
:103F1000084B094A1A60FFF7CBFF054B8022D205F8
:103F20001A60E4E700B0054008200140FCFF0100F2
:103F300000A00540A8540020FFFFFF0010B50300BB
:103F400010000C4A8024E4051460002B0DD00122DF
:103F50001343094A094CD461094C5C401462516214
:103F600093620021FFF7AEFF10BD034B0022DA6120
:103F7000F7E7C04600B0054000800540D3C007B059
:103F80002D3FF84F064BAA2212011A602F22DA6049
:103F9000044B054A1A60024B5B68002BFBDA704742
:103FA000004002400060024000B0FA0000BEFDE7A1
:103FB00003000A4A1268002A08D0084A1068C31889
:103FC000074A9A4206D3054A13607047034A0549D7
:103FD0001160F2E701204042F7E7C046745000202C
:103FE000000004208801012010B5FFF7DFFF00006A
:103FF00010B582B00C001900002A0CD0084B002A22
:104000000BD00192009323000200064802F000F852
:104010000120FFF7CBFF044BF1E7034AF1E7C0466D
:10402000C4870110D4870110807A011070B52B4B22
:104030002B4A1A602B4B2C4A1A602C4B9A682A4B3D
:104040009343FAD12A4C01E008CC9847294B9C4273
:10405000FAD3FFF70FFE234B274A1A60234B9B68C6
:10406000DB43DB01FAD1254B40229A675A671A6776
:10407000DA66234C09E0234B234A87212348FFF7C4
:10408000B7FF2000FEF71AFB0834214B9C4209D2EF
:104090002368002BF5D0012BEDD12000FEF71BFB90
:1040A0000834F2E71B4CA1681B4DC022280001F028
:1040B00049FEA560EFF30583002B00D000BEFDF79D
:1040C00043FFFEF7B7FAFEF769FE144C01E008CC97
:1040D0009847134B9C42FAD370BDC04600E00040A5
:1040E000BFCDFBFE00F00040FE7F3C0000C0004062
:1040F0005818002068180020FFFFFF0100F0014061
:1041000048180020048801108088011024880110BC
:104110005818002000ED00E0000000206818002082
:10412000701800200FB400B583B0084801F040FFBC
:10413000049B002B07D005A90191180001F048FF4E
:10414000034801F035FF0120FFF730FF60880110C0
:10415000E477011010B50148FFF7E4FF7088011003
:10416000704710B5002802D00B684968984710BD09
:104170000100002007E083001B185B00501C086052
:104180001078C01830380A681378303BDBB2092B3E
:10419000F1D97047F0B5DE4657464E464546E0B584
:1041A00083B093461F000C9B9A460D9C0E9B99462C
:1041B0000F9B9B0703D0B8460F00060022E0019238
:1041C000A34688464E46B9460700B44207D2551C5E
:1041D0004B4641462020B84701342A00F5E73D0010
:1041E0004F465C46019B9B46B1464646B846370063
:1041F0002E0007E0013C551C5346185D434639002C
:10420000B0472A00002CF5D135003E0047460F9BF1
:104210009B0707D4100003B0F0BCBB46B246A946CA
:10422000A046F0BDB0464E46B9462F005D46531B32
:10423000B342EFD2541C4B4641462020B8472200DF
:10424000F5E7F0B5CE46474680B585B0944698462A
:104250000C9D0D9C0EAB1B789946109A119B129EDB
:10426000B7071CD4002B0CD0F7070AD54F46002FF8
:1042700002D10C37374204D0013B02E030272F55E2
:104280000134944201D21F2CF8D9F70707D59C427C
:1042900005D21F2C03D830272F550134F5E7F70638
:1042A00015D5770505D4002C03D0944224D09C4228
:1042B00022D00F9A102A2BD00F9A102A30D00F9AA2
:1042C000022A35D01F2C02D830222A5501341F2C47
:1042D00005D84A46002A31D02D222A5501340396AA
:1042E00002930194009543466246FFF753FF05B0E1
:1042F000C0BCB946B046F0BD621E012C06D00F9F6F
:10430000102F01D01400D4E7023CD2E71400D0E70C
:10431000B206D1D41F2CCFD878222A550134D1E748
:10432000B206CCD51F2CCAD858222A550134C9E769
:104330001F2CC7D860322A550134C3E7720703D552
:104340002B222A550134CAE73207C8D520222A5524
:104350000134C4E7F0B5DE4657464E464546E0B563
:1043600093B081468A46089209931CAB10CB1B7808
:104370009B461E9D219B9846002C03D1102342464C
:104380009A4390468023DB0046461E4042461A422E
:1043900012D0002C22D000260EE03033D9B2771C88
:1043A0000AAB99552900200000F0DCFFAC4216D37F
:1043B0001F2F14D83E0004002900200000F0D2FF77
:1043C000CBB2092BE9D94246920605D54121C9183D
:1043D000C9B20A39C9B2E2E76121F8E727004346CA
:1043E0000693209B05931F9B049303955B460293C2
:1043F00001970AAB0093099B089A51464846FFF77C
:1044000020FF13B0F0BCBB46B246A946A046F0BDA3
:10441000F0B5DE4657464E464546E0B595B00890A5
:1044200009910A920B931E9E1F9C20AB1B789B4602
:10443000229B9946239D269B9A463300234303D112
:10444000103352469A4392468023DB0057461F4062
:1044500052461A4219D0330023432DD0002714E0CE
:104460003033DAB27B1C98460CABDA554A462B0047
:104470003000210000F0B4FFA5421FD819D04346F8
:104480001F2B1BD8474606000C004A462B00300065
:10449000210000F0A5FFD3B2092BE1D952469206C4
:1044A00005D54122D218D2B20A3AD2B2DAE7612255
:1044B000F8E7B145E3D901E0002398465346069357
:1044C000259B0593249B04934B4603935B460293E1
:1044D000434601930CAB00930B9B0A9A09990898E9
:1044E000FFF7AFFE15B0F0BCBB46B246A946A046EA
:1044F000F0BD0000F0B5DE4657464E464546E0B5F5
:1045000091B083468A460C9298461A9C08941B9D4B
:10451000099522002B002000290001F0DCF9002879
:1045200000D0E5E001225242D74B2000290001F0E3
:10453000CDF9002800D0DBE001225242D34B20000D
:10454000290001F0ADF9002800D0D1E000220023BD
:10455000089E3000099D290001F0A2F9002800D032
:10456000DDE008980999069007918023DB001E9AE8
:104570001A400D921E9A1A4201D106231C930698E6
:10458000079904000D000A000600024300D1D1E0A3
:10459000080D4005400DBE4CA44660440A03120BB2
:1045A000BC4B13431F0001F0A9F9BB4ABB4B01F000
:1045B00038F9BB4ABB4B01F015F904000D0000228D
:1045C000B94B3000390001F008F9B84AB84B01F096
:1045D00028F902000B002000290001F003F901F086
:1045E000A5F9814601F08AF904000D00B14AB24BE9
:1045F00001F017F90022B14B01F0F4F801F096F93F
:104600000600AF4AAF4B2000290001F00AF9040070
:104610000D00300001F072F9AB4AAC4B01F001F92A
:1046200002000B002000290001F0D7F804000D0063
:1046300002000B0001F0F5F80A900B91A44BF3185F
:1046400000261F0522002B002000290001F0CAF8D7
:104650000E900F9122002B0000208021C90501F04F
:10466000BCF804000D0000229A4B0A980B9901F047
:10467000BEF80022984B01F0B5F802000B000A9832
:104680000B9901F0B4F80022944B01F0ABF8020052
:104690000B000A980B9901F0AAF802000B00200009
:1046A000290001F09FF802000B000E980F9901F00D
:1046B0009EF80022774B01F095F832003B0001F0A4
:1046C000B0F806000F0004000D00069A079B01F0E9
:1046D000FDF8002830D001235B429C46E1440022D3
:1046E0007D4B3000390001F082F804000D0023E01A
:1046F0001E9B04931D9B03931C9B0293089A099B8A
:104700000092019343460C9A5146584600F0FCF83B
:1047100011B0F0BCBB46B246A946A046F0BD00238E
:10472000002406930794069680231B069C46654446
:1047300007951AE7002399464B466333C62B1ED8CC
:1047400004261E9B1B0526D52B0023430FD0644A4D
:10475000644B0698079901F0B1F8002879D000223F
:10476000614B0698079901F09BF8002871D01C9BBB
:104770004B4506DD4A46981A431E1C9303E0052666
:10478000DFE700231C938023DB001E9A1A431E924E
:104790000026002399461D9B9E4264D29F1B022344
:1047A0001E9A1A400A921E9A134202D0002E00D07E
:1047B00000274B46002B07D022002B0006980799B4
:1047C00001F015F806900791002200230898099936
:1047D00001F066F8002848D1444B1E9A1340049318
:1047E00003971C9B0293069B079C009301944346EE
:1047F0000C9A5146584600F087F8002E00D187E702
:104800001E9B9B063DD54525441C43460200514650
:104810002800D8474B46DA179B18534005220592CB
:10482000013E0496002203920A3202924A46D00FB9
:10483000019000934346220051465846FFF78AFDF7
:104840000A9B002B00D163E702005F460C9E1D9D72
:1048500054E01C9B002B9ED00D9B002B9BD01C9BDF
:10486000013B1C9397E7002799E7069C079D2200D0
:10487000290080200006844661440B0006920793BD
:10488000AAE76525C0E7C046FFFFEF7FFFFFEFFF08
:1048900001FCFFFF0000F03FFB799F501344D33F22
:1048A000B3C8608B288AC63F0000F83F61436F633E
:1048B000A787D23F71A379094F930A400000E03FD8
:1048C0001655B5BBB16B0240EF39FAFE422EE63FFA
:1048D000FF03000000002C400000244000001840AE
:1048E0002D431CEBE2361A3F80842E41FFF7FFFF79
:1048F000541C434651462020B8472200931BAB422C
:10490000F6D3100004E7C046F0B5DE4657464E46E3
:104910004546E0B595B00690079193469946209F8D
:104920001E9A1F9B1000190000F0D5FF002831D1FE
:1049300001225242BF4B1E981F9900F0B1FF002880
:1049400037D101225242BC4B1E981F9900F0BEFF86
:1049500000283DD10022B94B1E981F9900F0B6FFE8
:10496000002850D10022B64B1E981F9900F098FFE6
:10497000002848D1002200231E981F9900F090FFC4
:10498000002850D100239846229B5B0500D4B6E056
:10499000002458E0229B0393219B0293032301935D
:1049A000A84B00934B465A4607990698FFF7F2FB2F
:1049B0000EE1229B0393219B029304230193A24BBC
:1049C00000934B465A4607990698FFF7E3FBFFE032
:1049D0000423229A1A4022990B4210D09B4B002AA2
:1049E0000FD0042222990391219902910192009300
:1049F0004B465A4607990698FFF7CCFBE8E0944BE4
:104A0000EDE70322EEE7229B0493219B0393029799
:104A10001E9B1F9C009301944B465A46079906988B
:104A2000FFF768FDD4E01E9A1F9B0020002100F0D4
:104A3000D4FE1E901F9101239846A5E70CAB3022AF
:104A40001A55013F01341F2C01D8092FF6D81E98A2
:104A50001F9900F06BFF050000F050FF02000B00F3
:104A60001E981F9900F0B9FEFA007A4B9B181A683D
:104A70005B680A920B9300F0D4FE0890099100F055
:104A800079FF060000F036FF02000B000898099934
:104A900000F0A3FE0890099100226F4B00F016FF72
:104AA00000282ED00136300000F024FF02000B0059
:104AB0000A980B9900F0FAFE002801D00135002673
:104AC000002F2CD1280000F019FF02000B001E98C7
:104AD0001F9900F082FE06000F0000225E4B00F0DE
:104AE000DFFE002846D100225B4B3000390000F089
:104AF000EDFE00283ED1EB073CD501353AE0062714
:104B000046E70022544B0898099900F0C9FE002896
:104B1000D6D1002E01D0F307D2D50136D0E7AA4670
:104B20001F2C11D8013F0A21300000F01BFC651C2E
:104B300030310CAB19550A21300000F013FC092E5E
:104B40000ED906002C00EBE755461F2C0CD87B1E17
:104B5000002F09D00CAA302111551F000134F4E7B1
:104B60002B0055461C00F0E71F2C03D80CAB2E225F
:104B70001A5501341F2C10D80A21280000F0CAFB56
:104B8000661C30310CAB19550A21280000F0C2FB1D
:104B9000051E01D03400EDE734000323229A1340B0
:104BA000012B1CD01F2C06D84346002B32D00CAB57
:104BB0002D221A550134229B0393219B02930194C9
:104BC0000CAB00934B465A4607990698FFF7E2FA5A
:104BD00015B0F0BCBB46B246A946A046F0BD219B2D
:104BE000002B13D04346002B02D10C3313420FD0BD
:104BF000219B013B2193190003E00CAB30221A5595
:104C000001348C42CED21F2CF7D9CBE72199F8E79B
:104C10002199F6E7229B5B0704D50CAB2B221A5592
:104C20000134C8E7229B1B07C5D50CAB20221A55BF
:104C30000134C0E7FFFFEFFFFFFFEF7F65CDCD4100
:104C400065CDCDC19C880110A08801109488011009
:104C500090880110888A01100000E03FF0B5DE4620
:104C600057464E464546E0B593B082468B46904641
:104C70001193002900D1EBE200275546119B1878CB
:104C8000002800D1E7E2252809D07C1C43463A00E1
:104C90005946A847119B013311932700EEE70133D2
:104CA00011930024119A11780B00203BD8B21028E0
:104CB00003D88300D048C3589F460B00303BDBB27B
:104CC000092B2CD92A292FD000230A93119B1A785B
:104CD0002E2A39D000239A46119A1378683BD9B20C
:104CE000122976D88B00C549CB589F4601231C4317
:104CF00001321192D6E702231C4301321192D1E70F
:104D000004231C4301321192CCE708231C430132D7
:104D10001192C7E710231C4301321192C2E711A878
:104D2000FFF726FA0A90D1E71C9B1A1D1C921868FF
:104D3000002804DB0A90119B01331193C6E702237C
:104D40001C4343420A93F6E78022D20014435A1CC4
:104D500011925A781300303BDBB2092B04D92A2A6E
:104D600007D000239A46B7E711A8FFF701FA824659
:104D7000B2E71C9B1A1D1C921868002804DB8246AF
:104D8000119B01331193A7E70020F8E780235B0014
:104D90002343511C119152786C2A01D01C0018E059
:104DA000C0239B001C430131119112E08023234357
:104DB000511C11915278682A01D01C0009E0C023CF
:104DC0001C430131119104E080235B001C4301323C
:104DD0001192119B18780300253BDAB2532A00D9AF
:104DE0002CE29300864AD3589F4680239B001C43A5
:104DF00001321192EDE780235B001C4301321192D6
:104E0000E7E7782809D0582838D06F2838D06228AA
:104E100038D010239C430A2600E01026582833D0AF
:104E2000692803D0642801D00C229443630501D57E
:104E30000122944369282AD0642828D0A30500D5EC
:104E40009FE0E30500D5B8E0630600D4CAE01C9AF1
:104E5000111D1C911168FF220A4005940A9B0493BE
:104E600053460393029600230193009243463A006F
:104E700059462800FFF76EFA070027E01026CDE715
:104E80000826CBE70226C9E720221443C8E7A3057A
:104E900020D4E30550D4630666D51C9A111D1C91DD
:104EA0001168FF220A40D317D118594005940A9B74
:104EB0000493534603930296D20F01920091434606
:104EC0003A0059462800FFF745FA0700119B0133C5
:104ED0001193D3E61C9BDA1D07218A431100083188
:104EE0001C91116853689C46DB170C930D930C9A28
:104EF0000D9B100048400E90624653400F930E9851
:104F00000F990C9A0D9B801A99410E900F9108945D
:104F10000A9B079353460693049600230593634622
:104F2000DA0F02920090019143463A005946280058
:104F3000FFF76EFA0700C9E71C9A111D1C91126851
:104F4000D317D118594005940A9B049353460393F1
:104F50000296D20F0192009143463A00594628002A
:104F6000FFF7F8F90700B1E7230605D51C9A111DD4
:104F70001C910023D25E96E71C9A111D1C911268A9
:104F800091E71C9BDA1D07218A43110008311C910F
:104F900008940A9B079353460693049600230593AF
:104FA0000293136854680093019443463A005946AB
:104FB0002800FFF72DFA070088E71C9A111D1C91A5
:104FC00005940A9B0493534603930296002301938E
:104FD0001368009343463A0059462800FFF7BAF990
:104FE000070073E723060DD51C9A111D1C9112684A
:104FF0001204120C31E7C046A8880110EC88011099
:10500000388901101C9A111D1C91126825E7462849
:105010001AD01C9B0733072293431A0008321C92B4
:1050200004940A9A0392524602925C681B680093A9
:10503000019443463A0059462800FFF765FC0700F3
:10504000119B0133119319E620231C43E1E76728E4
:1050500001D0472802D180231B011C43452801D0E1
:10506000472801D120231C431C9B0733072293436D
:105070001A0008321C9204940A9A03925246029231
:105080005C681B680093019443463A005946280027
:10509000FFF730FA0700119B01331193EEE502236D
:1050A0001A002240924623421FD001241C9B1A1D45
:1050B0001C927A1C9146187843463A005946A847F4
:1050C0005346002B16D1119B013311934F46D5E562
:1050D000561C434659462020B847230032005C1C2A
:1050E0009D42F5D83D001700E0E701233A002F006C
:1050F0000A9DF4E74A46A9460A9D06E0571C434626
:1051000059462020C84734003A00661CA542F5D80D
:105110004D469146D7E71C9B1A1D1C921B68994669
:105120005346002B00D1013B4E4601E001361300EF
:105130003278002A02D05A1E002BF7D14B46F21AC1
:1051400010928023DB0026001E401C4203D05245F3
:1051500001D95346109302231A0022400B92234296
:1051600005D03A0037004C46A946554620E03A00A3
:10517000109B5F46B3462E0006E0551C434639009F
:105180002020B04723002A005C1C0A999942F4D8D9
:1051900035005E46BB46109437004C46A94655463E
:1051A00006E01D000134561C43465946C8473200EC
:1051B0002078002804D0002FF4D06B1E002DF0D1F1
:1051C00017004D460B9B002B03D1119B013311930C
:1051D00054E50A9F109B06E0561C43465946202082
:1051E000A847230032005C1C9F42F5D81700ECE76B
:1051F00021231C431C9B1A1D1C921B6800930594C1
:10520000082304935346039310230293002301932E
:1052100043463A0059462800FFF79CF80700119BC7
:10522000013311932AE57C1C43463A005946252058
:10523000A847119B0133119327001FE57C1C4346AF
:105240003A005946A847119B01331193270015E5F1
:105250000A4B9A4610E5AA46474502D343465A1ED2
:1052600000E03A00434659460020D047380013B0CA
:10527000F0BCBB46B246A946A046F0BD6141001055
:1052800000B585B0029003910121009313004A42BA
:1052900002A90248FFF7E2FC05B000BD634100101F
:1052A00001480421014B1847400F0020DD52001037
:1052B000014B9B6818470000400F002010B501000B
:1052C00018231B8814221088984710BD10B50100C0
:1052D00018231B8816221088984710BDF0B5C646C3
:1052E00000B507000E0000250123984600E00135B7
:1052F000B5420AD2AC003C192068FFF7DFFF2060FE
:105300000028F4D100239846F1E7404680BCB84617
:10531000F0BD0000124A936F9B0815D29066D166CB
:10532000002905D0FFE7FFE7FFE7516F106F7047D7
:1053300004B580210906C2175140002800D0C84397
:1053400012F08AF8002104BDF0B5146E556E576F47
:10535000166FFFF7E3FF1466556657671667F0BDD3
:10536000000000D0114A936F9B0813D2106651665B
:10537000002905D0FFE7FFE7FFE7516F106F704787
:1053800004B5002801D00020C04312F065F80021C8
:1053900004BDC046F0B5146E556E576F166FFFF71B
:1053A000E5FF1466556657671667F0BD000000D02C
:1053B00094464A4A926F9208624601D228E0C0465B
:1053C000F0B5464E346E756E776F366F00F020F88C
:1053D0009446424A14665566576716676246F0BDA2
:1053E00094463E4A926F9208624601D254E0C0460B
:1053F000F0B53A4E346E756E776F366F00F04CF83C
:105400009446364A14665566576716676246F0BD7D
:10541000002B24DB11D000293EDA00B5C9434042FD
:1054200000D1013100F038F8C943404200D10131C8
:10543000DB43524200D1013300BD002AEBD10028EA
:1054400001D1002905D00020C90FC90701D1C043EF
:10545000410800B511F0E8FF0022002300BD00B5AF
:1054600000290ADBDB43524200D1013300F014F87B
:10547000C943404200D1013100BDC943404200D17F
:105480000131DB43524200D1013300F005F8DB4328
:10549000524200D1013300BD002923D1002B18D185
:1054A000002A0CD0BC460D4F38667A6600210023D6
:1054B000FFE7FFE7FFE77A6F386F6746704700281E
:1054C00001D00748010000B511F0AEFF0022002313
:1054D00000BD02000B00002000217047000000D03A
:1054E000FFFFFFFF002B00D0BFE0130C28D1002AE4
:1054F000E7D080B4114F39667A66FFE7FFE730B432
:10550000040C7B6F396F1B0423433B667A66FFE70D
:10551000FFE7FFE7C04684B27B6F3D6F1B04234368
:105520003B667A66FFE7FFE7C04600232C042D0C9C
:105530007A6F386F00196941B0BC7047000000D025
:10554000F0B594460025140E01D112020835140F4F
:1055500001D112010435940F01D192000235D40F0C
:1055600001D152000135D40B0134254F7C66254C06
:105570003C660E0C93B2FFE7FFE7FFE73C6F664324
:10558000360C7703BE467343DF0B5B04C01AB94188
:10559000130C7343DB18C91ACE086643360CB644A5
:1055A00093B273431F0F1B01C01AB941130C73430D
:1055B0001F0B1B05C01AB941860D8F023E4366437F
:1055C000360C092D24DB520A7243801A7703460AEF
:1055D0006643360C16235B1BDE40DF40BF19644672
:1055E0006643821B7046043506330100D940A8404B
:1055F000C01900D30131A24206D20023F0BD000041
:10560000000000D0FFFFFFFF121B0130F3D3F1E7D2
:1056100009277F1BFE406446A2B27243801A00D263
:105620000139220C7243130C1204821A99410B00A7
:105630007046043513370100F940A840801900D3A3
:105640000131002B02D1A2420AD2F0BD013000D3B9
:105650000131121BFAD2013BF8D1A24200D2F0BDB7
:10566000013000D30131121BF7E7F0B51C0C00D05C
:1056700080E00CB400251C0A04D11B02160E334333
:10568000120208351C0B04D11B01160F3343120103
:1056900004359C0B04D19B00960F334392000235D6
:1056A000DC0B02D192185B4101351C009718644154
:1056B0000134464F7C66464C3C660E0CFFE7FFE724
:1056C000FFE7C0463C6F6643360C7703BE4697B291
:1056D0007743C01B00D20139C01B00D201399FB2F1
:1056E0007743C91BC91B170C77437E04FF0B801B34
:1056F000B941CE086643360C0C2D33DBB644120B91
:105700001F053A431B0B97B27743C01B00D20139E8
:105710009FB27743C91B170C77433E043F0C801B95
:10572000B941860D8F023E43664329277F1BFE4009
:105730000C3D7746AF40BF1930BCA2B2ABB272434A
:105740007343801A9941220C7243130C1204801A7D
:10575000994102000B000137001BA941F9D2781EC4
:105760000021F0BD0C277F1BFE4077467F0BAF402A
:10577000FF19E0E700245D1C07D0144F7D663966F1
:10578000FFE7FFE7FFE7FFE73C6F95B29EB2654397
:105790006643401BB141150C1E0C6543664336043D
:1057A0002F0C3E432D04401BB141994204D202000C
:1057B0000B0020000021F0BD01D19042F7D3801AE8
:1057C000994101349942F2D3F6E70000000000D07D
:1057D000FFFFFFFF48404140484018B4134B5B684F
:1057E000019308BD18B4114B1B68019308BD944682
:1057F0000F4A926F920805D2624618B40B4BDB68D1
:10580000019308BD0A4AF0B5146E556E576F166FB6
:105810006246FFF7F2FF064A146655665767166739
:10582000F0BD18B4014B9B68019308BDD8FE002061
:10583000000000D0FFB550404240504059404B401E
:10584000594000E0FFB5154F4C00640D03D0BC4239
:1058500004D10C0314D80020090D09055C00640D67
:1058600003D0BC4204D11C030AD800221B0D1B0527
:1058700001264B4009D44B4003D58B4200D18242D4
:10588000FFBD9942FCD19042FFBD0B43DB1803439F
:105890001343F5D0C9434918FFBD0000FF070000BE
:1058A00000B5FFF7CFFF804100BDC04600B5FFF750
:1058B000C9FF01D9002000BD012000BD00B5FFF7E0
:1058C000B9FF01D9002000BD012000BD00B5FFF7E0
:1058D000B1FF804100BD012040054A00121804D8E4
:1058E0005A00121801D8002070470120704700208C
:1058F000704700000021002805D17047C1174840BB
:10590000401AFAD0C90713B5064B1B6898470CBC60
:10591000441CA2401005120B0349091B0905194339
:10592000114310BDDCFF00201F04000010B54C0027
:10593000620D8023D218DB00D21A5B057E2A10DDAF
:105940009E3A13DACC170903490819435242D14051
:10595000640001341532202A05DAD0400843604340
:1059600010BD002010BD0846604310BDC80FC01810
:10597000013810BD18B4024B5B6A019308BD0000EA
:10598000D8FE002018B4024BDB6F019308BD000065
:10599000D8FE002010B50148FEF7C4FBD88A0110DC
:1059A00070B513231C78012C14D0012C14DC022CAC
:1059B00002DC1F4A1F4B9A641F48FFF77FFC1F4BF6
:1059C000186070BD99001E481A4A885001331F2B79
:1059D000F8D9EAE70023FAE71A48FFF777FC050051
:1059E0001948FFF773FC023803789B007F2B19DD01
:1059F000802229000F4800F0A5F9022CD7D1134BC3
:105A00001A88B5231B029A4209D1114B1A88114BEF
:105A10009A4204D1104B1A88104B9A42C7D00020EA
:105A2000FEF780FB0E4B0F4A32210F48FEF7E0FADB
:105A30006D5A0010D8FE00204C330000DCFF00201F
:105A4000955900105344000053460000543800009C
:105A5000D8380000494600009C3800005946000034
:105A6000F08A0110848B0110448B011007B5604649
:105A7000002800D100BE01880A0A0230DF2AFAD1CC
:105A8000C9B2820804D3028840880004104300E0B1
:105A90000068024A5050039007BD0000D8FE002065
:105AA00051434343C9188C46110C83B24B4310B485
:105AB000040C614392B280B2504362431C041B0C3D
:105AC000001910BC59411304120CC0185141614413
:105AD000704700004840414048400E4B5B68184703
