:020000041000EA
:1000000000B5324B212058609868022188439860DF
:10001000D860186158612E4B002199600221596106
:100020000121F02299502B49196001219960352056
:1000300000F044F80222904214D00621196600F024
:1000400034F8196E01211966002018661A6600F04E
:100050002CF8196E196E196E052000F02FF8012189
:100060000842F9D1002199601B49196000215960AB
:100070001A491B48016001219960EB211966A021F2
:10008000196600F012F800219960164914480160C1
:100090000121996001BC002800D000471248134993
:1000A000086003C880F30888084703B5996A0420EC
:1000B0000142FBD001200142F8D103BD02B5186610
:1000C0001866FFF7F2FF186E186E02BD00000240BE
:1000D000000000180000070000035F00212200005C
:1000E000F4000018222000A00001001008ED00E03C
:1000F00000000000000000000000000074B24E7A12
:1001000000200420F7010010C3010010C5010010F9
:10011000C1010010C1010010C1010010C101001097
:10012000C1010010C1010010C1010010C701001081
:10013000C1010010C1010010C9010010CB01001065
:10014000CD010010CD010010CD010010CD01001037
:10015000CD010010CD010010CD010010CD01001027
:10016000CD010010CD010010CD010010CD01001017
:10017000CD010010CD010010CD010010CD01001007
:10018000CD010010CD010010CD010010CD010010F7
:10019000CD010010CD010010CD010010CD010010E7
:1001A000CD010010CD010010CD010010CD010010D7
:1001B000CD010010CD010010CD010010CD010010C7
:1001C00000BE00BE00BE00BE00BE00BEEFF3058054
:1001D000103800BEF2EB88714443051068430510E7
:1001E0003402001090A31AE700201F49086006C8D7
:1001F00081F3088810471D48006800282FD10DA4FE
:100200000ECC002902D000F012F8F9E71849194A7B
:10021000002000E001C19142FCD1174988471749ED
:1002200088471749884700BEFDE701C901C29A42C5
:10023000FBD3704768430510C000002070180020F1
:10024000385B05100000042000000420385B051016
:10025000001004200010042000000000704709482E
:1002600004F080FF0047000008ED00E0000000D02F
:10027000901800207CE10020D53E001025170010CA
:10028000913E00105756000006005250ABB3605329
:100290009C8B011006005250861C0302AC8B01108F
:1002A000060052505422A29DB88B011005005250F6
:1002B000DE65F468385B0510F8B5C0460448054BA8
:1002C00010B5834203D0044B002B00D0984710BDDB
:1002D0007018002070180020000000000648074930
:1002E000091A8B10C90FC91810B5491003D0044B57
:1002F000002B00D0984710BD701800207018002007
:100300000000000010B5074C2378002B09D1FFF73F
:10031000D5FF054B002B02D0044800E000BF0123AD
:10032000237010BDF019002000000000F8730110C8
:10033000054B10B5002B03D00449054800E000BF71
:10034000FFF7CCFF10BDC04600000000F4190020EC
:10035000F873011070B501248440D0252D06AC61DE
:10036000322002F015FF6C61FA20800002F010FFCD
:1003700070BDF0B585B005006846871DC3801201C9
:100380000E236B441A8001248C40D0263606B461BB
:1003900001221900280017F01FF801223900280057
:1003A00017F01AF8746105B0F0BDF0B5C64600B597
:1003B00082B0040008001201694606310A801A0C56
:1003C00001ADA8462A806A46971C538001258540C6
:1003D000D0263606B5610122200016F0FDFF01226D
:1003E0004146200016F0F8FF01223900200016F0E7
:1003F000F3FF756102B080BCB846F0BD70B5040073
:100400000D000023344AFFF7B4FF002360222900C7
:100410002000FFF7CAFF0223304A29002000FFF71F
:10042000A8FFC0231B012E4A29002000FFF7A1FFCF
:1004300000232C4A29002000FFF79BFF00232A4AB3
:1004400029002000FFF795FF0C23284A29002000EF
:10045000FFF78FFF1E23264A29002000FFF789FFA0
:100460000123244A29002000FFF79FFF0023224A8E
:1004700029002000FFF799FF0023204A29002000CF
:10048000FFF793FF802394225B01D2002900200014
:10049000FFF76FFF1A4B1B4A29002000FFF785FF6B
:1004A0000023722229002000FFF77FFF164B174A16
:1004B00029002000FFF75DFF96221123D2002900BA
:1004C0002000FFF756FF90220123D20029002000D0
:1004D000FFF74FFF70BDC046B90400008104000063
:1004E000AF0400009304000092040000B604000072
:1004F0009A04000005040000060400000704000040
:1005000028EA22000F0400003F1F0000B204000090
:10051000F0B583B00500120108326B46DA8006336D
:1005200001248C40D0273F06BC610122190016F03F
:1005300053FF01AE012332000021280016F00CFF0A
:100540007C61308803B0F0BDF0B5C64600B582B01E
:100550000400120108326B46DA80063301258D4013
:10056000D0221206904695610122190016F034FF40
:1005700001AF01233A000021200016F0EDFE6B468A
:100580009E1C012332000021200016F0E5FE4346A8
:100590005D613B881B043088C01802B080BCB8463F
:1005A000F0BD70B505000E00140084229200FFF724
:1005B000CBFF20608C22920031002800FFF7C4FF9F
:1005C00060609422920031002800FFF7BDFFA06018
:1005D00070BD000070B505000E001400084AFFF75A
:1005E000B3FF2060074A31002800FFF7ADFF6060CD
:1005F000054A31002800FFF7A7FFA06070BDC04684
:100600000D0200002D0200004D02000070B5050033
:100610000E00140083229200FFF796FF20608B22C9
:10062000920031002800FFF78FFF60609322920054
:1006300031002800FFF788FFA060034A310028003E
:10064000FFF782FFE06070BD6602000030B583B046
:100650000C001300C268156801790068012200923D
:100660002200A84703B030BD30B585B00C000F2381
:100670006B441A70C26855680179006801220092C3
:100680002200A84705B030BD30B583B00C00C1686A
:100690000D6801790068009313002200A84703B099
:1006A00030BD30B583B00500012405E0EB689B68E0
:1006B000012098470134E4B2052C0DD86B46DA1DB1
:1006C000D0212800FFF7C2FF0028EFD16B46073387
:1006D0001B78602BEAD101E06420404203B030BDBA
:1006E00010B5B622E021FFF7BFFF10BD30B583B0D3
:1006F0000500012401E00134E4B2052C11D8EB68B7
:100700009B68022098476B46DA1DF3212800FFF70B
:100710009DFF002807D16B4607331B78DB07EAD41F
:1007200001E06520404203B030BD43185B781B02F6
:10073000405C18437047421852781202405C1043E4
:1007400000B2704770B588B004001A2301AA88214E
:10075000FFF79AFF051E3FD101AE00213000FFF7E1
:10076000E4FF208202213000FFF7E5FF60820421D0
:100770003000FFF7E0FFA08206213000FFF7D5FF31
:10078000E08208213000FFF7D6FF20830A213000E5
:10079000FFF7D1FF60830C213000FFF7CCFFA0836F
:1007A0000E213000FFF7C7FFE08310213000FFF774
:1007B000C2FF208412213000FFF7BDFF60841421A6
:1007C0003000FFF7B8FFA08416213000FFF7B3FF19
:1007D000E084727E2823E254002D1FD0002D1AD110
:1007E00001AE00213000FFF7A6FF6085B2782C2310
:1007F000E25403217156090133790F221A400A434A
:10080000E2850522B25612011B09134323860622F4
:10081000B2563223E254280008B070BD072301AA63
:10082000E1212000FFF730FF0500D7E710B582B0C7
:1008300004006B46DA1DF521FFF708FF002815D0EC
:10084000002825D000280FD1A37A012B37D003210F
:1008500062795201A3799B001A4352B20A43D2B281
:10086000F4212000FFF700FF02B010BD6B46D979DC
:1008700003220A40617A49010A4352B2217A89006F
:100880000A43D2B2DA71F5212000FFF7EDFED7E777
:100890006B469A1DF2212000FFF7D8FE0028D1D127
:1008A0006B469A7907218A4352B2072161560A435F
:1008B000D2B29A71F2212000FFF7D6FEC2E70021E2
:1008C000C6E710B582B00C0008236A46F721FFF78F
:1008D000DBFE00281DD16B461B781B036A4652784D
:1008E000120113436A4692781209134363606B4600
:1008F000DB781B036A461279120113436A46527968
:100900001209134323606B469A791202DB79134371
:10091000238102B010BDF8B50400080005F08DF881
:10092000061CE221890505F046F8071C208805F021
:1009300084F8051CEA21890505F03DF8011C381CE6
:1009400005F01FF8071C0223E05E05F07BF8011C90
:10095000381C05F030F8071CDC218905301C05F037
:100960002AF8061CE4218905281C05F024F8011C3E
:10097000301C05F006F8011C05F01DF8051C0423C9
:10098000E05E05F05FF8011C281C05F014F8011C5E
:10099000381C04F0F9FFF8BDF0B583B004000191F4
:1009A000101CFC21890505F006F8594904F0E9FFFF
:1009B000051C011C04F0FFFF071C1023E05E05F07E
:1009C00041F8011C381C04F0F6FFE021890504F011
:1009D000F2FF071C0E23E05E05F034F8291C04F03A
:1009E000EAFF011C04F0D0FF391C04F0CDFFFA210E
:1009F000890504F0E0FF071C0C23E05E05F022F8F7
:100A00008F21C90504F0D7FF011C381C04F0BCFF7E
:100A1000071C0A23E05E05F015F8291C04F0CBFF43
:100A2000291C04F0C8FFD821890504F0C4FF061C66
:100A30000823E05E05F006F8291C04F0BCFF011C49
:100A4000301C04F0A1FFD821890504F0B4FFE02197
:100A5000890504F0B0FFFE21890504F095FF051C0F
:100A6000E08804F0EAFF011C281C04F0A4FF051C28
:100A7000002104F0CFFF002848D1019804F0DDFFE9
:100A8000011C9320C00504F07CFF061CE6218905AB
:100A9000381C04F090FF011C301C04F072FF1D494B
:100AA00004F089FF291C04F072FF051C1623E05E88
:100AB00004F0C8FF291C04F07EFF291C04F07BFF12
:100AC000C021890504F077FF061C1423E05E04F0C2
:100AD000B9FF291C04F06FFFE021890504F06BFFCA
:100AE000011C301C04F050FF061C1223E05E04F0D1
:100AF000A9FF011C301C04F047FFF621890504F012
:100B00005AFF291C04F040FF03B0F0BD0020FBE7B2
:100B100000007A470050C345F0B5C64600B5040052
:100B20000E00101C364904F02CFF051C300004F0A8
:100B300084FF061C1E23E05E04F084FF8521C905A6
:100B400004F039FF071C2023E05E04F07BFFE22164
:100B5000890504F030FF291C04F02DFF011C381C0E
:100B600004F012FF011C301C04F00BFF061C1A23BA
:100B7000E05E04F067FFDE21890504F01CFF071C1E
:100B80002223E05604F05EFFCA21890504F013FF1A
:100B9000291C04F010FF8046207F04F04EFFCA217C
:100BA000890504F008FF291C04F005FFFE218905D2
:100BB00004F0EAFE011C404604F0FDFEFE2189051A
:100BC00004F0E2FE011C381C04F0F5FE011C301C90
:100BD00004F0F1FE051C207E04F02FFF291C04F018
:100BE000EAFED821890504F0E6FE011CFE208005FE
:100BF00004F0C7FE291C04F0DEFE80BCB846F0BD40
:100C00000000964701600271C3600123C3718371C4
:100C100043710023037243720333837270470000F1
:100C2000F0B5C64600B584B004000E0001A9FFF778
:100C300048FE051E44D1103401992000FFF76BFED9
:100C40008046224904F0A3FE071C214904F0EAFE75
:100C5000002807D11F49381C04F0EAFE002802D002
:100C60001C4F00E01A4F3760424602992000FFF700
:100C700093FE071C7060184904F0D4FE002807D1C9
:100C80001649381C04F0D4FE002802D0134F00E0AF
:100C9000114F776001AB198942462000FFF73CFFF6
:100CA000041C002104F0BEFE002807D10C49201CC2
:100CB00004F0BEFE002802D0094C00E00024B4601D
:100CC000280004B080BCB846F0BDC0460000A04576
:100CD000000020C20000AA420060EA4600D8D647C1
:100CE0000000C84210B54279194B9A5C81795C5C6E
:100CF000C179595C002A25D0D00080188001801A63
:100D00008000144B9C466044002C1DD0E200121958
:100D10009201121B9200104B9C46624480180029DD
:100D200014D0CB005B189B015B1A9B000A4A9446C7
:100D30006344C018094B9C466044FA21890004F0C2
:100D400065FA10BD0348DFE70022E7E70023F0E77C
:100D5000F8730110E20400003F020000E703000006
:100D600070B50500FFF79DFC041E0CD0002C0FD0C1
:100D7000002C12D0002C15D0002C02D1AB7A032B02
:100D800015D0200070BD2800FFF7AAFC0400EDE795
:100D90002800FFF7ABFC0400EAE72800FFF7D2FCCD
:100DA0000400E7E72800FFF741FD0400E4E7EB68F3
:100DB0009E682800FFF796FFB047E2E710B502F003
:100DC000E7F910BDF0B5C64600B582B002AF060027
:100DD000884619003B7E5C1CE4B2E51DED08ED0081
:100DE0006846401B854602AD2A70092068441A00F7
:100DF00004F0F6FE0023009323002A004146300051
:100E000007F0C2FD844204D10020BD4680BCB84634
:100E1000F0BD02204042F8E7F0B585B004000D00B7
:100E200011001E000AAB1F780F226A4411700123C3
:100E30000093290007F0A8FD01280CD1002300939E
:100E40003B0032002900200007F0AAFDB84205D17E
:100E5000002005B0F0BD02204042FAE701204042E8
:100E6000F7E7000010B5024804F0F0FF002010BDC5
:100E70000C74011070B5050014001100084805F04D
:100E800015F86B6F9C4664446C67332C01DC0020C2
:100E900070BD0023AB67034804F0D8FFF7E7C046F6
:100EA000207401103474011010B58021012004F069
:100EB00059FE041E04D0044804F0C8FF200010BDF1
:100EC000024804F0C3FFF9E788740110547401105C
:100ED00070B504004068002834D000210AF082F880
:100EE0000022002160680AF0B3F8002160680AF06F
:100EF0008BF8002160680AF079F8002160680AF038
:100F000091F860680AF0C8FB051E11D100236360E8
:100F10002068002807D000210AF064F820680AF051
:100F2000BBFB00232360084804F090FF280070BD3D
:100F30000100064804F0BAFF60680AF0DBF90D25ED
:100F40006D42E3E70025E3E7C0740110A0740110CF
:100F500010B5002904D1044804F078FF002010BD2A
:100F6000024804F0A3FFF9E7DC740110E4740110F7
:100F7000F8B506000D0014001F00002A10D015F06F
:100F8000DDF815F0EFF8218900290ED1200009F0D5
:100F90003BFA15F0DDF8B36F342B26D00020F8BDF6
:100FA00001214942FFF7D4FFF9E73B00B26F204827
:100FB00004F07CFFB06F82B234239B1A9BB23100E5
:100FC0003D3127893A1C9F4200D91A1C92B2091858
:100FD0000023200009F032FCB36F9C466044B067E8
:100FE0002189280009F0A2FFD0E7342231003D31E9
:100FF0003000093015F01EFF002809D10D4804F01B
:1010000025FFF36F0133F367092B0ADC0020C6E7E5
:10101000094804F01BFF012149423000FFF798FF07
:10102000BDE700213000FFF793FF0020B7E7C0467F
:10103000F0740110207501101075011070B50500D5
:101040000C000B000D3300D170BD044804F02EFFDE
:1010500021002800FFF77CFFF6E7C0463C75011031
:1010600070B506000C00151E1CD100291AD01248BC
:1010700004F0ECFE74603100200009F0B3FF0F496A
:10108000200009F0C1FF0E49200009F0AFFF062241
:101090000C49200009F0DCFF0B49200009F0C2FFD9
:1010A000280070BD094804F0D1FE29003000FFF788
:1010B0004FFF06204042F4E768750110750E0010DE
:1010C000710F0010650E00103D10001054750110D6
:1010D00070B506000D001B4B1868043011F0F6F8CF
:1010E00001002A00184804F0E1FE2E200AF030FA30
:1010F000041E13D0134B19680431AAB209F018FE6C
:10110000011E10D10121200009F0DEFE3060002810
:101110000FD0310009F066FF012070BD0B4804F0CC
:1011200095FE0020F9E72A00094804F0BFFE0020E0
:10113000F3E7084804F08AFE20000AF0ADFA002028
:10114000EBE7C046A4CE00207C750110A07501100D
:10115000B8750110E075011010B504000D4804F0D9
:1011600075FE2000FFF7B4FE0B492000FFF7B0FF2B
:10117000002808D0094804F069FE2068084909F0F1
:101180005FFF002010BD074804F060FE01204042D0
:10119000F8E7C046F475011092100000487601107F
:1011A000611000101C760110F0B583B004000D0032
:1011B000002343673421214804F078FE14F0BEFF79
:1011C00014F0D0FF210009310123342228000CF053
:1011D00091FD0190060028000DF042FA050007007D
:1011E00014F0B6FF002E04D1002D1CD1380003B03E
:1011F000F0BD0199124804F059FE33000B3308D0BA
:101200000E360BD0012149422000FFF7A1FE070056
:10121000ECE72000FFF7A0FF0700E7E7094804F02C
:1012200015FE0027E2E72900074804F03FFE0121F0
:1012300049422000FFF78CFE0700D7E768760110CF
:1012400088760110A4760110BC760110F0B5D64660
:101250004F464646C0B588B0081E1CD01F315A23E1
:10126000C25E5423C35A9A46047D457D867DC77D60
:10127000037E9C46437E98465823C05C06904346B6
:101280000593634604930397029601950094534691
:10129000044804F00BFE002008B0E0BCBA46B1469A
:1012A000A846F0BDD876011010B5040002F058F839
:1012B000002903DB20606160200010BD024B034A5F
:1012C0003F21034802F0E8FD24770110147B011050
:1012D0004077011078231A000240034205D0782A93
:1012E00001D0002002E0012000E001207047000052
:1012F000F0B5DE4657464E464546E0B585B005009A
:10130000D64804F0A3FDD64B19684A1C1A60D5488C
:1013100004F0CCFD02F024F8002900DA75E100D1D8
:1013200079E1FA229200002303F0AEFFCE4B186061
:1013300002F016F8002900DA72E100D176E1FA2213
:101340009200002303F0A0FF0100C84804F0AEFDA6
:10135000C74B98461900C748FFF762FC43465C68D4
:101360009B6899464346186804F08EFB06000F0000
:10137000484604F089FB02900391201C04F084FB92
:101380000090019132003B00BB4804F08FFDBB4848
:1013900004F05CFDBA4EBB4C320011212068FFF70F
:1013A00000F9B94F3A0011212068FFF72FF9B74B28
:1013B00099461A0011212068FFF70CF94B4618686E
:1013C00004F040FB04F060FBB14AB24B04F07DF93D
:1013D000C022D205B04B04F05EF902000B00AF480A
:1013E00004F064FD386804F02DFB04F04DFBAC4ABA
:1013F000AC4B04F06AF9C022D205A74B04F04BF9BC
:1014000002000B00A84804F051FDA84B9B46D86889
:1014100004F03AFB02000B00A54804F047FDA54B81
:101420009A46D86804F030FB02000B00A24804F092
:101430003DFD306804F006FB04F026FB00229F4BC4
:1014400004F043F9802292059D4B04F024F9020038
:101450000B009C4804F02AFD4B46586804F0F2FA51
:1014600004F012FB8A4A8B4B04F02FF9C022D205FC
:10147000894B04F010F902000B00934804F016FDAC
:10148000786804F0DFFA04F0FFFA854A854B04F02F
:101490001CF9C022D205804B04F0FDF802000B00BD
:1014A0008A4804F003FD5B46186904F0EDFA020077
:1014B0000B00874804F0FAFC5346186904F0E4FA7C
:1014C00002000B00834804F0F1FC706804F0BAFAE3
:1014D00004F0DAFA0022794B04F0F7F88022920542
:1014E000774B04F0D8F802000B007B4804F0DEFCD8
:1014F0007A4A11212068FFF70BF80100784804F0C0
:10150000D5FC9022D20011212068FFF701F80100DC
:10151000744804F0CBFC2068734A1121FEF7F8FFF1
:101520000100724804F0C2FC4C4804F08FFC704C7F
:101530004D4B1B6823604B46186804F083FA04F097
:10154000A3FA6C4A6C4B04F0C0F804F06FF96060C9
:101550004B46586804F076FA04F096FA654A664BF2
:1015600004F0B3F804F062F9A060386804F06AFA95
:1015700004F08AFA614A624B04F0A7F804F056F9C5
:10158000E060786804F05EFA04F07EFA5B4A5C4B37
:1015900004F09BF804F04AF92061306804F052FA34
:1015A00004F072FA574A584B04F08FF804F03EF9F1
:1015B0006061706804F046FA04F066FA514A524BD2
:1015C00004F083F804F032F9A0615346DB68E3616C
:1015D00053461B69236243461B68636243465B684C
:1015E000A36243469B68E362002323633421474898
:1015F00004F05CFC342221002800093004F0F0FAE9
:10160000434804F053FC00241CE0424B424A3F2173
:10161000424802F041FCFA21890003F0F7FD85E61B
:101620003C4B3D4A3F213D4802F036FCFA218900FF
:1016300003F0ECFD010088E62B19597A384804F0D4
:1016400035FC0134332CF7D90A2004F0CBFB05B06C
:10165000F0BCBB46B246A946A046F0BD807701105B
:1016600024210020A477011038210020B877011030
:10167000ECCE0020B01F0020CC77011008780110BC
:10168000E0CE0020BC0E00202821002040E10020F8
:10169000FA7E6ABC74B281405C2189412C780110C9
:1016A0005C8FC2F528546140387801105430002016
:1016B00044780110B8CE002050780110701FF3401C
:1016C00043BC734164780110847801109078011054
:1016D0009C780110A8780110BC780110FE0400006D
:1016E000DC780110FC7801109904000010790110D9
:1016F000EC2A00204B8F6B97E988E63ECE535AE8E0
:10170000D610C63E43A67E5EB7016F3F307901100A
:101710005079011024770110147B011040770110DB
:101720006C790110F0B59BB004F0CCFB11F00EF811
:10173000051E7AD110F0D8FEC74CC849206806F0C3
:1017400031FFC749C74B186807F0F2F8236858689B
:1017500002242040191DC02292010A4314601C6813
:101760000F226240CF2422408024640123431A6068
:101770008026B601314308600121122000F0CAF929
:101780000121132000F0C6F90121102000F0C2F958
:101790000321042000F0BEF90321052000F0BAF96E
:1017A00000220121042000F0CDF9002201210520B2
:1017B00000F0C8F90E2000F071FA0A2000F06EFA6D
:1017C0000B2000F06BFA0C2000F068FA0D2000F0FE
:1017D00065FA092000F062FA112000F05FFAD023C8
:1017E0001B068021C9015962802292005A62802022
:1017F000C00098628020000198629C629E628020F6
:1018000080025862586199615A61FA20C00001F063
:10181000BFFC9549954804F049FB954804F016FB38
:10182000944804F013FB2C003EE0934804F03EFB88
:10183000012040421BB0F0BD2100904804F036FB6F
:1018400036E0884B1F6801F08BFD02000B1E15DB94
:101850008B48002112184B41002B15DB002B17DBA6
:101860000292039300230093013307AA310038004A
:1018700007F0A2F8002811DB824820E0824B834A5F
:101880003F21834802F008FB01225242814BE5E7E9
:101890007D4B7E4A3F217E4802F0FEFA7E480EE0F4
:1018A0007E4804F003FB01347F2C14DC2307C3D0F3
:1018B000E6B23000FFF70EFD0028C2D0764804F0F3
:1018C000F5FAE217120FA1180F230B409B1A0F2BEA
:1018D000E6D07348E5E7734804F0B8FA724B1E6827
:1018E0005F6804A8FFF7E0FC049B059CF61AA7417B
:1018F000002F23DBFA20C00001F04AFC022D4EDC51
:101900006A4C220029006A4804F0D0FA694B6A4AFE
:101910006A49200010F0B2FE00283CD0674A6349B3
:10192000674804F0C3FA022D31D0664804F08EFAFD
:10193000FA20800001F02CFC0135DFE74C22002169
:1019400007A804F047F9604B002207A95F4813F08D
:10195000AFFF011E03D15E4804F078FACAE75D4884
:1019600004F0A4FA04A8FFF79FFC5B4A0023049844
:10197000059912184B41002B07DB002BBADA424BBA
:10198000424A3F21424802F087FA424BF5E753486A
:1019900004F05CFA4CE74549514804F087FA092005
:1019A000FEF7D8FCFA24A400200001F0F1FB11217D
:1019B000294B1868FEF722FD200001F0E9FB494C95
:1019C000494B7622274909682000FFF71BF92000C0
:1019D000FFF7C6F9FFF768FA041E00D128E743496C
:1019E000FFF776FB002810D0414804F02FFA414958
:1019F000206809F025FB404801F0CAFB3F4A11214D
:101A0000154B1868FEF784FD11E03D4804F01EFAFE
:101A10000EE72000FFF76CFC3A4804F017FA616803
:101A20002000FFF7C1FBC820400001F0B1FB636854
:101A3000002BEED1344804F009FA344B1868043016
:101A400010F044FC0100294A314804F02FFAFA2032
:101A5000C00001F09DFBEAE7BC0E0020404B4C00AB
:101A6000A0860100B80E002000C01F10947901105C
:101A7000C0790110D079011080790110047A011029
:101A8000102700007879011024770110147B0110D1
:101A900040770110FFFFFF7F7479011084760110F9
:101AA0007C7901100C7A0110E0830110487A011052
:101AB000507A011030750000040040006C7A01106B
:101AC000787A0110AC7A01104D1200104C210020E0
:101AD000147A01102C7A0110809698009C7A0110DB
:101AE000B87A0110B01F002000740110921000009D
:101AF0004876011061100010B80B0000FE040000D1
:101B00001C760110CC7A0110DC7A0110A4CE0020E2
:101B1000007B011010B58300084A944663441C689A
:101B200040226240C02414408022520113431C60B2
:101B3000C000034B9C466044416010BD04C001409E
:101B40000040014080000B4B9C46604400290DD0B2
:101B50000823002A0CD004221343026853400C22AD
:101B60001340802252011043036070470023F0E7C6
:101B70000022F1E704C00140002909D08000094B90
:101B80009C46604480239B011843022303607047F6
:101B90008000044B9C466044C0239B0118430223F1
:101BA0000360F4E704C0014070B5D0231B061B6836
:101BB0009D00094C2C59204207D19B002043064C24
:101BC00018510D2000F0F2F970BD044B044ACC21ED
:101BD000044802F061F9C046B4DE00202C7B0110FD
:101BE000E07B0110587B011010B50400D0231B06C8
:101BF0001B689B000A4A9B5818420BD00D2000F02E
:101C0000EFFAD0231B061B6805499B005A58A243D4
:101C10005A5010BD034B044AD621044802F03CF947
:101C2000B4DE0020907B0110BC7B0110587B0110BA
:101C3000072303409B00C00899403C308000014BC3
:101C4000C150704700400140F8B507000C00160075
:101C50001D00FFF7EDFFFB089B00ED180720384043
:101C600080008440002E04D080239B011D432C6003
:101C7000F8BDC0239B011D432C60F9E710B5D023AC
:101C80001B061B68002B03D0024BFFF7DDFF10BDC6
:101C9000014BFAE7304101400041014010B50123FA
:101CA0008340D0221206936293610521FFF732FF31
:101CB00010BD0000034B1B6802201840431E9841D2
:101CC000C0B2704700C00640EFF3108072B6034BFD
:101CD0001B68002BFBD0BFF35F8F70472C0100D037
:101CE000BFF35F8F024B00221A6080F310887047A9
:101CF0002C0100D0F8B506000C001500FFF7E4FF3A
:101D0000E308F718F15C07222240012393400B42BD
:101D100005D1DBB20B433B70FFF7E2FFF8BD2100BA
:101D2000280002F053F9F0B583B0060001911400C9
:101D30001F00FFF7C9FF00E00134BC420CD8E308E4
:101D4000F518F35C0721214001228A401A42F3D1A1
:101D5000D2B21A432A7001E001246442FFF7C0FFA7
:101D6000002C02DB200003B0F0BD019B002BF9D05A
:101D7000089802F02BF9000070B505000C00FFF781
:101D8000A3FFE308EE18EA5C07210C400123A340FF
:101D9000134204D09A433270FFF7A2FF70BD034B89
:101DA000034A2C31034802F077F8C046147C011036
:101DB000707C0110347C0110002307E0054A9A185A
:101DC0009200BFF35F8F0021116001331F2BF5D903
:101DD0007047C04640000034054A1078431CDBB20F
:101DE0001370172B02D9130010221A707047C046C7
:101DF000C00E002000B583B00100044B00931F23E8
:101E000018220348FFF78FFF03B000BD807C01104C
:101E1000F8200020074B9B68103080001950BFF35A
:101E20005F8FBFF35F8F044B0021196082F310882E
:101E30007047C04600ED00E0240100D01F23181AAF
:101E40007047000010B5091A081F0A4B9C466144F0
:101E5000094A914208D8C30706D440104005400DF6
:101E6000064B184380B210BD054B064AA321064815
:101E700002F012F8FC070000FE0F000000E0FFFF78
:101E80009C7C0110047F0110CC7C011010B5091A54
:101E900004394C08090B08D14905490D064A11437C
:101EA0000180064B2343438010BD054B054AAB21FF
:101EB000054801F0F1FFC04600F0FFFF00F8FFFF0A
:101EC000047D0110D87E0110CC7C011001238340D9
:101ED000034A10681840431E9841C0B27047C0467C
:101EE00000E100E0002904D0034B1860034B1860A8
:101EF0007047034B1860FBE780E200E000E100E080
:101F000080E100E010B5012383401800FFF7EAFFED
:101F100010BD000001238340014A13607047C04692
:101F200000E200E0024B9B6810308000C058704710
:101F300000ED00E010B5FFF7F5FF002805D0054BD8
:101F4000C01A2F2803D8012010BD0020FCE7002074
:101F5000FAE7C046C40E002070B504000D00EFF390
:101F6000108672B60C4B1B68002BFBD0BFF35F8F43
:101F70002000FFF7D7FF094B984201D0A84205D1B6
:101F8000320029002000FFF745FF70BD044B054AD1
:101F90008621054801F080FF240100D0CD0100100A
:101FA000147D0110387F0110CC7C0110F0B5DE46A5
:101FB00057464E464546E0B589B081460191150029
:101FC000EFF3108A72B6744B1B68002BFBD0BFF383
:101FD0005F8F724B0027DF57002F40DB7C00E41936
:101FE000A4006F4824180622A2566C4B1A706D4B41
:101FF0009A684B4610339B00D35898461E001B1A14
:102000002F2B38D9684B98452FD105AE674B3380BD
:102010007B009B46D8198000614B984640440230B3
:102020006349FFF70FFF7080624BB380FF23B371EA
:10203000F571019B07935F44BF0047440ECE0EC766
:1020400001231C43A046524641464846FFF7E2FEA4
:1020500009B0F0BCBB46B246A946A046F0BD564BFF
:10206000564AD721564801F017FF564B534ADE21F6
:10207000534801F011FFC04340440C2103F0C6F85F
:10208000002912D101239E43B34633000026DA799A
:10209000AA4211D90621595600290CDB4A005218D0
:1020A00092001E003E4B9B18F1E7474B434AEA2142
:1020B000434801F0F1FE1E00002E3AD005AB434A22
:1020C0001A80813A5A800623F3560293002B17DABE
:1020D0003F4805AB9B469880029A9A71DD71019A40
:1020E0000792301D2100FFF7ADFEB080B7717B0075
:1020F000DB199B002A4FFF185B4607CB07C7A2E7F7
:102100007800C0198000264BC0180430321DB388F7
:10211000D90A1C2907D15B0559150231490051180C
:10212000FFF790FED5E72B4B2B4AB121244801F055
:10213000B3FE05AE1D4B33807B000293D81980009F
:10214000174A9046020042440392901C1849FFF738
:1021500079FE7080039A101D5946FFF773FEB08018
:102160001E4B5A464146521A524153431B0DB371FE
:10217000F571019A0792029B9C466744BF00474451
:102180000ECE0EC7114B5A461380813B538001235C
:102190001C43A04657E7C046240100D06DE1002053
:1021A000C40E002000ED00E0CD01001000A1FFFFF3
:1021B000F40E002001BDFFFF4C7D0110207F0110B7
:1021C000CC7C0110747D01109C7D01100148000041
:1021D00001BD0000107E0110107F0110AAAA0000AE
:1021E000F0B5CE46474680B583B006000D00EFF34C
:1021F000108872B6564B1B68002BFBD0BFF35F8F65
:10220000544B9A6834001034A300D758524B9F4265
:1022100007D0AF4200D198E00197504BFB1A2F2B0B
:1022200009D9424639003000FFF7F4FD03B0C0BCC5
:10223000B946B046F0BD3000FFF748FE81460021A8
:102240003000FFF75FFEBFF35F8FEFF305810029DA
:1022500001D08C4211D10123019C9C430022A36830
:10226000AB4212D00622A256002A0DDB53009B1867
:102270009B002200394CE418F1E73621384B394AEB
:10228000FF31394801F008FE2200AB4256D1062545
:102290006557002D38DB6B005B199A002F4B9B189C
:1022A0009A68A260DA79E27106229A56A2719B7945
:1022B0005BB2002B0FDA2D48A0806B005B199B00EE
:1022C000264AD3182A4A1178997115704946300068
:1022D000FFF718FEA5E7201D6B005B199B001F4A46
:1022E0009B181A1D9B88D90A1C2907D15B055B1511
:1022F000023359005118FFF7A5FDDDE71D4B1E4ABB
:10230000B121194801F0C8FD002912D1002A0ED0D0
:10231000FF239371194B9380154A1378A371184BBF
:102320000E49641A644163431B0D1370CEE70A4FD4
:10233000F2E7201D1349FFF7A9FDC7E76A21124BF9
:10234000084AFF31084801F0A7FD034F69E7C0467E
:10235000240100D000ED00E0CD010010C40E0020EB
:10236000287E0110F07E0110CC7C011001BD000020
:102370006DE10020107E0110107F011001BDFFFFF4
:10238000AAAA0000FE0E00205C7E011010B50323F7
:1023900004009C43064A9446644422681840C000E6
:1023A000FC3383409A43130081400B43236010BDEC
:1023B00000E400E070B5012101432E4BCB1A2F2B16
:1023C00028D8EFF30583002B2BD0EFF3108C72B6D7
:1023D000294A1268002AFBD0BFF35F8F274A040006
:1023E000244D641B64416243120D54B2244A926826
:1023F0009B00D2588A421BD00022032A32D85300B5
:102400009B189B001B49CB189B795BB2A3421FD042
:102410000132F2E7C7211B4B1B4A49001B4801F060
:102420003BFD92211A4B184AFF31184801F034FD48
:10243000134A92681749D150174B1A7882711C7051
:10244000BFF35F8F0C4B00221A608CF3108870BDB5
:102450000D005300991889006918FF268E710F4AE4
:102460008A80E9E7D1210E4B074A4900074801F06D
:1024700013FDC046C40E0020240100D0AAAA00000B
:1024800000ED00E0647E0110BC7E0110CC7C0110E8
:102490008C7E0110CD0100106DE1002001BDFFFF19
:1024A000987E01100022044B02E0044902C301326D
:1024B000072AFAD97047C04600E400E08080808097
:1024C00010B5FFF7BBFC01000148FFF755FC10BD3C
:1024D00079E1002000B583B00100064B009305238D
:1024E00000220548FFF71FFC002801DB1F23181AF4
:1024F00003B000BDA07E011079E1002070B504009A
:102500000E001500FFF768FC0100200000F006F83F
:10251000A680E580BFF35F8F70BD0000024B9C4634
:1025200061448900016070474000003410B5040028
:10253000FFF752FC01002000FFF7F0FFFF2323719B
:10254000BFF35F8F10BD10B50400FFF745FC01001D
:102550002000FFF7E3FFFF23237100236371BFF324
:102560005F8F10BD034B9C46614489000160BFF33F
:102570005F8F70474000003410B504000120FFF762
:1025800039FC01002000FFF7EDFF10BD70B505001C
:102590000C00080000F0C0FF0949200000F000FF17
:1025A000FFF71AFC074B9C466044800068602C755E
:1025B000D0231B061B786B75A400034BE55070BD40
:1025C000D128001040000034D0CE00200A4B1A68F9
:1025D000EFF3108172B61368002BFCD0BFF35F8F4E
:1025E000054B1B68BFF35F8F00221A6081F31088D0
:1025F00040BF002000217047D8E0002010B500291E
:1026000022D003681B7B99421ED8174B9C4661441D
:10261000090183689C4661440C684968002A19D006
:1026200003681B7B9A4215D883680F48844662442E
:1026300012019A1810685368020001208B4201D8D9
:102640000ED00020C0B210BD084B094A3C210948F9
:1026500001F022FC054B064A3C21064801F01CFC17
:10266000A242EFD8EDE7C046FFFFFF0FAC8001109C
:10267000308301107C80011010B500291ED0037B2F
:1026800099421BD84B005B18033B0468A446634483
:10269000002919D0002A1DD0914221D0002A25D02E
:1026A000047BA24222D80468500080180338201806
:1026B0008170197800291FD11A7010BD104B114A72
:1026C0006821114801F0E8FB104B114A6F310E48A8
:1026D00001F0E2FB0F4B0E4A70210B4801F0DCFBCE
:1026E0000D4B0B4A7121084801F0D6FB044B054AFB
:1026F0006821054801F0D0FB41701A70DDE7C04643
:10270000D0800110B0830110EC80011030810110E5
:102710008C8301103C8101104881011070B50600C6
:102720000D001400002914D0002A14D080687368AA
:102730009847002806D0220029003000FFF79CFFB0
:10274000280007E02A0021003000FFF795FF200055
:1027500000E0100070BD0800FCE70000F0B583B099
:102760000500009201930AAB1C780BAB1F78002C7C
:1027700026D003685A7B944207D10123002B19D13C
:10278000002C3BD1200003B0F0BD002C0CD01A7BF4
:10279000944209D81A6863001B19033BD3189B782D
:1027A000002BEBD00123E9E73E4B3F4A68213F482D
:1027B00001F072FB3E4B3F4A67213F4801F06CFB42
:1027C00003689C7B002CDBD012D01A7B94420FD87C
:1027D00062001219033A19688C4662445178997361
:1027E000002900D1D9730023937053701370C7E789
:1027F0002C4B2D4A68212D4801F04EFB002C3AD07D
:102800002B681B7B9C4236D82C4BE3181B01AA6813
:1028100094466344009A1A60019A5A60089A9A6032
:10282000099ADA602E68002C2BD030D0337B9C4282
:102830002DD863001B19033B326894466344002281
:102840009A705A701A70717B22003000FFF766FF91
:102850007073844200D095E7287D009A019B00F0B8
:10286000E7FD061E01D0002F17D00C9B002B00D1D6
:1028700088E71E7086E7124B124A3C210E4801F091
:102880000BFB114B114AA521084801F005FB054B34
:10289000054A6821054801F0FFFA2868210001F087
:1028A0003DF8E2E7D0800110B0830110EC80011008
:1028B00060810110BC8301107C800110FFFFFF0FBD
:1028C000AC8001103083011078800110A0830110CA
:1028D000F0B5DE4657464E464546E0B58BB009900A
:1028E000002308938200B54BD658370052E0B44B12
:1028F000B44A3F21B44801F0CFFAB44BB44A3C216A
:10290000B44801F0C9FA002901D1002869D1002199
:10291000404600F0F9FFA04219D12A686B68069280
:102920000793AB689846EB689A464346002B14D051
:10293000002C18D03B681B7B9C4214D8631EFA689D
:10294000D35C08931B0218433861002015E0A24BAA
:10295000A24A8E219F4801F09FFAA14B9F4A9221E3
:102960009C4801F099FA994B9E4A4121994801F0FF
:1029700093FA00239A46984600207B68BFF35F8F46
:1029800000221A6086F310884346002B32D10028BB
:1029900000D10CE100F0E4FC02000B1EA7DB0020DC
:1029A0000021069007917868EFF3108672B60168EF
:1029B0000029FCD0BFF35F8F396888464C7B002C20
:1029C000D7D09AD0097B8C4297D8874965182D01BA
:1029D000B9688C46654428686968801A994100295D
:1029E00091DD2A686B68099800F022FD00239A4661
:1029F0009846C2E7089B1B0223439946514618009C
:102A0000C04705000E007A68EFF3108B72B61368AA
:102A100059424B41D9B2002BF9D1BFF35F8F002E41
:102A20001EDB002E46DD3B69002B47D04B456DD1A8
:102A300000F096FC02000B1E6EDB52197341002B56
:102A400070DB002B72DB00210491013103910294B1
:102A500051460191414600913800FFF77FFE4CE05E
:102A60003B69002BDDD04B4514D1069A079B521BC6
:102A7000B341002B14DB002B16DB00210491013144
:102A80000391029451460191414600913800FFF7AD
:102A900065FE32E0554B514AA1214E4801F0FCF948
:102AA00001225242524BE6E7454B464A3F214648F7
:102AB00001F0F2F9002E01D1002DB4D13B68002CB9
:102AC00050D05A7B944237D1012100294AD1DA7B78
:102AD000002A4DD19A7B002A03D1DA7B002A5AD1F1
:102AE0009C73DC73002C5CD03B681B7B9C4258D8E9
:102AF000FA68013C135D0133135500233B617A688A
:102B0000BFF35F8F13608BF3108843E7374B334A73
:102B1000A421304801F0C0F9294B2A4A3F212A4814
:102B200001F0BAF901225242314B8AE7244B254A7F
:102B30003F21254801F0B0F9002C0DD01A7B9442BA
:102B40000AD862001219033A1868844662449278DF
:102B5000002ABAD00121B8E7264B274A6821274826
:102B600001F09AF9264B274AF621244801F094F9FE
:102B7000002A0AD0197B8A4207D851008A18033AE2
:102B800019688C4662445470A4E71A4B1A4A6821AB
:102B90001A4801F081F91C4B1A4AFB21174801F031
:102BA0007BF90A4B0F4A41210A4801F075F90BB035
:102BB000F0BCBB46B246A946A046F0BDD0CE002030
:102BC00024770110FC82011040770110AC800110C5
:102BD000308301107C800110888101101483011062
:102BE000A081011068830110FFFFFF0FAC8101106D
:102BF000FFFFFF7FD0800110B0830110EC80011037
:102C0000E88101107C8301100C82011010B50C4B7F
:102C10005B68002B04D00A210A48FFF77FFC10BD37
:102C2000074C2300084A1021206800F05FFD0320B4
:102C300000F072FB03212000FFF7A8FCEBE7C04681
:102C40000C0F0020D8E00020FD25001010B5064B29
:102C50005B68002B01D0044810BD044B044A5E2180
:102C6000044801F019F9C0460C0F00202082011021
:102C7000508301107C80011070B50500182002F00F
:102C800053FF040002000C49280000F036FD2060CC
:102C90001021280002F066FFA0600121280002F048
:102CA00061FFE060012000F04BFB01002000FFF716
:102CB0006DFC200070BDC046FD25001010B504005D
:102CC000164B98421DD0037D9900154A8A588242BE
:102CD0001DD19B00124A00219950006800F023FD8D
:102CE000207D002100F05CFB207D00F021FBE068EE
:102CF00002F058FFA06802F055FF200002F052FFDA
:102D000010BD084B084AD321084801F0C5F8084B0C
:102D1000054AD721054801F0BFF8C0460C0F002036
:102D2000D0CE00205C7E01103C8301107C8001101D
:102D300044820110F0B5DE4657464E464546E0B5A2
:102D40008BB0804616001F00149B9A46159B99462F
:102D500016AB1B789B461F2302AA944663440022AD
:102D60001A702BE0002809D042461268127B90426C
:102D700004D8421E4146C9688A5C41E0404B414A42
:102D80004121414801F088F807984CE0361BAF41DB
:102D9000002F07DB002F11DA3C4B3D4A3F213D4815
:102DA00001F07AF8012676423B4FF3E7374B384A79
:102DB0003F21384801F070F8002F4FDB43465A6836
:102DC000EFF3108472B6136859424B41D9B20791A0
:102DD000002BF8D1BFF35F8F1F3302AA94466344E0
:102DE00004930023039302934B46019353460093AD
:102DF00032003B004046FFF7B1FC031EB2D1020097
:102E000041464968BFF35F8F00250D6084F3108849
:102E1000002B29D01F2302A98C4663441B78002B6A
:102E2000B2D112021043002B20D05B46002B1DD0E4
:102E30004946D04704000D0003000B431DD0002974
:102E4000A4DB00F08DFA06000F1EAFDB36196F41D0
:102E5000002FB1DA012676420F4FADE70B4B0C4A3B
:102E60003F210C4801F018F8012040420BB0F0BCA3
:102E7000BB46B246A946A046F0BD0798F6E7C04655
:102E8000AC800110688301107C8001102477011050
:102E9000FC82011040770110FFFFFF7FF0B589B081
:102EA00005001F216944002008706868EFF310874F
:102EB00072B601680029FCD0BFF35F8F1F216944FF
:102EC000049101210391002102910F9901910E9922
:102ED00000912800FFF742FC0400031E12D10600F7
:102EE0006A68BFF35F8F0021116087F31088002BA1
:102EF0001CD01F236B441B78002B13D130022043BE
:102F000009B0F0BD002807D02A68127B904203D890
:102F1000421EE9688E5CE3E7064B074A41210748F9
:102F200000F0BAFF287D00F017FBE7E701204042E0
:102F3000E6E7C046AC800110688301107C80011078
:102F4000F8B50400002900D162E04268EFF3108573
:102F500072B6136858424341D8B2002BF9D1BFF37F
:102F60005F8FCBB22268567BB3421BD10120002871
:102F700048D0206988422BD0090AC9B2002B2ED034
:102F80002068007B83422AD8581EE668305C88425D
:102F90002BD000206368BFF35F8F00221A6085F397
:102FA0001088F8BD002B0DD0167BB3420AD85E0006
:102FB000F618033E1768BC466644B678002ED6D095
:102FC0000120D4E7134B144A6821144800F064FF31
:102FD0002C21134B134AFF31134800F05DFF134BB4
:102FE000134A4121104800F057FF1900100000F06B
:102FF00095FC0028CED199210E4B0A4A49000A4877
:1030000000F04AFF23698B42C4D100232361C1E74A
:103010000020C6E7D0800110B0830110EC800110C1
:103020006C820110E48201107C800110AC800110E0
:103030006883011090820110407D7047F0B587B021
:1030400006000F00EFF30583002B1FD10624644216
:10305000E517A4197D418D4202D803D1844201D9DC
:1030600000240025002D14DB0494059500F078F968
:1030700002000B1E13DBA41A9D41002D17DC14D097
:103080003000390000F078F907B0F0BD234800F0B7
:103090009DFF234B234A3F21234800F0FDFE204B98
:1030A000204A3F21204800F0F7FE002CE8D0FFF72F
:1030B000CDFD0023029301931C4B0093049A059BC2
:1030C000FFF738FE002818DADAE7002300E00023D3
:1030D000002BD5D1164B1A68EFF3108172B6136826
:1030E000002BFCD0BFF35F8F114B1B68BFF35F8FCA
:1030F00000221A6081F3108820BF0499059A0D4BB5
:103100005B6A9A42E3D80B48806A884203D29A42AB
:10311000DBD00123DCE70123DAE7C046948201100B
:1031200024770110FC82011040770110CD2500109A
:10313000D8E000200040054070B504000D0000F00C
:103140000FF902000B1E0ADB2000290080185941EC
:1031500000290ADB00290CDBFFF770FF70BD084B6C
:10316000084A3F21084800F097FE012040420749E5
:10317000F0E7034B034A3F21034800F08DFEC046B1
:1031800024770110FC82011040770110FFFFFF7FC0
:1031900010B5FA2292000023002102F0D5FBFFF7C0
:1031A000CBFF10BD70B584B005000C00EFF30583B4
:1031B000002B1ED1FFF74AFD002302930193224BFF
:1031C00000932A002300FFF7B5FD061E23DD20BF74
:1031D000FFF73CFD3100FFF7B3FE1C4B5B6A9C42DE
:1031E0002DD81A4A926AAA422CD29C4225D001209C
:1031F00026E0164B5B6A994209D8144A926A8242C9
:1032000007D2994201D001201AE0002018E00020E6
:1032100016E0012014E00D4B5B6A9C4209D80B4A72
:10322000926AAA4207D29C4201D0012008E0002005
:1032300006E0002004E0012002E0002000E0002081
:1032400004B070BD0120FBE7CD2500100040054013
:10325000026843680849496A8B4209D80648806A6F
:10326000904207D28B4201D0012002E0002000E012
:10327000002070470120FCE70040054002604360E9
:10328000004870475132001070B5EFF305801038D8
:10329000EFF3108C72B61A4B1B68002BFBD0BFF3F8
:1032A0005F8F01221300834016494B6316490B6060
:1032B000164909780C00C440224214D0114A546ABD
:1032C0008200134D5259944206D38200114C125978
:1032D00099430E4B197007E00A4A031D9B00995849
:1032E0009950002200E00022BFF35F8F044B0021C1
:1032F00019608CF31088002A00D0904770BDC0463A
:10330000280100D0004005403C70054078E10020D5
:10331000F4E00020941E002010B50100024A03488A
:10332000FEF7E8FC10BDC046E883011067E100200D
:1033300010B501000148FEF71FFD10BD67E1002038
:1033400000B583B00100044B00930323002203481F
:10335000FEF7E9FC03B000BD0C84011067E100201A
:10336000044B5B6A034A906A1900536A9942F9D187
:103370007047C04600400540084B5B6A01E0074BC0
:103380005B6A8B42FBD301E0044B5B6A8B4203D147
:10339000024B9B6A8342F7D37047C046004005400A
:1033A00070B504000D00EFF3108672B61B4B1B685E
:1033B000002BFBD0BFF35F8F002D1CD02000FEF749
:1033C000B1FD174B83420BD019002000FEF7C4FD5E
:1033D00001212000FEF796FD0123A340114A13604E
:1033E000A400114BE550BFF35F8F0C4B00221A6015
:1033F00086F3108870BDA2000B4B0021D150012232
:10340000A2400A490B7893430B7005492000FEF750
:10341000E7FE00212000FEF775FDE4E7280100D05B
:103420008932001038600540941E002078E10020A9
:10343000F0B5DE4600B584B00400150001921E0010
:103440000293FFF78DFF03958E4202D84ED185423D
:103450004CD9EFF3108B72B6274B1B68002BFBD0B7
:10346000BFF35F8F254A17780125A540EBB23B4398
:103470001370234B5D63221D92000199D150A2006D
:103480002049029850501B6A2B4212D11C4B1B6CD6
:103490002B4208D00020BFF35F8F174B00221A6029
:1034A0008BF3108823E0184B184AC521184800F008
:1034B000F3FCFFF755FF8E4214D802D1039B8342E1
:1034C00010D80E4B1B78BB420ED00D4B1D625D63B6
:1034D0001F2004400123A3400E4A1360074B1F70B6
:1034E0001E38D8E70020D6E70120D4E7012004B039
:1034F00080BCBB46F0BDC046280100D078E100206A
:1035000000400540F4E00020208401108084011078
:103510004484011080E200E0EFF3108C72B60B4B94
:103520001B68002BFBD0BFF35F8F01238340084A49
:10353000136208490A789A430A70BFF35F8F034BFE
:1035400000221A608CF310887047C046280100D012
:103550000040054078E10020EFF3108C72B60B4B71
:103560001B68002BFBD0BFF35F8F01238340DAB2CF
:103570000749087802430A70BFF35F8F034A0021AE
:1035800011608CF31088034A13607047280100D043
:1035900078E100203C60054010B500291ED0037B77
:1035A00099421BD84B005B18033B0468A446634454
:1035B000002919D0002A1DD0914221D0002A25D0FF
:1035C000047BA24222D804685000801803382018D7
:1035D0008170197800291FD11A7010BD104B114A43
:1035E0006821114800F058FC104B114A6F310E4809
:1035F00000F052FC0F4B0E4A70210B4800F04CFCBF
:103600000D4B0B4A7121084800F046FC044B054A5B
:103610006821054800F040FC41701A70DDE7C046A3
:10362000D080011080850110EC80011030810110E4
:103630006C8501103C8101104881011070B50600B5
:103640000D001400002914D0002A14D0806873687B
:103650009847002806D0220029003000FFF79CFF81
:10366000280007E02A0021003000FFF795FF200026
:1036700000E0100070BD0800FCE7000010B500235A
:10368000437301338373037BC3730123027B9A4229
:1036900014D9002B0CD0027B934209D85A00D218BF
:1036A000033A01688C4662440133DBB25370EDE7A4
:1036B0000B4B0C4A68210C4800F0EEFB002A09D0A5
:1036C000924207D8016853009A18033A8A180023D7
:1036D000537010BD024B034A6821034800F0DCFB25
:1036E000D080011080850110EC80011010B50173AD
:1036F00042608360FFF7C2FF10BDF8B505000E0001
:1037000017001021012002F02DFA040003212800E7
:1037100002F028FA20603B00320029002000FFF769
:10372000E5FF2000F8BD10B50400006802F03AFA89
:10373000200002F037FA10BD70B50400081E00D159
:1037400070BD002934D0237B994231D84B005B18DF
:10375000033B2268944663445A78002AF0D02DD067
:10376000237B9A422AD853009B18033B21688C463E
:1037700063445D7800215970002825D0237B98424E
:1037800022D843001B18033B21688C466344002168
:10379000597001002000FFF751FF060029002000AA
:1037A000FFF7CAFF020031002000FFF747FFC7E71D
:1037B000084B094A6821094800F06EFB054B064A90
:1037C0006821064800F068FB024B034A6821034861
:1037D00000F062FBD080011080850110EC800110A8
:1037E00070B505000C00160000292FD034D0037BE3
:1037F000994231D84B005B18033B026894466344FE
:103800005A78002A2ED19A78002A31D11978FFF7F8
:1038100093FF0300002E0AD0EA7B002A2ED1AA7B58
:10382000002A03D1EA7B002A3BD1AC73EC73002B56
:103830003DD1002C4FD02B7B9C424CD82B68610093
:103840000C19033C1C190023637070BD254B264ADC
:103850003821264800F020FB254B264A68212648BF
:1038600000F01AFB254B204A3A21204800F014FBB7
:10387000234B1D4A3B211D4800F00EFB002A0AD0B5
:10388000297B8A4207D851008A18033A29688C4656
:1038900062445470C3E7164B164A6821164800F07C
:1038A000FBFA184B104A4221104800F0F5FA002BA1
:1038B0000BD02A7B934208D843001B18033B2A688D
:1038C0009446634400229A70B3E7094B094A682181
:1038D000094800F0E1FA064B064A6821064800F064
:1038E000DBFAC0469C84011058850110A4840110A5
:1038F000D080011080850110EC800110D48401106B
:10390000FC8401100C82011070B504000A00457B94
:103910002900FFF765FF6073280070BD70B50400D3
:10392000002967D0437B8B420ED0002911D0037B46
:1039300099420ED84B005B18033B0268D01883787D
:10394000002B0CD1002056E00121FFF7DDFF012004
:1039500051E0294B294A6821294800F09DFA002BA3
:1039600020D0227B93421DD85A00D318033B2268F3
:10397000D2182568EB5C8B421AD0002B1BD0227B1F
:10398000934218D85A00D318033B2268D2185378B0
:103990008B4216D0002BF0D11A4B1B4A6B211B48CF
:1039A00000F07AFA144B154A6821154800F074FAB1
:1039B0004378137007E0104B104A6821104800F05C
:1039C0006BFA437853700023837043700122200008
:1039D000FFF706FF0200617B814205D02000FFF760
:1039E0002DFE6073012006E0094B074A712107484C
:1039F00000F052FA002070BDD080011080850110C7
:103A0000EC800110987E011040850110A484011003
:103A100020850110F8B5DE4657464E464546E0B5CE
:103A200005000F0092460A9A934250D31A0E91460F
:103A30001E020A9A00233000494601F025FC804608
:103A40006C006419A400304B9C4664446368834254
:103A500000D260602B1FDBB29B46012B3DD9C023F7
:103A60009B012343802212011A60AB00274A995818
:103A7000002907D0506901F0C9FB431C5800C01849
:103A80000338FDD253465A0123685A40E0231A40B6
:103A900080235B0123431A605A46012A28D98023D8
:103AA0009B012343802212011A6043466360424611
:103AB00000233000494601F0E7FBAD00134B58519D
:103AC0000120F0BCBB46B246A946A046F8BD104B4B
:103AD000104A3321104800F0DFF9012FBFD1C02375
:103AE0009B01234303221A60A368DB07FCD5C9E7C7
:103AF0002168794003220A401A60A2680123BB4072
:103B00001342FAD0CBE7C04600800040FC200020E2
:103B10008C850110DC850110A085011030B583B0C3
:103B20000C2000F011F9FEF7C5F800280DD0002395
:103B300004E099002D4A2E4888500133092BF8D90A
:103B40002A4B2C4A5A6203B030BD2B4B00229A6795
:103B500000F06CF9294B01221A60274B5B6C012B9A
:103B6000FBD1274B03221A60234B9B6B012BFBD10C
:103B7000013300930433234A0121234800F054F811
:103B800005230093214A0121214800F04DF8214BE3
:103B90000093002202210420FFF73CFF1E4D0095F8
:103BA0002B00002201210520FFF734FF104C009468
:103BB0002300002200210720FFF72CFF00942300A0
:103BC000002200210820FFF725FF0A4B0093230065
:103BD000002200210920FFF71DFF00952B00002285
:103BE00000210620FFF716FFADE7C046FC200020AD
:103BF000006CDC021BB70000008000403CB00040BD
:103C000030B00040002F685900800240008C864789
:103C100000C00240001BB700405973078000014BF1
:103C2000C0587047FC200020F0B5C64600B504001F
:103C30000E0017001D00374801F0E8FA8046364BA9
:103C4000FA18364B9A4239D80100380001F0DEFAF2
:103C50000200103A98235B009A4235D86B1E062B5F
:103C600038D8069B013B062B34D83F09474537D34C
:103C70002D04069B1A0315432368002B36DB284BC3
:103C80009C4244D080225201264B1A60264B1A6077
:103C9000264B9B6811009943FAD12660A060231D32
:103CA000C02292011A43212313602368002BFCDAFF
:103CB000E5600823136080BCB846F0BD1C4B1D4A6C
:103CC00011211D4800F0E8F81C4B1A4A19211A4826
:103CD00000F0E2F81A4B174A1C21174800F0DCF8F4
:103CE000184B144A2321144800F0D6F822683F23C9
:103CF0001340B342C3D1A3681B051B0D8342BED141
:103D0000E368EE22D2021340AB42B8D1D3E780225F
:103D10009201B9E7001BB70080E84BD380F8A932C5
:103D200000C0024000E0004000F0004000C0004041
:103D3000EC850110088701104C8601108486011063
:103D4000A0860110EC86011080239B000343014AEA
:103D5000D362704700800540024B1A68024B5A60DC
:103D60007047C046A03400200080054010B5020016
:103D7000164B8020C0051860154B164818600029A6
:103D80000AD0154BE021C9041960002A09D1124B51
:103D9000802212061A6010BD0C4BE021C904196084
:103DA000F3E753019B1A9800801800010B4B186031
:103DB00080235B04984202D3084B094A1A60FFF73C
:103DC000CBFF054B8022D2051A60E4E700B0054026
:103DD00008200140FCFF010000A00540A0340020A5
:103DE000FFFFFF0010B5030010000C4A8024E4051B
:103DF0001460002B0DD001221343094A094CD461F1
:103E0000094C5C401462516293620021FFF7AEFFDF
:103E100010BD034B0022DA61F7E7C04600B0054051
:103E200000800540D3C007B02D3FF84F064BAA22B3
:103E300012011A602F22DA60044B054A1A60024B05
:103E40005B68002BFBDA70470040024000600240D4
:103E500000B0FA0000BEFDE703000A4A1268002A1B
:103E600008D0084A1068C318074A9A4206D3054A80
:103E700013607047034A05491160F2E70120404290
:103E8000F7E7C0466C300020000004207CE10020F1
:103E900010B5FFF7DFFF000010B582B00C0019006D
:103EA000002A0CD0084B002A0BD00192009323006B
:103EB0000200064801F0FAFF0120FFF7CBFF044B98
:103EC000F1E7034AF1E7C046148701102487011087
:103ED000BC79011070B52B4B2B4A1A602B4B2C4A26
:103EE0001A602C4B9A682A4B9343FAD12A4C01E072
:103EF00008CC9847294B9C42FAD3FFF70FFE234B7F
:103F0000274A1A60234B9B68DB43DB01FAD1254B20
:103F100040229A675A671A67DA66234C09E0234BF6
:103F2000234A87212348FFF7B7FF2000FEF7FEFA58
:103F30000834214B9C4209D22368002BF5D0012B79
:103F4000EDD12000FEF7FFFA0834F2E71B4CA16820
:103F50001B4DC022280001F043FEA560EFF305834E
:103F6000002B00D000BEFDF727FFFEF79BFAFEF7FF
:103F70004DFE144C01E008CC9847134B9C42FAD3F9
:103F800070BDC04600E00040BFCDFBFE00F0004029
:103F9000FE7F3C0000C00040581800206818002038
:103FA000FFFFFF0100F00140481800205487011076
:103FB000D0870110748701105818002000ED00E030
:103FC0000000002068180020701800200FB400B511
:103FD00083B0084801F03AFF049B002B07D005A9E5
:103FE0000191180001F042FF034801F02FFF01206A
:103FF000FFF730FFB08701108476011010B501483B
:10400000FFF7E4FFC0870110704710B5002802D009
:104010000B684968984710BD0100002007E0830045
:104020001B185B00501C08601078C01830380A68F4
:104030001378303BDBB2092BF1D97047F0B5DE467F
:1040400057464E464546E0B583B093461F000C9B4D
:104050009A460D9C0E9B99460F9B9B0703D0B84632
:104060000F00060022E00192A34688464E46B9465C
:104070000700B44207D2551C4B4641462020B847A2
:1040800001342A00F5E73D004F465C46019B9B4604
:10409000B1464646B84637002E0007E0013C551CA5
:1040A0005346185D43463900B0472A00002CF5D12D
:1040B00035003E0047460F9B9B0707D4100003B016
:1040C000F0BCBB46B246A946A046F0BDB0464E463F
:1040D000B9462F005D46531BB342EFD2541C4B46EA
:1040E00041462020B8472200F5E7F0B5CE464746C6
:1040F00080B585B0944698460C9D0D9C0EAB1B7800
:104100009946109A119B129EB7071CD4002B0CD015
:10411000F7070AD54F46002F02D10C37374204D09B
:10412000013B02E030272F550134944201D21F2C6D
:10413000F8D9F70707D59C4205D21F2C03D83027A2
:104140002F550134F5E7F70615D5770505D4002C72
:1041500003D0944224D09C4222D00F9A102A2BD014
:104160000F9A102A30D00F9A022A35D01F2C02D86D
:1041700030222A5501341F2C05D84A46002A31D056
:104180002D222A550134039602930194009543464B
:104190006246FFF753FF05B0C0BCB946B046F0BD5C
:1041A000621E012C06D00F9F102F01D01400D4E7FF
:1041B000023CD2E71400D0E7B206D1D41F2CCFD8EE
:1041C00078222A550134D1E7B206CCD51F2CCAD8A3
:1041D00058222A550134C9E71F2CC7D860322A5506
:1041E0000134C3E7720703D52B222A550134CAE7ED
:1041F0003207C8D520222A550134C4E7F0B5DE467F
:1042000057464E464546E0B593B081468A460892E9
:1042100009931CAB10CB1B789B461E9D219B984697
:10422000002C03D1102342469A4390468023DB00A2
:1042300046461E4042461A4212D0002C22D000268A
:104240000EE03033D9B2771C0AAB99552900200013
:1042500000F0DCFFAC4216D31F2F14D83E00040040
:104260002900200000F0D2FFCBB2092BE9D9424649
:10427000920605D54121C918C9B20A39C9B2E2E787
:104280006121F8E7270043460693209B05931F9B77
:10429000049303955B46029301970AAB0093099B35
:1042A000089A51464846FFF720FF13B0F0BCBB46C2
:1042B000B246A946A046F0BDF0B5DE4657464E468A
:1042C0004546E0B595B0089009910A920B931E9E61
:1042D0001F9C20AB1B789B46229B9946239D269BC7
:1042E0009A463300234303D1103352469A439246F1
:1042F0008023DB0057461F4052461A4219D0330034
:1043000023432DD0002714E03033DAB27B1C9846CB
:104310000CABDA554A462B003000210000F0B4FF08
:10432000A5421FD819D043461F2B1BD8474606006D
:104330000C004A462B003000210000F0A5FFD3B24C
:10434000092BE1D95246920605D54122D218D2B2A4
:104350000A3AD2B2DAE76122F8E7B145E3D901E0DF
:104360000023984653460693259B0593249B04936C
:104370004B4603935B460293434601930CAB009379
:104380000B9B0A9A09990898FFF7AFFE15B0F0BC8D
:10439000BB46B246A946A046F0BD0000F0B5DE46D9
:1043A00057464E464546E0B591B083468A460C9244
:1043B00098461A9C08941B9D099522002B0020000A
:1043C000290001F0DCF9002800D0E5E0012252428A
:1043D000D74B2000290001F0CDF9002800D0DBE008
:1043E00001225242D34B2000290001F0ADF90028F0
:1043F00000D0D1E000220023089E3000099D290052
:1044000001F0A2F9002800D0DDE008980999069093
:1044100007918023DB001E9A1A400D921E9A1A42C1
:1044200001D106231C930698079904000D000A0089
:104430000600024300D1D1E0080D4005400DBE4CFE
:10444000A44660440A03120BBC4B13431F0001F047
:10445000A9F9BB4ABB4B01F038F9BB4ABB4B01F091
:1044600015F904000D000022B94B3000390001F0AD
:1044700008F9B84AB84B01F028F902000B002000F7
:10448000290001F003F901F0A5F9814601F08AF94C
:1044900004000D00B14AB24B01F017F90022B14BF4
:1044A00001F0F4F801F096F90600AF4AAF4B200096
:1044B000290001F00AF904000D00300001F072F942
:1044C000AB4AAC4B01F001F902000B0020002900BF
:1044D00001F0D7F804000D0002000B0001F0F5F820
:1044E0000A900B91A44BF31800261F0522002B0005
:1044F0002000290001F0CAF80E900F9122002B0035
:1045000000208021C90501F0BCF804000D00002244
:104510009A4B0A980B9901F0BEF80022984B01F0D3
:10452000B5F802000B000A980B9901F0B4F80022CC
:10453000944B01F0ABF802000B000A980B9901F0C4
:10454000AAF802000B002000290001F09FF80200E9
:104550000B000E980F9901F09EF80022774B01F0A6
:1045600095F832003B0001F0B0F806000F0004009F
:104570000D00069A079B01F0FDF8002830D00123BA
:104580005B429C46E14400227D4B3000390001F043
:1045900082F804000D0023E01E9B04931D9B0393EF
:1045A0001C9B0293089A099B0092019343460C9A24
:1045B0005146584600F0FCF811B0F0BCBB46B2467C
:1045C000A946A046F0BD0023002406930794069652
:1045D00080231B069C46654407951AE700239946ED
:1045E0004B466333C62B1ED804261E9B1B0526D5BF
:1045F0002B0023430FD0644A644B0698079901F0BF
:10460000B1F8002879D00022614B0698079901F093
:104610009BF8002871D01C9B4B4506DD4A46981A32
:10462000431E1C9303E00526DFE700231C93802331
:10463000DB001E9A1A431E920026002399461D9BFA
:104640009E4264D29F1B02231E9A1A400A921E9A0F
:10465000134202D0002E00D000274B46002B07D07B
:1046600022002B000698079901F015F80690079193
:10467000002200230898099901F066F8002848D123
:10468000444B1E9A1340049303971C9B0293069B72
:10469000079C0093019443460C9A5146584600F0FB
:1046A00087F8002E00D187E71E9B9B063DD5452548
:1046B000441C4346020051462800D8474B46DA17AF
:1046C0009B18534005220592013E04960022039256
:1046D0000A3202924A46D00F0190009343462200CC
:1046E00051465846FFF78AFD0A9B002B00D163E72D
:1046F00002005F460C9E1D9D54E01C9B002B9ED02B
:104700000D9B002B9BD01C9B013B1C9397E7002724
:1047100099E7069C079D2200290080200006844618
:1047200061440B0006920793AAE76525C0E7C046DF
:10473000FFFFEF7FFFFFEFFF01FCFFFF0000F03FF7
:10474000FB799F501344D33FB3C8608B288AC63F80
:104750000000F83F61436F63A787D23F71A37909D7
:104760004F930A400000E03F1655B5BBB16B0240C5
:10477000EF39FAFE422EE63FFF03000000002C4016
:1047800000002440000018402D431CEBE2361A3F85
:1047900080842E41FFF7FFFF541C434651462020E2
:1047A000B8472200931BAB42F6D3100004E7C04683
:1047B000F0B5DE4657464E464546E0B595B0069004
:1047C000079193469946209F1E9A1F9B100019003F
:1047D00000F0D5FF002831D101225242BF4B1E9874
:1047E0001F9900F0B1FF002837D101225242BC4B83
:1047F0001E981F9900F0BEFF00283DD10022B94B42
:104800001E981F9900F0B6FF002850D10022B64B29
:104810001E981F9900F098FF002848D1002200231D
:104820001E981F9900F090FF002850D10023984651
:10483000229B5B0500D4B6E0002458E0229B039342
:10484000219B029303230193A84B00934B465A46A6
:1048500007990698FFF7F2FB0EE1229B0393219B39
:10486000029304230193A24B00934B465A460799A7
:104870000698FFF7E3FBFFE00423229A1A402299EF
:104880000B4210D09B4B002A0FD004222299039197
:1048900021990291019200934B465A460799069836
:1048A000FFF7CCFBE8E0944BEDE70322EEE7229B19
:1048B0000493219B039302971E9B1F9C00930194DA
:1048C0004B465A4607990698FFF768FDD4E01E9AB2
:1048D0001F9B0020002100F0D4FE1E901F91012399
:1048E0009846A5E70CAB30221A55013F01341F2C26
:1048F00001D8092FF6D81E981F9900F06BFF05000C
:1049000000F050FF02000B001E981F9900F0B9FE46
:10491000FA007A4B9B181A685B680A920B9300F0B6
:10492000D4FE0890099100F079FF060000F036FFF0
:1049300002000B000898099900F0A3FE0890099165
:1049400000226F4B00F016FF00282ED001363000F9
:1049500000F024FF02000B000A980B9900F0FAFE09
:10496000002801D001350026002F2CD1280000F0AE
:1049700019FF02000B001E981F9900F082FE06002E
:104980000F0000225E4B00F0DFFE002846D100221F
:104990005B4B3000390000F0EDFE00283ED1EB0704
:1049A0003CD501353AE0062746E70022544B0898EB
:1049B000099900F0C9FE0028D6D1002E01D0F307D6
:1049C000D2D50136D0E7AA461F2C11D8013F0A21C3
:1049D000300000F01BFC651C30310CAB19550A216E
:1049E000300000F013FC092E0ED906002C00EBE776
:1049F00055461F2C0CD87B1E002F09D00CAA302145
:104A000011551F000134F4E72B0055461C00F0E758
:104A10001F2C03D80CAB2E221A5501341F2C10D892
:104A20000A21280000F0CAFB661C30310CAB195576
:104A30000A21280000F0C2FB051E01D03400EDE77A
:104A400034000323229A1340012B1CD01F2C06D8BC
:104A50004346002B32D00CAB2D221A550134229B39
:104A60000393219B029301940CAB00934B465A464F
:104A700007990698FFF7E2FA15B0F0BCBB46B246BC
:104A8000A946A046F0BD219B002B13D04346002B26
:104A900002D10C3313420FD0219B013B219319000B
:104AA00003E00CAB30221A5501348C42CED21F2CBD
:104AB000F7D9CBE72199F8E72199F6E7229B5B0725
:104AC00004D50CAB2B221A550134C8E7229B1B07D7
:104AD000C5D50CAB20221A550134C0E7FFFFEFFF0C
:104AE000FFFFEF7F65CDCD4165CDCDC1EC870110D6
:104AF000F0870110E4870110E0870110D8890110C8
:104B00000000E03FF0B5DE4657464E464546E0B56C
:104B100093B082468B4690461193002900D1EBE278
:104B200000275546119B1878002800D1E7E2252878
:104B300009D07C1C43463A005946A847119B0133D3
:104B400011932700EEE7013311930024119A117895
:104B50000B00203BD8B2102803D88300D048C3589C
:104B60009F460B00303BDBB2092B2CD92A292FD0D2
:104B700000230A93119B1A782E2A39D000239A46D3
:104B8000119A1378683BD9B2122976D88B00C5499F
:104B9000CB589F4601231C4301321192D6E70223D2
:104BA0001C4301321192D1E704231C4301321192BC
:104BB000CCE708231C4301321192C7E710231C43A2
:104BC00001321192C2E711A8FFF726FA0A90D1E745
:104BD0001C9B1A1D1C921868002804DB0A90119B6C
:104BE00001331193C6E702231C4343420A93F6E7BD
:104BF0008022D20014435A1C11925A781300303B81
:104C0000DBB2092B04D92A2A07D000239A46B7E73A
:104C100011A8FFF701FA8246B2E71C9B1A1D1C92ED
:104C20001868002804DB8246119B01331193A7E723
:104C30000020F8E780235B002343511C1191527838
:104C40006C2A01D01C0018E0C0239B001C430131DA
:104C5000119112E080232343511C11915278682A4C
:104C600001D01C0009E0C0231C430131119104E074
:104C700080235B001C4301321192119B18780300C2
:104C8000253BDAB2532A00D92CE29300864AD35846
:104C90009F4680239B001C4301321192EDE7802345
:104CA0005B001C4301321192E7E7782809D05828AD
:104CB00038D06F2838D0622838D010239C430A2679
:104CC00000E01026582833D0692803D0642801D08A
:104CD0000C229443630501D50122944369282AD00C
:104CE000642828D0A30500D59FE0E30500D5B8E0EF
:104CF000630600D4CAE01C9A111D1C911168FF22A2
:104D00000A4005940A9B049353460393029600239A
:104D10000193009243463A0059462800FFF76EFA85
:104D2000070027E01026CDE70826CBE70226C9E7D3
:104D300020221443C8E7A30520D4E30550D463061A
:104D400066D51C9A111D1C911168FF220A40D317C9
:104D5000D118594005940A9B049353460393029635
:104D6000D20F0192009143463A0059462800FFF7BE
:104D700045FA0700119B01331193D3E61C9BDA1D02
:104D800007218A43110008311C91116853689C4621
:104D9000DB170C930D930C9A0D9B100048400E905E
:104DA000624653400F930E980F990C9A0D9B801AF0
:104DB00099410E900F9108940A9B079353460693CE
:104DC0000496002305936346DA0F02920090019146
:104DD00043463A0059462800FFF76EFA0700C9E734
:104DE0001C9A111D1C911268D317D11859400594B3
:104DF0000A9B0493534603930296D20F01920091AB
:104E000043463A0059462800FFF7F8F90700B1E792
:104E1000230605D51C9A111D1C910023D25E96E72E
:104E20001C9A111D1C91126891E71C9BDA1D072129
:104E30008A43110008311C9108940A9B079353463A
:104E40000693049600230593029313685468009315
:104E5000019443463A0059462800FFF72DFA07000F
:104E600088E71C9A111D1C9105940A9B04935346D4
:104E700003930296002301931368009343463A007C
:104E800059462800FFF7BAF9070073E723060DD546
:104E90001C9A111D1C9112681204120C31E7C046B5
:104EA000F88701103C880110888801101C9A111D98
:104EB0001C91126825E746281AD01C9B073307224D
:104EC00093431A0008321C9204940A9A03925246A1
:104ED00002925C681B680093019443463A0059466D
:104EE0002800FFF765FC0700119B0133119319E6B9
:104EF00020231C43E1E7672801D0472802D1802303
:104F00001B011C43452801D0472801D120231C4305
:104F10001C9B0733072293431A0008321C92049407
:104F20000A9A0392524602925C681B6800930194AD
:104F300043463A0059462800FFF730FA0700119B14
:104F400001331193EEE502231A00224092462342D8
:104F50001FD001241C9B1A1D1C927A1C91461878A4
:104F600043463A005946A8475346002B16D1119B99
:104F7000013311934F46D5E5561C43465946202030
:104F8000B847230032005C1C9D42F5D83D00170055
:104F9000E0E701233A002F000A9DF4E74A46A946BC
:104FA0000A9D06E0571C434659462020C847340056
:104FB0003A00661CA542F5D84D469146D7E71C9BA2
:104FC0001A1D1C921B6899465346002B00D1013BC9
:104FD0004E4601E0013613003278002A02D05A1EF4
:104FE000002BF7D14B46F21A10928023DB002600EB
:104FF0001E401C4203D0524501D953461093022350
:105000001A0022400B92234205D03A0037004C464A
:10501000A946554620E03A00109B5F46B3462E0055
:1050200006E0551C434639002020B04723002A00E3
:105030005C1C0A999942F4D835005E46BB46109430
:1050400037004C46A946554606E01D000134561C63
:1050500043465946C84732002078002804D0002F24
:10506000F4D06B1E002DF0D117004D460B9B002B8A
:1050700003D1119B0133119354E50A9F109B06E065
:10508000561C434659462020A847230032005C1C8A
:105090009F42F5D81700ECE721231C431C9B1A1DE7
:1050A0001C921B68009305940823049353460393B2
:1050B000102302930023019343463A0059462800E7
:1050C000FFF79CF80700119B013311932AE57C1C24
:1050D00043463A0059462520A847119B01331193B6
:1050E00027001FE57C1C43463A005946A847119B00
:1050F00001331193270015E50A4B9A4610E5AA469D
:10510000474502D343465A1E00E03A0043465946FB
:105110000020D047380013B0F0BCBB46B246A946C9
:10512000A046F0BD0940001000B585B00290039183
:105130000121009313004A4202A90248FFF7E2FC52
:1051400005B000BD0B40001001480421014B184779
:10515000400F002085510010014B9B68184700004C
:10516000400F002010B5010018231B88142210885E
:10517000984710BD10B5010018231B88162210880F
:10518000984710BDF0B5C64600B507000E000025D3
:105190000123984600E00135B5420AD2AC003C1923
:1051A0002068FFF7DFFF20600028F4D10023984635
:1051B000F1E7404680BCB846F0BD0000124A936F4C
:1051C0009B0815D29066D166002905D0FFE7FFE75E
:1051D000FFE7516F106F704704B580210906C217B1
:1051E0005140002800D0C84312F07EF8002104BDD1
:1051F000F0B5146E556E576F166FFFF7E3FF146628
:10520000556657671667F0BD000000D0114A936FCE
:105210009B0813D210665166002905D0FFE7FFE70F
:10522000FFE7516F106F704704B5002801D00020D0
:10523000C04312F059F8002104BDC046F0B5146E09
:10524000556E576F166FFFF7E5FF14665566576783
:105250001667F0BD000000D094464A4A926F92084B
:10526000624601D228E0C046F0B5464E346E756EF7
:10527000776F366F00F020F89446424A1466556600
:10528000576716676246F0BD94463E4A926F920891
:10529000624601D254E0C046F0B53A4E346E756EA7
:1052A000776F366F00F04CF89446364A14665566B0
:1052B000576716676246F0BD002B24DB11D000292A
:1052C0003EDA00B5C943404200D1013100F038F860
:1052D000C943404200D10131DB43524200D1013386
:1052E00000BD002AEBD1002801D1002905D0002003
:1052F000C90FC90701D1C043410800B511F0E4FF4F
:105300000022002300BD00B500290ADBDB43524226
:1053100000D1013300F014F8C943404200D10131FB
:1053200000BDC943404200D10131DB43524200D1AC
:10533000013300F005F8DB43524200D1013300BDD8
:10534000002923D1002B18D1002A0CD0BC460D4FC8
:1053500038667A6600210023FFE7FFE7FFE77A6FF0
:10536000386F67467047002801D00748010000B534
:1053700011F0AAFF0022002300BD02000B00002054
:1053800000217047000000D0FFFFFFFF002B00D07E
:10539000BFE0130C28D1002AE7D080B4114F396642
:1053A0007A66FFE7FFE730B4040C7B6F396F1B04AC
:1053B00023433B667A66FFE7FFE7FFE7C04684B218
:1053C0007B6F3D6F1B0423433B667A66FFE7FFE775
:1053D000C04600232C042D0C7A6F386F00196941E8
:1053E000B0BC7047000000D0F0B594460025140E04
:1053F00001D112020835140F01D112010435940FA6
:1054000001D192000235D40F01D152000135D40BE5
:105410000134254F7C66254C3C660E0C93B2FFE7A9
:10542000FFE7FFE73C6F6643360C7703BE467343E6
:10543000DF0B5B04C01AB941130C7343DB18C91AA4
:10544000CE086643360CB64493B273431F0F1B015C
:10545000C01AB941130C73431F0B1B05C01AB94185
:10546000860D8F023E436643360C092D24DB520A1B
:105470007243801A7703460A6643360C16235B1B79
:10548000DE40DF40BF1964466643821B7046043528
:1054900006330100D940A840C01900D30131A2420F
:1054A00006D20023F0BD0000000000D0FFFFFFFF88
:1054B000121B0130F3D3F1E709277F1BFE4064463E
:1054C000A2B27243801A00D20139220C7243130C2B
:1054D0001204821A99410B007046043513370100FB
:1054E000F940A840801900D30131002B02D1A2421B
:1054F0000AD2F0BD013000D30131121BFAD2013BB8
:10550000F8D1A24200D2F0BD013000D30131121B0C
:10551000F7E7F0B51C0C00D080E00CB400251C0AA5
:1055200004D11B02160E3343120208351C0B04D1A2
:105530001B01160F3343120104359C0B04D19B0051
:10554000960F334392000235DC0B02D192185B4177
:1055500001351C00971864410134464F7C66464C67
:105560003C660E0CFFE7FFE7FFE7C0463C6F664373
:10557000360C7703BE4697B27743C01B00D2013981
:10558000C01B00D201399FB27743C91BC91B170C3E
:1055900077437E04FF0B801BB941CE086643360C6F
:1055A0000C2D33DBB644120B1F053A431B0B97B28D
:1055B0007743C01B00D201399FB27743C91B170C38
:1055C00077433E043F0C801BB941860D8F023E435A
:1055D000664329277F1BFE400C3D7746AF40BF192D
:1055E00030BCA2B2ABB272437343801A9941220C11
:1055F0007243130C1204801A994102000B00013708
:10560000001BA941F9D2781E0021F0BD0C277F1B99
:10561000FE4077467F0BAF40FF19E0E700245D1C9A
:1056200007D0144F7D663966FFE7FFE7FFE7FFE726
:105630003C6F95B29EB265436643401BB141150C69
:105640001E0C6543664336042F0C3E432D04401B5D
:10565000B141994204D202000B0020000021F0BDAC
:1056600001D19042F7D3801A994101349942F2D383
:10567000F6E70000000000D0FFFFFFFF4840414078
:10568000484018B4134B5B68019308BD18B4114B24
:105690001B68019308BD94460F4A926F920805D289
:1056A000624618B40B4BDB68019308BD0A4AF0B59B
:1056B000146E556E576F166F6246FFF7F2FF064A7B
:1056C0001466556657671667F0BD18B4014B9B68A2
:1056D000019308BDD0DE0020000000D0FFB550408F
:1056E0004240504059404B40594000E0FFB5154FF3
:1056F0004C00640D03D0BC4204D10C0314D800202C
:10570000090D09055C00640D03D0BC4204D11C03E3
:105710000AD800221B0D1B0501264B4009D44B4023
:1057200003D58B4200D18242FFBD9942FCD1904209
:10573000FFBD0B43DB1803431343F5D0C94349189E
:10574000FFBD0000FF07000000B5FFF7CFFF80415D
:1057500000BDC04600B5FFF7C9FF01D9002000BD5C
:10576000012000BD00B5FFF7B9FF01D9002000BD41
:10577000012000BD00B5FFF7B1FF804100BD012051
:1057800040054A00121804D85A00121801D8002007
:10579000704701207047002070470000002100285A
:1057A00005D17047C1174840401AFAD0C90713B550
:1057B000064B1B6898470CBC441CA2401005120BFA
:1057C0000349091B09051943114310BDD4DF00200B
:1057D0001F04000010B54C00620D8023D218DB00BE
:1057E000D21A5B057E2A10DD9E3A13DACC17090324
:1057F000490819435242D140640001341532202A2D
:1058000005DAD0400843604310BD002010BD0846B3
:10581000604310BDC80FC018013810BD18B4024B4A
:105820005B6A019308BD0000D0DE002018B4024B73
:10583000DB6F019308BD0000D0DE002010B50148E9
:10584000FEF7C4FB288A011070B513231C78012CC5
:1058500014D0012C14DC022C02DC1F4A1F4B9A646A
:105860001F48FFF77FFC1F4B186070BD99001E4852
:105870001A4A885001331F2BF8D9EAE70023FAE7C8
:105880001A48FFF777FC05001948FFF773FC023848
:1058900003789B007F2B19DD802229000F4800F040
:1058A0009FF9022CD7D1134B1A88B5231B029A42B9
:1058B00009D1114B1A88114B9A4204D1104B1A8806
:1058C000104B9A42C7D00020FEF780FB0E4B0F4AC8
:1058D00032210F48FEF7E0FA15590010D0DE002003
:1058E0004C330000D4DF00203D580010534400002A
:1058F0005346000054380000D838000049460000E4
:105900009C38000059460000408A0110D48A0110DA
:10591000948A011007B56046002800D100BE0188B6
:105920000A0A0230DF2AFAD1C9B2820804D30288F7
:1059300040880004104300E00068024A5050039081
:1059400007BD0000D0DE002051434343C9188C46F8
:10595000110C83B24B4310B4040C614392B280B279
:10596000504362431C041B0C001910BC5941130422
:10597000120CC0185141614470470000484041403A
:1059800048400E4B5B6818470C4B1B6818470C4A85
:10599000936F9B0802D2094BDB681847F0B5146E71
:1059A000556E576F166FFFF7F6FF054A146655667A
:1059B00057671667F0BD014B9B681847D8DF00207A
:1059C000000000D007B548404140484001E0C046D3
:1059D00007B54200120E03D0FF2A03D1420218D8A5
:1059E000C00DC0054A00120E03D0FF2A03D14A029F
:1059F0000FD8C90DC9050122414005D4414001D548
:105A0000814207BD884207BD0143491801D0C04308
:105A1000001807BD00B5FFF7DBFF01D0002000BD77
:105A2000012000BD00B5FFF7D3FF804100BDC04697
:105A300000B5FFF7C7FF804100BD491A002807D114
:105A400008467047C10FC90700D54042002817D04B
:105A5000F44603B40B4B1B68984706BC81409E3844
:105A60004042803107D20B0607D04900490AC005E1
:105A70001043084360470130F8E7490A8902F5E717
:105A800070470000D4DF0020014BDB6F1847000097
:105A9000D8DF002010B50148FEF798FABC79011054
:105AA00070B513231E781848FFF764FB0500012E1C
:105AB00011D0012E09DDAB1E1B789B007F2B1DDD55
:105AC00080222900114800F08BF81148FFF74AFBAB
:105AD000104B186070BD542201000C4800F080F893
