:020000041000EA
:1000000000B5324B212058609868022188439860DF
:10001000D860186158612E4B002199600221596106
:100020000121F02299502B49196001219960352056
:1000300000F044F80222904214D00621196600F024
:1000400034F8196E01211966002018661A6600F04E
:100050002CF8196E196E196E052000F02FF8012189
:100060000842F9D1002199601B49196000215960AB
:100070001A491B48016001219960EB211966A021F2
:10008000196600F012F800219960164914480160C1
:100090000121996001BC002800D000471248134993
:1000A000086003C880F30888084703B5996A0420EC
:1000B0000142FBD001200142F8D103BD02B5186610
:1000C0001866FFF7F2FF186E186E02BD00000240BE
:1000D000000000180000070000035F00212200005C
:1000E000F4000018222000A00001001008ED00E03C
:1000F00000000000000000000000000074B24E7A12
:1001000000200420F7010010C3010010C5010010F9
:10011000C1010010C1010010C1010010C101001097
:10012000C1010010C1010010C1010010C701001081
:10013000C1010010C1010010C9010010CB01001065
:10014000CD010010CD010010CD010010CD01001037
:10015000CD010010CD010010CD010010CD01001027
:10016000CD010010CD010010CD010010CD01001017
:10017000CD010010CD010010CD010010CD01001007
:10018000CD010010CD010010CD010010CD010010F7
:10019000CD010010CD010010CD010010CD010010E7
:1001A000CD010010CD010010CD010010CD010010D7
:1001B000CD010010CD010010CD010010CD010010C7
:1001C00000BE00BE00BE00BE00BE00BEEFF3058054
:1001D000103800BEF2EB8871943D0510B83D051053
:1001E0003402001090A31AE700201F49086006C8D7
:1001F00081F3088810471D48006800282FD10DA4FE
:100200000ECC002902D000F012F8F9E71849194A7B
:10021000002000E001C19142FCD1174988471749ED
:1002200088471749884700BEFDE701C901C29A42C5
:10023000FBD37047B83D0510C000002070180020A7
:100240008855051000000420000004208855051082
:10025000001004200010042000000000704709482E
:1002600004F0D4FD0047000008ED00E0000000D0DD
:10027000901800205CE100207D3B00100D14001060
:10028000393B00105756000006005250ABB3605384
:10029000EC85011006005250861C0302FC850110FB
:1002A000060052505422A29D0886011005005250AB
:1002B000DE65F46888550510F8B5C0460448054B5E
:1002C00010B5834203D0044B002B00D0984710BDDB
:1002D0007018002070180020000000000648074930
:1002E000091A8B10C90FC91810B5491003D0044B57
:1002F000002B00D0984710BD701800207018002007
:100300000000000010B5074C2378002B09D1FFF73F
:10031000D5FF054B002B02D0044800E000BF0123AD
:10032000237010BDF019002000000000A070011023
:10033000054B10B5002B03D00449054800E000BF71
:10034000FFF7CCFF10BDC04600000000F4190020EC
:10035000A070011070B501248440D0252D06AC6139
:10036000322002F069FD6C61FA20800002F064FD29
:1003700070BDF0B585B005006846871DC3801201C9
:100380000E236B441A8001248C40D0263606B461BB
:1003900001221900280016F06BFE01223900280006
:1003A00016F066FE746105B0F0BDF0B5C64600B546
:1003B00082B0040008001201694606310A801A0C56
:1003C00001ADA8462A806A46971C538001258540C6
:1003D000D0263606B5610122200016F049FE012222
:1003E0004146200016F044FE01223900200016F09C
:1003F0003FFE756102B080BCB846F0BD70B5040028
:100400000D000023344AFFF7B4FF002360222900C7
:100410002000FFF7CAFF0223304A29002000FFF71F
:10042000A8FFC0231B012E4A29002000FFF7A1FFCF
:1004300000232C4A29002000FFF79BFF00232A4AB3
:1004400029002000FFF795FF0C23284A29002000EF
:10045000FFF78FFF1E23264A29002000FFF789FFA0
:100460000123244A29002000FFF79FFF0023224A8E
:1004700029002000FFF799FF0023204A29002000CF
:10048000FFF793FF802394225B01D2002900200014
:10049000FFF76FFF1A4B1B4A29002000FFF785FF6B
:1004A0000023722229002000FFF77FFF164B174A16
:1004B00029002000FFF75DFF96221123D2002900BA
:1004C0002000FFF756FF90220123D20029002000D0
:1004D000FFF74FFF70BDC046B90400008104000063
:1004E000AF0400009304000092040000B604000072
:1004F0009A04000005040000060400000704000040
:1005000028EA22000F0400003F1F0000B204000090
:10051000F0B583B00500120108326B46DA8006336D
:1005200001248C40D0273F06BC610122190016F03F
:100530009FFD01AE012332000021280016F058FD76
:100540007C61308803B0F0BDF0B5C64600B582B01E
:100550000400120108326B46DA80063301258D4013
:10056000D0221206904695610122190016F080FDF6
:1005700001AF01233A000021200016F039FD6B463F
:100580009E1C012332000021200016F031FD43465D
:100590005D613B881B043088C01802B080BCB8463F
:1005A000F0BD70B505000E00140084229200FFF724
:1005B000CBFF20608C22920031002800FFF7C4FF9F
:1005C00060609422920031002800FFF7BDFFA06018
:1005D00070BD000070B505000E001400084AFFF75A
:1005E000B3FF2060074A31002800FFF7ADFF6060CD
:1005F000054A31002800FFF7A7FFA06070BDC04684
:100600000D0200002D0200004D02000070B5050033
:100610000E00140083229200FFF796FF20608B22C9
:10062000920031002800FFF78FFF60609322920054
:1006300031002800FFF788FFA060034A310028003E
:10064000FFF782FFE06070BD6602000030B583B046
:100650000C001300C268156801790068012200923D
:100660002200A84703B030BD30B585B00C000F2381
:100670006B441A70C26855680179006801220092C3
:100680002200A84705B030BD30B583B00C00C1686A
:100690000D6801790068009313002200A84703B099
:1006A00030BD30B583B00500012405E0EB689B68E0
:1006B000012098470134E4B2052C0DD86B46DA1DB1
:1006C000D0212800FFF7C2FF0028EFD16B46073387
:1006D0001B78602BEAD101E06420404203B030BDBA
:1006E00010B5B622E021FFF7BFFF10BD30B583B0D3
:1006F0000500012401E00134E4B2052C11D8EB68B7
:100700009B68022098476B46DA1DF3212800FFF70B
:100710009DFF002807D16B4607331B78DB07EAD41F
:1007200001E06520404203B030BD43185B781B02F6
:10073000405C18437047421852781202405C1043E4
:1007400000B2704770B588B004001A2301AA88214E
:10075000FFF79AFF051E3FD101AE00213000FFF7E1
:10076000E4FF208202213000FFF7E5FF60820421D0
:100770003000FFF7E0FFA08206213000FFF7D5FF31
:10078000E08208213000FFF7D6FF20830A213000E5
:10079000FFF7D1FF60830C213000FFF7CCFFA0836F
:1007A0000E213000FFF7C7FFE08310213000FFF774
:1007B000C2FF208412213000FFF7BDFF60841421A6
:1007C0003000FFF7B8FFA08416213000FFF7B3FF19
:1007D000E084727E2823E254002D1FD0002D1AD110
:1007E00001AE00213000FFF7A6FF6085B2782C2310
:1007F000E25403217156090133790F221A400A434A
:10080000E2850522B25612011B09134323860622F4
:10081000B2563223E254280008B070BD072301AA63
:10082000E1212000FFF730FF0500D7E710B582B0C7
:1008300004006B46DA1DF521FFF708FF002815D0EC
:10084000002825D000280FD1A37A012B37D003210F
:1008500062795201A3799B001A4352B20A43D2B281
:10086000F4212000FFF700FF02B010BD6B46D979DC
:1008700003220A40617A49010A4352B2217A89006F
:100880000A43D2B2DA71F5212000FFF7EDFED7E777
:100890006B469A1DF2212000FFF7D8FE0028D1D127
:1008A0006B469A7907218A4352B2072161560A435F
:1008B000D2B29A71F2212000FFF7D6FEC2E70021E2
:1008C000C6E710B582B00C0008236A46F721FFF78F
:1008D000DBFE00281DD16B461B781B036A4652784D
:1008E000120113436A4692781209134363606B4600
:1008F000DB781B036A461279120113436A46527968
:100900001209134323606B469A791202DB79134371
:10091000238102B010BDF8B50400080004F0E1FE28
:10092000061CE221890504F09AFE071C208804F0C9
:10093000D8FE051CEA21890504F091FE011C381C33
:1009400004F073FE071C0223E05E04F0CFFE011CDE
:10095000381C04F084FE071CDC218905301C04F0DF
:100960007EFE061CE4218905281C04F078FE011C8B
:10097000301C04F05AFE011C04F071FE051C042317
:10098000E05E04F0B3FE011C281C04F068FE011CAC
:10099000381C04F04DFEF8BDF0B583B004000191A1
:1009A000101CFC21890504F05AFE594904F03DFE53
:1009B000051C011C04F053FE071C1023E05E04F02C
:1009C00095FE011C381C04F04AFEE021890504F064
:1009D00046FE071C0E23E05E04F088FE291C04F08E
:1009E0003EFE011C04F024FE391C04F021FEFA2115
:1009F000890504F034FE071C0C23E05E04F076FE4B
:100A00008F21C90504F02BFE011C381C04F010FED8
:100A1000071C0A23E05E04F069FE291C04F01FFE97
:100A2000291C04F01CFED821890504F018FE061CC0
:100A30000823E05E04F05AFE291C04F010FE011C9D
:100A4000301C04F0F5FDD821890504F008FEE021F2
:100A5000890504F004FEFE21890504F0E9FD051C6A
:100A6000E08804F03EFE011C281C04F0F8FD051C83
:100A7000002104F023FE002848D1019804F031FE43
:100A8000011C9320C00504F0D0FD061CE621890559
:100A9000381C04F0E4FD011C301C04F0C6FD1D49A7
:100AA00004F0DDFD291C04F0C6FD051C1623E05EE4
:100AB00004F01CFE291C04F0D2FD291C04F0CFFD1B
:100AC000C021890504F0CBFD061C1423E05E04F070
:100AD0000DFE291C04F0C3FDE021890504F0BFFDD3
:100AE000011C301C04F0A4FD061C1223E05E04F07F
:100AF000FDFD011C301C04F09BFDF621890504F06E
:100B0000AEFD291C04F094FD03B0F0BD0020FBE70E
:100B100000007A470050C345F0B5C64600B5040052
:100B20000E00101C364904F080FD051C300004F056
:100B3000D8FD061C1E23E05E04F0D8FD8521C90502
:100B400004F08DFD071C2023E05E04F0CFFDE221C0
:100B5000890504F084FD291C04F081FD011C381C6A
:100B600004F066FD011C301C04F05FFD061C1A2316
:100B7000E05E04F0BBFDDE21890504F070FD071C7A
:100B80002223E05604F0B2FDCA21890504F067FD76
:100B9000291C04F064FD8046207F04F0A2FDCA21D8
:100BA000890504F05CFD291C04F059FDFE2189052E
:100BB00004F03EFD011C404604F051FDFE21890574
:100BC00004F036FD011C381C04F049FD011C301CEA
:100BD00004F045FD051C207E04F083FD291C04F073
:100BE0003EFDD821890504F03AFD011CFE20800558
:100BF00004F01BFD291C04F032FD80BCB846F0BD9A
:100C00000000964701600271C3600123C3718371C4
:100C100043710023037243720333837270470000F1
:100C2000F0B5C64600B584B004000E0001A9FFF778
:100C300048FE051E44D1103401992000FFF76BFED9
:100C40008046224904F0F7FC071C214904F03EFDD0
:100C5000002807D11F49381C04F03EFD002802D0AF
:100C60001C4F00E01A4F3760424602992000FFF700
:100C700093FE071C7060184904F028FD002807D176
:100C80001649381C04F028FD002802D0134F00E05C
:100C9000114F776001AB198942462000FFF73CFFF6
:100CA000041C002104F012FD002807D10C49201C6F
:100CB00004F012FD002802D0094C00E00024B460CA
:100CC000280004B080BCB846F0BDC0460000A04576
:100CD000000020C20000AA420060EA4600D8D647C1
:100CE0000000C84210B54279194B9A5C81795C5C6E
:100CF000C179595C002A25D0D00080188001801A63
:100D00008000144B9C466044002C1DD0E200121958
:100D10009201121B9200104B9C46624480180029DD
:100D200014D0CB005B189B015B1A9B000A4A9446C7
:100D30006344C018094B9C466044FA21890004F0C2
:100D4000B9F810BD0348DFE70022E7E70023F0E72A
:100D5000A0700110E20400003F020000E703000061
:100D600070B50500FFF79DFC041E0CD0002C0FD0C1
:100D7000002C12D0002C15D0002C02D1AB7A032B02
:100D800015D0200070BD2800FFF7AAFC0400EDE795
:100D90002800FFF7ABFC0400EAE72800FFF7D2FCCD
:100DA0000400E7E72800FFF741FD0400E4E7EB68F3
:100DB0009E682800FFF796FFB047E2E710B502F003
:100DC0003BF810BDF0B5C64600B582B002AF0600D4
:100DD000884619003B7E5C1CE4B2E51DED08ED0081
:100DE0006846401B854602AD2A70092068441A00F7
:100DF00004F04AFD0023009323002A0041463000FE
:100E000007F016FC844204D10020BD4680BCB846E1
:100E1000F0BD02204042F8E7F0B585B004000D00B7
:100E200011001E000AAB1F780F226A4411700123C3
:100E30000093290007F0FCFB01280CD1002300934C
:100E40003B0032002900200007F0FEFBB84205D12C
:100E5000002005B0F0BD02204042FAE701204042E8
:100E6000F7E7000010B5024804F044FE002010BD72
:100E7000B470011070B5050014001100084804F0AA
:100E800069FEEB6E9C466444EC662F2C01DC00206E
:100E900070BD00232B67034804F02CFEF7E7C04623
:100EA000C8700110DC70011010B57821012004F029
:100EB000ADFC041E04D0044804F01CFE200010BD4C
:100EC000024804F017FEF9E730710110FC700110C0
:100ED00070B504004068002831D0002109F0D6FE2A
:100EE00000220021606809F007FF0021606809F016
:100EF000DFFE0021606809F0CDFE0021606809F086
:100F0000E5FE60680AF01CFA051E0ED1002363603E
:100F10002068002807D0002109F0B8FE20680AF0F8
:100F20000FFA00232360280070BD0100054804F07B
:100F300011FE60680AF032F80D256D42E6E70025E3
:100F4000E6E7C0464871011010B50400002908D139
:100F5000064804F0CFFD012323722000FFF7B8FFFD
:100F600010BD034804F0F6FDF5E7C04668710110B6
:100F700070710110F8B506000D0014001F00002A62
:100F800010D014F02FFF14F041FF218900290ED159
:100F9000200009F08DF814F02FFF336F302B26D08E
:100FA0000020F8BD01214942FFF7CEFFF9E73B00E1
:100FB000326F204804F0CEFD306F82B230239B1A8E
:100FC0009BB23100393127893A1C9F4200D91A1C43
:100FD00092B209180023200009F084FA336F9C466E
:100FE000604430672189280009F0F4FDD0E7302201
:100FF000310039313000093015F070FD002809D179
:101000000D4804F077FD736F01337367092B0ADC19
:101010000020C6E7094804F06DFD01214942300077
:10102000FFF792FFBDE700213000FFF78DFF0020A2
:10103000B7E7C0467C710110AC7101109C710110C2
:1010400070B505000C000B000D3300D170BD0448D5
:1010500004F080FD21002800FFF776FFF6E7C04688
:10106000C871011070B504000D000023C366302163
:101070000F4804F06FFD14F0B5FE14F0C7FE210018
:1010800009310123302228000CF088FC051E03D111
:1010900014F0B2FE280070BD0100064804F05AFDAD
:1010A000012149422000FFF74FFF0500F2E7C0464B
:1010B000E07101100072011070B506000C00151EE1
:1010C0001CD100291AD0124804F014FD74603100BC
:1010D000200009F0DBFD0F49200009F0E9FD0E4971
:1010E000200009F0D7FD03220C49200009F004FE7E
:1010F0000B49200009F0EAFD280070BD094804F002
:10110000F9FC29003000FFF71FFF06204042F4E7FA
:1011100030720110750E0010750F0010650E001072
:10112000411000101C72011070B506000D001A4B22
:101130001868043010F01EFF01002A00174804F060
:1011400009FD2E200AF058F8041E11D0AAB2002181
:1011500009F042FC011E10D10121200009F008FD18
:10116000306000280FD0310009F090FD012070BDE3
:101170000B4804F0BFFC0020F9E72A00094804F0FE
:10118000E9FC0020F3E7084804F0B4FC20000AF072
:10119000D7F80020EBE7C04684CE0020447201104F
:1011A0006872011080720110A8720110F0B5D64665
:1011B0004F464646C0B588B0081E1CD01F315A2382
:1011C000C25E5423C35A9A46047D457D867DC77D01
:1011D000037E9C46437E98465823C05C0690434657
:1011E0000593634604930397029601950094534632
:1011F000044804F0AFFC002008B0E0BCBA46B14699
:10120000A846F0BDBC72011010B5040001F0FCFE50
:10121000002903DB20606160200010BD024B034AFF
:101220003F21034802F08CFC08730110687501101F
:101230002473011078231A000240034205D0782A53
:1012400001D0002002E0012000E0012070470000F2
:10125000F0B5D6464F464646C0B5050001F0D4FE6F
:10126000002900DA8DE000D191E0FA2292000023FB
:1012700003F05EFE504B9A461860504E31005048C5
:10128000FFF7CEFC4F4F504C3A0011212068FFF77A
:1012900088F94E4B98461A0011212068FFF7B6F9DD
:1012A0004B4B994620681A001121FFF793F9494CDE
:1012B00053461B6823604B46186804F017FA04F085
:1012C00037FA454A454B04F054F804F003F96060DE
:1012D0004B46586804F00AFA04F02AFA3E4A3F4B9B
:1012E00004F047F804F0F6F8A0604346186804F0EC
:1012F000FDF904F01DFA3A4A3A4B04F03AF804F0CA
:10130000E9F8E0604346586804F0F0F904F010FA98
:10131000334A344B04F02DF804F0DCF820613868CF
:1013200004F0E4F904F004FA2F4A304B04F021F8F9
:1013300004F0D0F86061786804F0D8F904F0F8F9A6
:10134000294A2A4B04F015F804F0C4F8A061284B90
:10135000DA68E2611B692362336863627368A362BF
:10136000B368E3623021234804F0F4FB302221000B
:101370002800093004F088FA1F4804F0EBFB002431
:1013800010E01E4B1E4A3F211E4802F0D9FBFA21F5
:10139000890003F08FFD6DE72B19597A1A4804F084
:1013A000D9FB01342F2CF7D90A2004F06FFBE0BCE5
:1013B000BA46B146A846F0BD34210020CCCE00206C
:1013C000B01F0020C0CE0020BC0E00202421002031
:1013D00020E10020E82A00204B8F6B97E988E63E49
:1013E000CE535AE8D610C63E43A67E5EB7016F3F85
:1013F00098CE0020647301108473011008730110EB
:101400006875011024730110A073011070B59AB0B3
:1014100004F0ACFB10F0EEFF041E79D110F0B8FE22
:10142000BB4DBC49286806F011FFBB49BB4B18688F
:1014300007F0D2F82B68586802252840191DC022F1
:1014400092010A4315601D680F226A40CF252A4089
:1014500080256D012B431A608026B6013143086058
:101460000121122000F0AAF90121132000F0A6F9B1
:101470000121102000F0A2F90321042000F09EF9C0
:101480000321052000F09AF900220121042000F038
:10149000ADF900220121052000F0A8F90E2000F08E
:1014A00051FA0A2000F04EFA0B2000F04BFA0C2003
:1014B00000F048FA0D2000F045FA092000F042FA49
:1014C000112000F03FFAD0231B068021C901596288
:1014D000802292005A628020C00098628020000121
:1014E00098629D629E628020800258625861996174
:1014F0005A61FA20C00001F09FFC8949894804F034
:1015000029FB894804F0F6FA884804F0F3FA3EE033
:10151000874804F01FFB012040421AB070BD210033
:10152000844804F017FB36E07C4B1E6801F06CFD2C
:1015300002000B1E15DB8048002112184B41002BC6
:1015400015DB002B17DB029203930023009301337A
:1015500007AA2900300007F083F8002811DB77483C
:1015600020E0774B774A3F21774802F0E9FA0122E1
:101570005242764BE5E7724B724A3F21724802F0C5
:10158000DFFA73480EE0734804F0E4FA01347F2C6C
:1015900014DC2307C3D0E5B22800FFF74BFE002878
:1015A000C2D06B4804F0D6FAE217120FA1180F232D
:1015B0000B409B1A0F2BE6D06748E5E7674804F01D
:1015C00099FA674B1C685D6804A8FFF71DFE049A32
:1015D000059BA41A9D41002D49DBFA20C00001F0B3
:1015E0002BFC604C2100604804F0B4FA5F4B604A69
:1015F0006049200010F096FE002861D159495E48EC
:1016000004F0A8FA0920FEF7A5FEFA24A4002000A1
:1016100001F012FC11213E4B1868FEF7EFFE20008E
:1016200001F00AFC554C564B76223C4909682000D3
:10163000FFF7E8FA2000FFF793FBFFF735FC041EE5
:1016400063D05049FFF770FD002840D04E4804F0A9
:1016500051FA4E49206809F047FB4D4801F0ECFB78
:101660004C4A11212A4B1868FEF752FF43E04C22E6
:10167000002107A804F002F9474B002207A94748B8
:1016800013F06AFF011E03D1454804F033FAA4E7C2
:10169000444804F05FFA04A8FFF7B6FD424A00236D
:1016A0000498059912184B41002B07DB002B94DAA4
:1016B000234B244A3F21244802F042FA234BF5E70A
:1016C0002C4A2849394804F045FA012025E73848D2
:1016D00004F010FA012040421FE72000FFF7B8FD98
:1016E000344804F007FA61682000FFF7BBFCC8200B
:1016F000400001F0A1FB6368002BEED12000FFF752
:10170000A7FD2D4804F0F6F9F1E70120404204E777
:10171000BC0E0020404B4C00A0860100B80E0020FB
:1017200000C01F10C8730110F4730110047401107D
:10173000B47301103874011010270000AC7301104D
:10174000087301106875011024730110FFFFFF7FFB
:10175000A8730110FC710110B073011040740110E6
:10176000307E01107C7401108C7401103075000003
:1017700004004000A8740110D8740110B01F0020AC
:10178000A87001109210000018750110B910001017
:10179000B80B0000FE040000AD110010482100202D
:1017A000487401106074011080969800B4740110A0
:1017B000EC740110347501104475011010B58300EC
:1017C000084A944663441C6840226240C024144086
:1017D0008022520113431C60C000034B9C466044AE
:1017E000416010BD04C001400040014080000B4B2F
:1017F0009C46604400290DD00823002A0CD0042206
:101800001343026853400C221340802252011043BC
:10181000036070470023F0E70022F1E704C00140B5
:10182000002909D08000094B9C46604480239B011D
:1018300018430223036070478000044B9C466044B9
:10184000C0239B01184302230360F4E704C0014056
:1018500070B5D0231B061B689D00094C2C592042F3
:1018600007D19B002043064C18510D2000F0F2F9DF
:1018700070BD044B044ACC21044802F061F9C04613
:1018800094DE00208075011034760110AC750110D3
:1018900010B50400D0231B061B689B000A4A9B5806
:1018A00018420BD00D2000F0EFFAD0231B061B6866
:1018B00005499B005A58A2435A5010BD034B044A95
:1018C000D621044802F03CF994DE0020E4750110B2
:1018D00010760110AC750110072303409B00C0086F
:1018E00099403C308000014BC1507047004001409E
:1018F000F8B507000C0016001D00FFF7EDFFFB0810
:101900009B00ED180720384080008440002E04D052
:1019100080239B011D432C60F8BDC0239B011D4308
:101920002C60F9E710B5D0231B061B68002B03D0F1
:10193000024BFFF7DDFF10BD014BFAE730410140DC
:101940000041014010B501238340D022120693626A
:1019500093610521FFF732FF10BD0000034B1B68A8
:1019600002201840431E9841C0B2704700C0064094
:10197000EFF3108072B6034B1B68002BFBD0BFF354
:101980005F8F70472C0100D0BFF35F8F024B0022A6
:101990001A6080F3108870472C0100D0F8B506005B
:1019A0000C001500FFF7E4FFE308F718F15C0722CD
:1019B0002240012393400B4205D1DBB20B433B7025
:1019C000FFF7E2FFF8BD2100280002F053F9F0B55F
:1019D00083B00600019114001F00FFF7C9FF00E06B
:1019E0000134BC420CD8E308F518F35C0721214010
:1019F00001228A401A42F3D1D2B21A432A7001E07E
:101A000001246442FFF7C0FF002C02DB200003B07A
:101A1000F0BD019B002BF9D0089802F02BF90000D3
:101A200070B505000C00FFF7A3FFE308EE18EA5CB1
:101A300007210C400123A340134204D09A43327083
:101A4000FFF7A2FF70BD034B034A2C31034802F09D
:101A500077F8C04668760110C476011088760110C8
:101A6000002307E0054A9A189200BFF35F8F002118
:101A7000116001331F2BF5D97047C0464000003478
:101A8000054A1078431CDBB21370172B02D91300E0
:101A900010221A707047C046C00E002000B583B0F7
:101AA0000100044B00931F2318220348FFF78FFF08
:101AB00003B000BDD4760110F8200020074B9B68CE
:101AC000103080001950BFF35F8FBFF35F8F044B5E
:101AD0000021196082F310887047C04600ED00E0D5
:101AE000240100D01F23181A7047000010B5091AEE
:101AF000081F0A4B9C466144094A914208D8C30713
:101B000006D440104005400D064B184380B210BD6E
:101B1000054B064AA321064802F012F8FC07000014
:101B2000FE0F000000E0FFFFF07601105879011071
:101B30002077011010B5091A04394C08090B08D197
:101B40004905490D064A11430180064B2343438052
:101B500010BD054B054AAB21054801F0F1FFC04619
:101B600000F0FFFF00F8FFFF587701102C790110FB
:101B70002077011001238340034A10681840431E58
:101B80009841C0B27047C04600E100E0002904D08F
:101B9000034B1860034B18607047034B1860FBE75A
:101BA00080E200E000E100E080E100E010B5012308
:101BB00083401800FFF7EAFF10BD000001238340B7
:101BC000014A13607047C04600E200E0024B9B6888
:101BD00010308000C058704700ED00E010B5FFF7EE
:101BE000F5FF002805D0054BC01A2F2803D8012087
:101BF00010BD0020FCE70020FAE7C046C40E00201C
:101C000070B504000D00EFF3108672B60C4B1B6824
:101C1000002BFBD0BFF35F8F2000FFF7D7FF094BEE
:101C2000984201D0A84205D1320029002000FFF7D8
:101C300045FF70BD044B054A8621054801F080FF31
:101C4000240100D0CD010010687701108C790110BB
:101C500020770110F0B5DE4657464E464546E0B5C2
:101C600089B0814601911500EFF3108A72B6744B6A
:101C70001B68002BFBD0BFF35F8F724B0027DF5731
:101C8000002F40DB7C00E419A4006F4824180622D2
:101C9000A2566C4B1A706D4B9A684B4610339B00E2
:101CA000D35898461E001B1A2F2B38D9684B9845DD
:101CB0002FD105AE674B33807B009B46D81980003F
:101CC000614B9846404402306349FFF70FFF708034
:101CD000624BB380FF23B371F571019B07935F449F
:101CE000BF0047440ECE0EC701231C43A0465246F8
:101CF00041464846FFF7E2FE09B0F0BCBB46B2469B
:101D0000A946A046F0BD564B564AD721564801F089
:101D100017FF564B534ADE21534801F011FFC043D1
:101D200040440C2103F0C6F8002912D101239E4340
:101D3000B34633000026DA79AA4211D90621595652
:101D400000290CDB4A00521892001E003E4B9B18E3
:101D5000F1E7474B434AEA21434801F0F1FE1E00F8
:101D6000002E3AD005AB434A1A80813A5A800623A6
:101D7000F3560293002B17DA3F4805AB9B46988039
:101D8000029A9A71DD71019A0792301D2100FFF7C6
:101D9000ADFEB080B7717B00DB199B002A4FFF18A6
:101DA0005B4607CB07C7A2E77800C0198000264B27
:101DB000C0180430321DB388D90A1C2907D15B052D
:101DC0005915023149005118FFF790FED5E72B4B0A
:101DD0002B4AB121244801F0B3FE05AE1D4B3380E0
:101DE0007B000293D8198000174A904602004244B3
:101DF0000392901C1849FFF779FE7080039A101D1A
:101E00005946FFF773FEB0801E4B5A464146521AA0
:101E1000524153431B0DB371F571019A0792029B16
:101E20009C466744BF0047440ECE0EC7114B5A462E
:101E30001380813B538001231C43A04657E7C046D3
:101E4000240100D04DE10020C40E002000ED00E090
:101E5000CD01001000A1FFFFF40E002001BDFFFF27
:101E6000A07701107479011020770110C877011054
:101E7000F07701100148000001BD000064780110F6
:101E800064790110AAAA0000F0B5CE46474680B595
:101E900083B006000D00EFF3108872B6564B1B6836
:101EA000002BFBD0BFF35F8F544B9A683400103483
:101EB000A300D758524B9F4207D0AF4200D198E0C1
:101EC0000197504BFB1A2F2B09D94246390030009D
:101ED000FFF7F4FD03B0C0BCB946B046F0BD30001A
:101EE000FFF748FE814600213000FFF75FFEBFF399
:101EF0005F8FEFF30581002901D08C4211D10123BE
:101F0000019C9C430022A368AB4212D00622A25639
:101F1000002A0DDB53009B189B002200394CE4186B
:101F2000F1E73621384B394AFF31394801F008FED4
:101F30002200AB4256D106256557002D38DB6B00D9
:101F40005B199A002F4B9B189A68A260DA79E271AC
:101F500006229A56A2719B795BB2002B0FDA2D48AC
:101F6000A0806B005B199B00264AD3182A4A11787F
:101F70009971157049463000FFF718FEA5E7201D3E
:101F80006B005B199B001F4A9B181A1D9B88D90A7E
:101F90001C2907D15B055B15023359005118FFF767
:101FA000A5FDDDE71D4B1E4AB121194801F0C8FD12
:101FB000002912D1002A0ED0FF239371194B938070
:101FC000154A1378A371184B0E49641A6441634390
:101FD0001B0D1370CEE70A4FF2E7201D1349FFF7E0
:101FE000A9FDC7E76A21124B084AFF31084801F0F2
:101FF000A7FD034F69E7C046240100D000ED00E0D3
:10200000CD010010C40E00207C780110447901102D
:102010002077011001BD00004DE10020647801101F
:102020006479011001BDFFFFAAAA0000FE0E002086
:10203000B078011010B5032304009C43064A94466F
:10204000644422681840C000FC3383409A43130064
:1020500081400B43236010BD00E400E070B5012116
:1020600001432E4BCB1A2F2B28D8EFF30583002BDF
:102070002BD0EFF3108C72B6294A1268002AFBD0DD
:10208000BFF35F8F274A0400244D641B6441624301
:10209000120D54B2244A92689B00D2588A421BD037
:1020A0000022032A32D853009B189B001B49CB18EF
:1020B0009B795BB2A3421FD00132F2E7C7211B4BD1
:1020C0001B4A49001B4801F03BFD92211A4B184A5C
:1020D000FF31184801F034FD134A92681749D15076
:1020E000174B1A7882711C70BFF35F8F0C4B002264
:1020F0001A608CF3108870BD0D0053009918890088
:102100006918FF268E710F4A8A80E9E7D1210E4BAC
:10211000074A4900074801F013FDC046C40E0020DD
:10212000240100D0AAAA000000ED00E0B878011058
:102130001079011020770110E0780110CD01001016
:102140004DE1002001BDFFFFEC7801100022044B9F
:1021500002E0044902C30132072AFAD97047C04697
:1021600000E400E08080808010B5FFF7BBFC010038
:102170000148FFF755FC10BD59E1002000B583B0C0
:102180000100064B0093052300220548FFF71FFCC2
:10219000002801DB1F23181A03B000BDF4780110DA
:1021A00059E1002070B504000E001500FFF768FC2F
:1021B0000100200000F006F8A680E580BFF35F8FE5
:1021C00070BD0000024B9C4661448900016070476D
:1021D0004000003410B50400FFF752FC010020005D
:1021E000FFF7F0FFFF232371BFF35F8F10BD10B522
:1021F0000400FFF745FC01002000FFF7E3FFFF2389
:10220000237100236371BFF35F8F10BD034B9C46A6
:10221000614489000160BFF35F8F70474000003464
:1022200010B504000120FFF739FC01002000FFF782
:10223000EDFF10BD70B505000C00080000F0C0FFF8
:102240000949200000F000FFFFF71AFC074B9C46ED
:102250006044800068602C75D0231B061B786B756A
:10226000A400034BE55070BD7925001040000034F8
:10227000B0CE00200A4B1A68EFF3108172B61368D3
:10228000002BFCD0BFF35F8F054B1B68BFF35F8F44
:1022900000221A6081F3108840BF0020002170479F
:1022A000B8E0002010B5002922D003681B7B9942BA
:1022B0001ED8174B9C466144090183689C466144C3
:1022C0000C684968002A19D003681B7B9A4215D80C
:1022D00083680F488446624412019A181068536854
:1022E000020001208B4201D80ED00020C0B210BDE8
:1022F000084B094A3C21094801F022FC054B064ADB
:102300003C21064801F01CFCA242EFD8EDE7C04694
:10231000FFFFFF0F007B0110847D0110D07A0110B8
:1023200010B500291ED0037B99421BD84B005B18C7
:10233000033B0468A4466344002919D0002A1DD039
:10234000914221D0002A25D0047BA24222D80468E1
:1023500050008018033820188170197800291FD187
:102360001A7010BD104B114A6821114801F0E8FBAA
:10237000104B114A6F310E4801F0E2FB0F4B0E4A31
:1023800070210B4801F0DCFB0D4B0B4A7121084812
:1023900001F0D6FB044B054A6821054801F0D0FB4B
:1023A00041701A70DDE7C046247B0110047E0110E5
:1023B000407B0110847B0110E07D0110907B0110B7
:1023C0009C7B011070B506000D001400002914D08C
:1023D000002A14D0806873689847002806D022002D
:1023E00029003000FFF79CFF280007E02A002100A9
:1023F0003000FFF795FF200000E0100070BD0800DE
:10240000FCE70000F0B583B00500009201930AAB31
:102410001C780BAB1F78002C26D003685A7B9442A3
:1024200007D10123002B19D1002C3BD1200003B090
:10243000F0BD002C0CD01A7B944209D81A686300B6
:102440001B19033BD3189B78002BEBD00123E9E742
:102450003E4B3F4A68213F4801F072FB3E4B3F4AEA
:1024600067213F4801F06CFB03689C7B002CDBD0AC
:1024700012D01A7B94420FD862001219033A1968DD
:102480008C46624451789973002900D1D973002396
:10249000937053701370C7E72C4B2D4A68212D4859
:1024A00001F04EFB002C3AD02B681B7B9C4236D8A7
:1024B0002C4BE3181B01AA6894466344009A1A60E7
:1024C000019A5A60089A9A60099ADA602E68002C7C
:1024D0002BD030D0337B9C422DD863001B19033B9B
:1024E00032689446634400229A705A701A70717B65
:1024F00022003000FFF766FF7073844200D095E73A
:10250000287D009A019B00F0E7FD061E01D0002FF8
:1025100017D00C9B002B00D188E71E7086E7124B6A
:10252000124A3C210E4801F00BFB114B114AA52128
:10253000084801F005FB054B054A6821054801F0F4
:10254000FFFA2868210001F03DF8E2E7247B011042
:10255000047E0110407B0110B47B0110107E01103D
:10256000D07A0110FFFFFF0F007B0110847D011066
:10257000CC7A0110F47D0110F0B5DE4657464E4688
:102580004546E0B58BB00990002308938200B54B17
:10259000D658370052E0B44BB44A3F21B44801F05A
:1025A000CFFAB44BB44A3C21B44801F0C9FA00292F
:1025B00001D1002869D10021404600F0F9FFA04276
:1025C00019D12A686B6806920793AB689846EB6846
:1025D0009A464346002B14D0002C18D03B681B7B36
:1025E0009C4214D8631EFA68D35C08931B021843FC
:1025F0003861002015E0A24BA24A8E219F4801F0CD
:102600009FFAA14B9F4A92219C4801F099FA994B5D
:102610009E4A4121994801F093FA00239A46984630
:1026200000207B68BFF35F8F00221A6086F310885A
:102630004346002B32D1002800D10CE100F0E4FC2D
:1026400002000B1EA7DB002000210690079178688E
:10265000EFF3108672B601680029FCD0BFF35F8FDC
:10266000396888464C7B002CD7D09AD0097B8C42A5
:1026700097D8874965182D01B9688C466544286844
:102680006968801A9941002991DD2A686B68099868
:1026900000F022FD00239A469846C2E7089B1B02E1
:1026A0002343994651461800C04705000E007A683A
:1026B000EFF3108B72B6136859424B41D9B2002B1D
:1026C000F9D1BFF35F8F002E1EDB002E46DD3B6984
:1026D000002B47D04B456DD100F096FC02000B1E3D
:1026E0006EDB52197341002B70DB002B72DB002173
:1026F00004910131039102945146019141460091A8
:102700003800FFF77FFE4CE03B69002BDDD04B45E6
:1027100014D1069A079B521BB341002B14DB002BEC
:1027200016DB00210491013103910294514601917D
:10273000414600913800FFF765FE32E0554B514AA3
:10274000A1214E4801F0FCF901225242524BE6E72A
:10275000454B464A3F21464801F0F2F9002E01D18F
:10276000002DB4D13B68002C50D05A7B944237D115
:10277000012100294AD1DA7B002A4DD19A7B002A17
:1027800003D1DA7B002A5AD19C73DC73002C5CD015
:102790003B681B7B9C4258D8FA68013C135D0133AF
:1027A000135500233B617A68BFF35F8F13608BF38F
:1027B000108843E7374B334AA421304801F0C0F971
:1027C000294B2A4A3F212A4801F0BAF901225242F4
:1027D000314B8AE7244B254A3F21254801F0B0F9C7
:1027E000002C0DD01A7B94420AD862001219033AC9
:1027F0001868844662449278002ABAD00121B8E76A
:10280000264B274A6821274801F09AF9264B274A88
:10281000F621244801F094F9002A0AD0197B8A4253
:1028200007D851008A18033A19688C4662445470DC
:10283000A4E71A4B1A4A68211A4801F081F91C4B87
:102840001A4AFB21174801F07BF90A4B0F4A412134
:102850000A4801F075F90BB0F0BCBB46B246A94678
:10286000A046F0BDB0CE002008730110507D0110CD
:1028700024730110007B0110847D0110D07A0110B7
:10288000DC7B0110687D0110F47B0110BC7D011020
:10289000FFFFFF0F007C0110FFFFFF7F247B011073
:1028A000047E0110407B01103C7C0110D07D0110A2
:1028B000607C011010B50C4B5B68002B04D00A2122
:1028C0000A48FFF77FFC10BD074C2300084A10217F
:1028D000206800F05FFD032000F072FB0321200060
:1028E000FFF7A8FCEBE7C0460C0F0020B8E0002083
:1028F000A522001010B5064B5B68002B01D00448E0
:1029000010BD044B044A5E21044801F019F9C04689
:102910000C0F0020747C0110A47D0110D07A0110EE
:1029200070B50500182002F053FF040002000C49A6
:10293000280000F036FD20601021280002F066FF1C
:10294000A0600121280002F061FFE060012000F09A
:102950004BFB01002000FFF76DFC200070BDC0465E
:10296000A522001010B50400164B98421DD0037D1F
:102970009900154A8A5882421DD19B00124A0021B3
:102980009950006800F023FD207D002100F05CFBE1
:10299000207D00F021FBE06802F058FFA06802F003
:1029A00055FF200002F052FF10BD084B084AD3210A
:1029B000084801F0C5F8084B054AD721054801F041
:1029C000BFF8C0460C0F0020B0CE0020B078011038
:1029D000907D0110D07A0110987C0110F0B5DE4690
:1029E00057464E464546E0B58BB0804616001F0060
:1029F000149B9A46159B994616AB1B789B461F2342
:102A000002AA9446634400221A702BE0002809D0E1
:102A100042461268127B904204D8421E4146C96861
:102A20008A5C41E0404B414A4121414801F088F82D
:102A300007984CE0361BAF41002F07DB002F11DA5F
:102A40003C4B3D4A3F213D4801F07AF80126764251
:102A50003B4FF3E7374B384A3F21384801F070F8D5
:102A6000002F4FDB43465A68EFF3108472B61368A9
:102A700059424B41D9B20791002BF8D1BFF35F8F78
:102A80001F3302AA944663440493002303930293E2
:102A90004B4601935346009332003B004046FFF7FC
:102AA000B1FC031EB2D1020041464968BFF35F8FFB
:102AB00000250D6084F31088002B29D01F2302A964
:102AC0008C4663441B78002BB2D112021043002BBA
:102AD00020D05B46002B1DD04946D04704000D0096
:102AE00003000B431DD00029A4DB00F08DFA060083
:102AF0000F1EAFDB36196F41002FB1DA0126764287
:102B00000F4FADE70B4B0C4A3F210C4801F018F872
:102B1000012040420BB0F0BCBB46B246A946A046DD
:102B2000F0BD0798F6E7C046007B0110BC7D0110A0
:102B3000D07A011008730110507D01102473011028
:102B4000FFFFFF7FF0B589B005001F216944002019
:102B500008706868EFF3108772B601680029FCD02E
:102B6000BFF35F8F1F21694404910121039100216C
:102B700002910F9901910E9900912800FFF742FCF4
:102B80000400031E12D106006A68BFF35F8F0021A4
:102B9000116087F31088002B1CD01F236B441B7817
:102BA000002B13D13002204309B0F0BD002807D01C
:102BB0002A68127B904203D8421EE9688E5CE3E7E4
:102BC000064B074A4121074800F0BAFF287D00F074
:102BD00017FBE7E701204042E6E7C046007B011013
:102BE000BC7D0110D07A0110F8B50400002900D195
:102BF00062E04268EFF3108572B6136858424341B1
:102C0000D8B2002BF9D1BFF35F8FCBB22268567BCD
:102C1000B3421BD10120002848D0206988422BD024
:102C2000090AC9B2002B2ED02068007B83422AD823
:102C3000581EE668305C88422BD000206368BFF3E2
:102C40005F8F00221A6085F31088F8BD002B0DD02D
:102C5000167BB3420AD85E00F618033E1768BC46DE
:102C60006644B678002ED6D00120D4E7134B144A20
:102C70006821144800F064FF2C21134B134AFF31E4
:102C8000134800F05DFF134B134A4121104800F038
:102C900057FF1900100000F095FC0028CED19921B3
:102CA0000E4B0A4A49000A4800F04AFF23698B424A
:102CB000C4D100232361C1E70020C6E7247B0110B3
:102CC000047E0110407B0110C07C0110387D011092
:102CD000D07A0110007B0110BC7D0110E47C011052
:102CE000407D7047F0B587B006000F00EFF3058315
:102CF000002B1FD106246442E517A4197D418D42A3
:102D000002D803D1844201D900240025002D14DB10
:102D10000494059500F078F902000B1E13DBA41A49
:102D20009D41002D17DC14D03000390000F078F9F7
:102D300007B0F0BD234800F09DFF234B234A3F21FD
:102D4000234800F0FDFE204B204A3F21204800F0A0
:102D5000F7FE002CE8D0FFF7CDFD0023029301938E
:102D60001C4B0093049A059BFFF738FE002818DAE5
:102D7000DAE7002300E00023002BD5D1164B1A68B8
:102D8000EFF3108172B61368002BFCD0BFF35F8F96
:102D9000114B1B68BFF35F8F00221A6081F310880C
:102DA00020BF0499059A0D4B5B6A9A42E3D80B4801
:102DB000806A884203D29A42DBD00123DCE70123F8
:102DC000DAE7C046E87C011008730110507D01105D
:102DD0002473011075220010B8E000200040054067
:102DE00070B504000D0000F00FF902000B1E0ADBA5
:102DF000200029008018594100290ADB00290CDB3A
:102E0000FFF770FF70BD084B084A3F21084800F0EB
:102E100097FE012040420749F0E7034B034A3F2158
:102E2000034800F08DFEC04608730110507D01106C
:102E300024730110FFFFFF7F10B5FA2292000023D8
:102E4000002102F0D5FBFFF7CBFF10BD70B584B0B9
:102E500005000C00EFF30583002B1ED1FFF74AFDA0
:102E6000002302930193224B00932A002300FFF7D3
:102E7000B5FD061E23DD20BFFFF73CFD3100FFF747
:102E8000B3FE1C4B5B6A9C422DD81A4A926AAA4236
:102E90002CD29C4225D0012026E0164B5B6A994239
:102EA00009D8144A926A824207D2994201D001207D
:102EB0001AE0002018E0002016E0012014E00D4B7D
:102EC0005B6A9C4209D80B4A926AAA4207D29C428A
:102ED00001D0012008E0002006E0002004E00120ED
:102EE00002E0002000E0002004B070BD0120FBE7FC
:102EF0007522001000400540026843680849496A8D
:102F00008B4209D80648806A904207D28B4201D092
:102F1000012002E0002000E0002070470120FCE7D3
:102F2000004005400260436000487047F92E0010E1
:102F300070B5EFF305801038EFF3108C72B61A4BB2
:102F40001B68002BFBD0BFF35F8F0122130083406F
:102F500016494B6316490B60164909780C00C440AA
:102F6000224214D0114A546A8200134D525994429D
:102F700006D38200114C125999430E4B197007E089
:102F80000A4A031D9B0099589950002200E0002234
:102F9000BFF35F8F044B002119608CF31088002A67
:102FA00000D0904770BDC046280100D000400540C9
:102FB0003C70054058E10020D4E00020941E002021
:102FC00010B50100024A0348FEF7E8FC10BDC046F8
:102FD000387E011047E1002010B501000148FEF7DE
:102FE0001FFD10BD47E1002000B583B00100044B78
:102FF0000093032300220348FEF7E9FC03B000BD61
:103000005C7E011047E10020044B5B6A034A906A32
:103010001900536A9942F9D17047C04600400540F3
:10302000084B5B6A01E0074B5B6A8B42FBD301E014
:10303000044B5B6A8B4203D1024B9B6A8342F7D3FA
:103040007047C0460040054070B504000D00EFF326
:10305000108672B61B4B1B68002BFBD0BFF35F8F33
:10306000002D1CD02000FEF7B1FD174B83420BD082
:1030700019002000FEF7C4FD01212000FEF796FD97
:103080000123A340114A1360A400114BE550BFF384
:103090005F8F0C4B00221A6086F3108870BDA2006F
:1030A0000B4B0021D1500122A2400A490B789343D7
:1030B0000B7005492000FEF7E7FE00212000FEF717
:1030C00075FDE4E7280100D0312F0010386005407D
:1030D000941E002058E10020F0B5DE4600B584B013
:1030E0000400150001921E000293FFF78DFF039567
:1030F0008E4202D84ED185424CD9EFF3108B72B676
:10310000274B1B68002BFBD0BFF35F8F254A177836
:103110000125A540EBB23B431370234B5D63221D99
:1031200092000199D150A2002049029850501B6A88
:103130002B4212D11C4B1B6C2B4208D00020BFF33A
:103140005F8F174B00221A608BF3108823E0184B17
:10315000184AC521184800F0F3FCFFF755FF8E42CE
:1031600014D802D1039B834210D80E4B1B78BB426C
:103170000ED00D4B1D625D631F2004400123A34050
:103180000E4A1360074B1F701E38D8E70020D6E7A1
:103190000120D4E7012004B080BCBB46F0BDC0468E
:1031A000280100D058E1002000400540D4E0002074
:1031B000707E0110D07E0110947E011080E200E04C
:1031C000EFF3108C72B60B4B1B68002BFBD0BFF3D8
:1031D0005F8F01238340084A136208490A789A43A3
:1031E0000A70BFF35F8F034B00221A608CF31088C4
:1031F0007047C046280100D00040054058E100203B
:10320000EFF3108C72B60B4B1B68002BFBD0BFF397
:103210005F8F01238340DAB20749087802430A70BE
:10322000BFF35F8F034A002111608CF31088034ABB
:1032300013607047280100D058E100203C60054031
:1032400010B500291ED0037B99421BD84B005B1898
:10325000033B0468A4466344002919D0002A1DD00A
:10326000914221D0002A25D0047BA24222D80468B2
:1032700050008018033820188170197800291FD158
:103280001A7010BD104B114A6821114800F058FC0B
:10329000104B114A6F310E4800F052FC0F4B0E4A92
:1032A00070210B4800F04CFC0D4B0B4A7121084873
:1032B00000F046FC044B054A6821054800F040FC3C
:1032C00041701A70DDE7C046247B0110D07F0110E9
:1032D000407B0110847B0110BC7F0110907B0110AA
:1032E0009C7B011070B506000D001400002914D05D
:1032F000002A14D0806873689847002806D02200FE
:1033000029003000FFF79CFF280007E02A00210079
:103310003000FFF795FF200000E0100070BD0800AE
:10332000FCE7000010B50023437301338373037B74
:10333000C3730123027B9A4214D9002B0CD0027B69
:10334000934209D85A00D218033A01688C46624465
:103350000133DBB25370EDE70B4B0C4A68210C488C
:1033600000F0EEFB002A09D0924207D80168530012
:103370009A18033A8A180023537010BD024B034A6F
:103380006821034800F0DCFB247B0110D07F011092
:10339000407B011010B5017342608360FFF7C2FFEC
:1033A00010BDF8B505000E0017001021012002F035
:1033B0002DFA04000321280002F028FA20603B00C7
:1033C000320029002000FFF7E5FF2000F8BD10B50E
:1033D0000400006802F03AFA200002F037FA10BD4B
:1033E00070B50400081E00D170BD002934D0237BC5
:1033F000994231D84B005B18033B226894466344E2
:103400005A78002AF0D02DD0237B9A422AD8530034
:103410009B18033B21688C4663445D7800215970FA
:10342000002825D0237B984222D843001B18033B59
:1034300021688C4663440021597001002000FFF789
:1034400051FF060029002000FFF7CAFF02003100EB
:103450002000FFF747FFC7E7084B094A68210948E2
:1034600000F06EFB054B064A6821064800F068FB39
:10347000024B034A6821034800F062FB247B0110E1
:10348000D07F0110407B011070B505000C001600C4
:1034900000292FD034D0037B994231D84B005B18E0
:1034A000033B0268944663445A78002A2ED19A78E6
:1034B000002A31D11978FFF793FF0300002E0AD0BC
:1034C000EA7B002A2ED1AA7B002A03D1EA7B002ABC
:1034D0003BD1AC73EC73002B3DD1002C4FD02B7B38
:1034E0009C424CD82B6861000C19033C1C1900232A
:1034F000637070BD254B264A3821264800F020FB1A
:10350000254B264A6821264800F01AFB254B204A05
:103510003A21204800F014FB234B1D4A3B211D4853
:1035200000F00EFB002A0AD0297B8A4207D85100FE
:103530008A18033A29688C4662445470C3E7164BD4
:10354000164A6821164800F0FBFA184B104A42212F
:10355000104800F0F5FA002B0BD02A7B934208D8D4
:1035600043001B18033B2A689446634400229A7068
:10357000B3E7094B094A6821094800F0E1FA064B14
:10358000064A6821064800F0DBFAC046EC7E0110CE
:10359000A87F0110F47E0110247B0110D07F011060
:1035A000407B0110247F01104C7F0110607C0110D2
:1035B00070B504000A00457B2900FFF765FF6073C2
:1035C000280070BD70B50400002967D0437B8B4292
:1035D0000ED0002911D0037B99420ED84B005B1806
:1035E000033B0268D0188378002B0CD1002056E0F2
:1035F0000121FFF7DDFF012051E0294B294A682115
:10360000294800F09DFA002B20D0227B93421DD840
:103610005A00D318033B2268D2182568EB5C8B4212
:103620001AD0002B1BD0227B934218D85A00D318F3
:10363000033B2268D21853788B4216D0002BF0D16E
:103640001A4B1B4A6B211B4800F07AFA144B154A9F
:103650006821154800F074FA4378137007E0104BA6
:10366000104A6821104800F06BFA43785370002329
:103670008370437001222000FFF706FF0200617B88
:10368000814205D02000FFF72DFE6073012006E087
:10369000094B074A7121074800F052FA002070BD1B
:1036A000247B0110D07F0110407B0110EC780110C9
:1036B000907F0110F47E0110707F0110F8B5DE4696
:1036C00057464E464546E0B505000F0092460A9A19
:1036D000934250D31A0E91461E020A9A00233000DC
:1036E000494601F025FC80466C006419A400304B6B
:1036F0009C4664446368834200D260602B1FDBB247
:103700009B46012B3DD9C0239B01234380221201FC
:103710001A60AB00274A9958002907D0506901F078
:10372000C9FB431C5800C0180338FDD253465A0148
:1037300023685A40E0231A4080235B0123431A6028
:103740005A46012A28D980239B0123438022120153
:103750001A6043466360424600233000494601F048
:10376000E7FBAD00134B58510120F0BCBB46B246FD
:10377000A946A046F8BD104B104A3321104800F06E
:10378000DFF9012FBFD1C0239B01234303221A601D
:10379000A368DB07FCD5C9E72168794003220A400A
:1037A0001A60A2680123BB401342FAD0CBE7C0469F
:1037B00000800040FC200020DC7F01102C800110E4
:1037C000F07F011030B583B00C2000F011F9FEF746
:1037D000C5F800280DD0002304E099002D4A2E489A
:1037E00088500133092BF8D92A4B2C4A5A6203B06E
:1037F00030BD2B4B00229A6700F06CF9294B012257
:103800001A60274B5B6C012BFBD1274B03221A60FC
:10381000234B9B6B012BFBD1013300930433234AD1
:103820000121234800F054F805230093214A012187
:10383000214800F04DF8214B009300220221042082
:10384000FFF73CFF1E4D00952B00002201210520B3
:10385000FFF734FF104C00942300002200210720C2
:10386000FFF72CFF00942300002200210820FFF71F
:1038700025FF0A4B00932300002200210920FFF7B7
:103880001DFF00952B00002200210620FFF716FFE8
:10389000ADE7C046FC200020006CDC021BB7000036
:1038A000008000403CB0004030B00040002F68591C
:1038B00000800240008C864700C00240001BB70019
:1038C000405973078000014BC0587047FC2000200E
:1038D000F0B5C64600B504000E0017001D003748BD
:1038E00001F0E8FA8046364BFA18364B9A4239D83E
:1038F0000100380001F0DEFA0200103A98235B0064
:103900009A4235D86B1E062B38D8069B013B062BF6
:1039100034D83F09474537D32D04069B1A03154376
:103920002368002B36DB284B9C4244D08022520176
:10393000264B1A60264B1A60264B9B681100994350
:10394000FAD12660A060231DC02292011A432123D0
:1039500013602368002BFCDAE5600823136080BC49
:10396000B846F0BD1C4B1D4A11211D4800F0E8F877
:103970001C4B1A4A19211A4800F0E2F81A4B174A50
:103980001C21174800F0DCF8184B144A2321144876
:1039900000F0D6F822683F231340B342C3D1A36896
:1039A0001B051B0D8342BED1E368EE22D2021340F9
:1039B000AB42B8D1D3E780229201B9E7001BB70030
:1039C00080E84BD380F8A93200C0024000E00040FC
:1039D00000F0004000C000403C8001105881011000
:1039E0009C800110D4800110F08001103C810110F6
:1039F00080239B000343014AD36270470080054047
:103A0000024B1A68024B5A607047C046803400204F
:103A10000080054010B50200164B8020C0051860DC
:103A2000154B1648186000290AD0154BE021C9042F
:103A30001960002A09D1124B802212061A6010BDAB
:103A40000C4BE021C9041960F3E753019B1A98005D
:103A5000801800010B4B186080235B04984202D34E
:103A6000084B094A1A60FFF7CBFF054B8022D205AD
:103A70001A60E4E700B0054008200140FCFF0100A7
:103A800000A0054080340020FFFFFF0010B50300B8
:103A900010000C4A8024E4051460002B0DD0012294
:103AA0001343094A094CD461094C5C4014625162C9
:103AB00093620021FFF7AEFF10BD034B0022DA61D5
:103AC000F7E7C04600B0054000800540D3C007B00E
:103AD0002D3FF84F064BAA2212011A602F22DA60FE
:103AE000044B054A1A60024B5B68002BFBDA7047F7
:103AF000004002400060024000B0FA0000BEFDE756
:103B000003000A4A1268002A08D0084A1068C3183D
:103B1000074A9A4206D3054A13607047034A05498B
:103B20001160F2E701204042F7E7C0464C30002028
:103B3000000004205CE1002010B5FFF7DFFF00006B
:103B400010B582B00C001900002A0CD0084B002AD6
:103B50000BD00192009323000200064801F0FAFF07
:103B60000120FFF7CBFF044BF1E7034AF1E7C04622
:103B70006481011074810110F073011070B52B4B3A
:103B80002B4A1A602B4B2C4A1A602C4B9A682A4BF2
:103B90009343FAD12A4C01E008CC9847294B9C4228
:103BA000FAD3FFF70FFE234B274A1A60234B9B687B
:103BB000DB43DB01FAD1254B40229A675A671A672B
:103BC000DA66234C09E0234B234A87212348FFF779
:103BD000B7FF2000FEF7FEFA0834214B9C4209D2C1
:103BE0002368002BF5D0012BEDD12000FEF7FFFA62
:103BF0000834F2E71B4CA1681B4DC022280001F0DD
:103C000043FEA560EFF30583002B00D000BEFDF757
:103C100027FFFEF79BFAFEF74DFE144C01E008CC9F
:103C20009847134B9C42FAD370BDC04600E0004059
:103C3000BFCDFBFE00F00040FE7F3C0000C0004016
:103C40005818002068180020FFFFFF0100F0014015
:103C500048180020A481011020820110C4810110A5
:103C60005818002000ED00E0000000206818002037
:103C7000701800200FB400B583B0084801F03AFF77
:103C8000049B002B07D005A90191180001F042FF09
:103C9000034801F02FFF0120FFF730FF00820110E1
:103CA000FC71011010B50148FFF7E4FF108201100C
:103CB000704710B5002802D00B684968984710BDBE
:103CC0000100002007E083001B185B00501C086007
:103CD0001078C01830380A681378303BDBB2092BF3
:103CE000F1D97047F0B5DE4657464E464546E0B539
:103CF00083B093461F000C9B9A460D9C0E9B9946E1
:103D00000F9B9B0703D0B8460F00060022E00192EC
:103D1000A34688464E46B9460700B44207D2551C12
:103D20004B4641462020B84701342A00F5E73D00C4
:103D30004F465C46019B9B46B1464646B846370017
:103D40002E0007E0013C551C5346185D43463900E0
:103D5000B0472A00002CF5D135003E0047460F9BA6
:103D60009B0707D4100003B0F0BCBB46B246A9467F
:103D7000A046F0BDB0464E46B9462F005D46531BE7
:103D8000B342EFD2541C4B4641462020B847220094
:103D9000F5E7F0B5CE46474680B585B094469846DF
:103DA0000C9D0D9C0EAB1B789946109A119B129E90
:103DB000B7071CD4002B0CD0F7070AD54F46002FAD
:103DC00002D10C37374204D0013B02E030272F5597
:103DD0000134944201D21F2CF8D9F70707D59C4231
:103DE00005D21F2C03D830272F550134F5E7F706ED
:103DF00015D5770505D4002C03D0944224D09C42DD
:103E000022D00F9A102A2BD00F9A102A30D00F9A56
:103E1000022A35D01F2C02D830222A5501341F2CFB
:103E200005D84A46002A31D02D222A55013403965E
:103E300002930194009543466246FFF753FF05B095
:103E4000C0BCB946B046F0BD621E012C06D00F9F23
:103E5000102F01D01400D4E7023CD2E71400D0E7C1
:103E6000B206D1D41F2CCFD878222A550134D1E7FD
:103E7000B206CCD51F2CCAD858222A550134C9E71E
:103E80001F2CC7D860322A550134C3E7720703D507
:103E90002B222A550134CAE73207C8D520222A55D9
:103EA0000134C4E7F0B5DE4657464E464546E0B518
:103EB00093B081468A46089209931CAB10CB1B78BD
:103EC0009B461E9D219B9846002C03D11023424601
:103ED0009A4390468023DB0046461E4042461A42E3
:103EE00012D0002C22D000260EE03033D9B2771C3D
:103EF0000AAB99552900200000F0DCFFAC4216D334
:103F00001F2F14D83E0004002900200000F0D2FF2B
:103F1000CBB2092BE9D94246920605D54121C918F1
:103F2000C9B20A39C9B2E2E76121F8E7270043467E
:103F30000693209B05931F9B049303955B46029376
:103F400001970AAB0093099B089A51464846FFF730
:103F500020FF13B0F0BCBB46B246A946A046F0BD58
:103F6000F0B5DE4657464E464546E0B595B008905A
:103F700009910A920B931E9E1F9C20AB1B789B46B7
:103F8000229B9946239D269B9A463300234303D1C7
:103F9000103352469A4392468023DB0057461F4017
:103FA00052461A4219D0330023432DD0002714E083
:103FB0003033DAB27B1C98460CABDA554A462B00FC
:103FC0003000210000F0B4FFA5421FD819D04346AD
:103FD0001F2B1BD8474606000C004A462B0030001A
:103FE000210000F0A5FFD3B2092BE1D95246920679
:103FF00005D54122D218D2B20A3AD2B2DAE761220A
:10400000F8E7B145E3D901E000239846534606930B
:10401000259B0593249B04934B4603935B46029395
:10402000434601930CAB00930B9B0A9A099908989D
:10403000FFF7AFFE15B0F0BCBB46B246A946A0469E
:10404000F0BD0000F0B5DE4657464E464546E0B5A9
:1040500091B083468A460C9298461A9C08941B9D00
:10406000099522002B002000290001F0DCF900282E
:1040700000D0E5E001225242D74B2000290001F098
:10408000CDF9002800D0DBE001225242D34B2000C2
:10409000290001F0ADF9002800D0D1E00022002372
:1040A000089E3000099D290001F0A2F9002800D0E7
:1040B000DDE008980999069007918023DB001E9A9D
:1040C0001A400D921E9A1A4201D106231C9306989B
:1040D000079904000D000A000600024300D1D1E058
:1040E000080D4005400DBE4CA44660440A03120B67
:1040F000BC4B13431F0001F0A9F9BB4ABB4B01F0B5
:1041000038F9BB4ABB4B01F015F904000D00002241
:10411000B94B3000390001F008F9B84AB84B01F04A
:1041200028F902000B002000290001F003F901F03A
:10413000A5F9814601F08AF904000D00B14AB24B9D
:1041400001F017F90022B14B01F0F4F801F096F9F3
:104150000600AF4AAF4B2000290001F00AF9040025
:104160000D00300001F072F9AB4AAC4B01F001F9DF
:1041700002000B002000290001F0D7F804000D0018
:1041800002000B0001F0F5F80A900B91A44BF31814
:1041900000261F0522002B002000290001F0CAF88C
:1041A0000E900F9122002B0000208021C90501F004
:1041B000BCF804000D0000229A4B0A980B9901F0FC
:1041C000BEF80022984B01F0B5F802000B000A98E7
:1041D0000B9901F0B4F80022944B01F0ABF8020007
:1041E0000B000A980B9901F0AAF802000B002000BE
:1041F000290001F09FF802000B000E980F9901F0C2
:104200009EF80022774B01F095F832003B0001F058
:10421000B0F806000F0004000D00069A079B01F09D
:10422000FDF8002830D001235B429C46E144002287
:104230007D4B3000390001F082F804000D0023E0CE
:104240001E9B04931D9B03931C9B0293089A099B3E
:104250000092019343460C9A5146584600F0FCF8F0
:1042600011B0F0BCBB46B246A946A046F0BD002343
:10427000002406930794069680231B069C466544FB
:1042800007951AE7002399464B466333C62B1ED881
:1042900004261E9B1B0526D52B0023430FD0644A02
:1042A000644B0698079901F0B1F8002879D00022F4
:1042B000614B0698079901F09BF8002871D01C9B70
:1042C0004B4506DD4A46981A431E1C9303E005261B
:1042D000DFE700231C938023DB001E9A1A431E9203
:1042E0000026002399461D9B9E4264D29F1B0223F9
:1042F0001E9A1A400A921E9A134202D0002E00D033
:1043000000274B46002B07D022002B000698079968
:1043100001F015F8069007910022002308980999EA
:1043200001F066F8002848D1444B1E9A13400493CC
:1043300003971C9B0293069B079C009301944346A2
:104340000C9A5146584600F087F8002E00D187E7B6
:104350001E9B9B063DD54525441C43460200514605
:104360002800D8474B46DA179B1853400522059280
:10437000013E0496002203920A3202924A46D00F6E
:10438000019000934346220051465846FFF78AFDAC
:104390000A9B002B00D163E702005F460C9E1D9D27
:1043A00054E01C9B002B9ED00D9B002B9BD01C9B94
:1043B000013B1C9397E7002799E7069C079D220085
:1043C000290080200006844661440B000692079372
:1043D000AAE76525C0E7C046FFFFEF7FFFFFEFFFBD
:1043E00001FCFFFF0000F03FFB799F501344D33FD7
:1043F000B3C8608B288AC63F0000F83F61436F63F3
:10440000A787D23F71A379094F930A400000E03F8C
:104410001655B5BBB16B0240EF39FAFE422EE63FAE
:10442000FF03000000002C40000024400000184062
:104430002D431CEBE2361A3F80842E41FFF7FFFF2D
:10444000541C434651462020B8472200931BAB42E0
:10445000F6D3100004E7C046F0B5DE4657464E4698
:104460004546E0B595B00690079193469946209F42
:104470001E9A1F9B1000190000F0D5FF002831D1B3
:1044800001225242BF4B1E981F9900F0B1FF002835
:1044900037D101225242BC4B1E981F9900F0BEFF3B
:1044A00000283DD10022B94B1E981F9900F0B6FF9D
:1044B000002850D10022B64B1E981F9900F098FF9B
:1044C000002848D1002200231E981F9900F090FF79
:1044D000002850D100239846229B5B0500D4B6E00B
:1044E000002458E0229B0393219B02930323019312
:1044F000A84B00934B465A4607990698FFF7F2FBE4
:104500000EE1229B0393219B029304230193A24B70
:1045100000934B465A4607990698FFF7E3FBFFE0E6
:104520000423229A1A4022990B4210D09B4B002A56
:104530000FD00422229903912199029101920093B4
:104540004B465A4607990698FFF7CCFBE8E0944B98
:10455000EDE70322EEE7229B0493219B039302974E
:104560001E9B1F9C009301944B465A460799069840
:10457000FFF768FDD4E01E9A1F9B0020002100F089
:10458000D4FE1E901F9101239846A5E70CAB302264
:104590001A55013F01341F2C01D8092FF6D81E9857
:1045A0001F9900F06BFF050000F050FF02000B00A8
:1045B0001E981F9900F0B9FEFA007A4B9B181A68F2
:1045C0005B680A920B9300F0D4FE0890099100F00A
:1045D00079FF060000F036FF02000B0008980999E9
:1045E00000F0A3FE0890099100226F4B00F016FF27
:1045F00000282ED00136300000F024FF02000B000E
:104600000A980B9900F0FAFE002801D00135002627
:10461000002F2CD1280000F019FF02000B001E987B
:104620001F9900F082FE06000F0000225E4B00F092
:10463000DFFE002846D100225B4B3000390000F03D
:10464000EDFE00283ED1EB073CD501353AE00627C8
:1046500046E70022544B0898099900F0C9FE00284B
:10466000D6D1002E01D0F307D2D50136D0E7AA4625
:104670001F2C11D8013F0A21300000F01BFC651CE3
:1046800030310CAB19550A21300000F013FC092E13
:104690000ED906002C00EBE755461F2C0CD87B1ECC
:1046A000002F09D00CAA302111551F000134F4E766
:1046B0002B0055461C00F0E71F2C03D80CAB2E2214
:1046C0001A5501341F2C10D80A21280000F0CAFB0B
:1046D000661C30310CAB19550A21280000F0C2FBD2
:1046E000051E01D03400EDE734000323229A134065
:1046F000012B1CD01F2C06D84346002B32D00CAB0C
:104700002D221A550134229B0393219B029301947D
:104710000CAB00934B465A4607990698FFF7E2FA0E
:1047200015B0F0BCBB46B246A946A046F0BD219BE1
:10473000002B13D04346002B02D10C3313420FD071
:10474000219B013B2193190003E00CAB30221A5549
:1047500001348C42CED21F2CF7D9CBE72199F8E750
:104760002199F6E7229B5B0704D50CAB2B221A5547
:104770000134C8E7229B1B07C5D50CAB20221A5574
:104780000134C0E7FFFFEFFFFFFFEF7F65CDCD41B5
:1047900065CDCDC13C8201104082011034820110F0
:1047A00030820110288401100000E03FF0B5DE46A1
:1047B00057464E464546E0B593B082468B469046F6
:1047C0001193002900D1EBE200275546119B187880
:1047D000002800D1E7E2252809D07C1C43463A0096
:1047E0005946A847119B013311932700EEE7013387
:1047F00011930024119A11780B00203BD8B2102895
:1048000003D88300D048C3589F460B00303BDBB22F
:10481000092B2CD92A292FD000230A93119B1A780F
:104820002E2A39D000239A46119A1378683BD9B2C0
:10483000122976D88B00C549CB589F4601231C43CB
:1048400001321192D6E702231C4301321192D1E7C3
:1048500004231C4301321192CCE708231C4301328C
:104860001192C7E710231C4301321192C2E711A82D
:10487000FFF726FA0A90D1E71C9B1A1D1C921868B4
:10488000002804DB0A90119B01331193C6E7022331
:104890001C4343420A93F6E78022D20014435A1C79
:1048A00011925A781300303BDBB2092B04D92A2A23
:1048B00007D000239A46B7E711A8FFF701FA82460E
:1048C000B2E71C9B1A1D1C921868002804DB824664
:1048D000119B01331193A7E70020F8E780235B00C9
:1048E0002343511C119152786C2A01D01C0018E00E
:1048F000C0239B001C430131119112E0802323430C
:10490000511C11915278682A01D01C0009E0C02383
:104910001C430131119104E080235B001C430132F0
:104920001192119B18780300253BDAB2532A00D963
:104930002CE29300864AD3589F4680239B001C4359
:1049400001321192EDE780235B001C43013211928A
:10495000E7E7782809D0582838D06F2838D062285F
:1049600038D010239C430A2600E01026582833D064
:10497000692803D0642801D00C229443630501D533
:104980000122944369282AD0642828D0A30500D5A1
:104990009FE0E30500D5B8E0630600D4CAE01C9AA6
:1049A000111D1C911168FF220A4005940A9B049373
:1049B00053460393029600230193009243463A0024
:1049C00059462800FFF76EFA070027E01026CDE7CA
:1049D0000826CBE70226C9E720221443C8E7A3052F
:1049E00020D4E30550D4630666D51C9A111D1C9192
:1049F0001168FF220A40D317D118594005940A9B29
:104A00000493534603930296D20F019200914346BA
:104A10003A0059462800FFF745FA0700119B013379
:104A20001193D3E61C9BDA1D07218A43110008313C
:104A30001C91116853689C46DB170C930D930C9ADC
:104A40000D9B100048400E90624653400F930E9805
:104A50000F990C9A0D9B801A99410E900F91089412
:104A60000A9B0793534606930496002305936346D7
:104A7000DA0F02920090019143463A00594628000D
:104A8000FFF76EFA0700C9E71C9A111D1C91126806
:104A9000D317D118594005940A9B049353460393A6
:104AA0000296D20F0192009143463A0059462800DF
:104AB000FFF7F8F90700B1E7230605D51C9A111D89
:104AC0001C910023D25E96E71C9A111D1C9112685E
:104AD00091E71C9BDA1D07218A43110008311C91C4
:104AE00008940A9B07935346069304960023059364
:104AF0000293136854680093019443463A00594660
:104B00002800FFF72DFA070088E71C9A111D1C9159
:104B100005940A9B04935346039302960023019342
:104B20001368009343463A0059462800FFF7BAF944
:104B3000070073E723060DD51C9A111D1C911268FE
:104B40001204120C31E7C046488201108C82011019
:104B5000D88201101C9A111D1C91126825E7462865
:104B60001AD01C9B0733072293431A0008321C9269
:104B700004940A9A0392524602925C681B6800935E
:104B8000019443463A0059462800FFF765FC0700A8
:104B9000119B0133119319E620231C43E1E7672899
:104BA00001D0472802D180231B011C43452801D096
:104BB000472801D120231C431C9B07330722934322
:104BC0001A0008321C9204940A9A039252460292E6
:104BD0005C681B680093019443463A0059462800DC
:104BE000FFF730FA0700119B01331193EEE5022322
:104BF0001A002240924623421FD001241C9B1A1DFA
:104C00001C927A1C9146187843463A005946A847A8
:104C10005346002B16D1119B013311934F46D5E516
:104C2000561C434659462020B847230032005C1CDE
:104C30009D42F5D83D001700E0E701233A002F0020
:104C40000A9DF4E74A46A9460A9D06E0571C4346DA
:104C500059462020C84734003A00661CA542F5D8C2
:104C60004D469146D7E71C9B1A1D1C921B6899461E
:104C70005346002B00D1013B4E4601E001361300A4
:104C80003278002A02D05A1E002BF7D14B46F21A76
:104C900010928023DB0026001E401C4203D05245A8
:104CA00001D95346109302231A0022400B9223424B
:104CB00005D03A0037004C46A946554620E03A0058
:104CC000109B5F46B3462E0006E0551C4346390054
:104CD0002020B04723002A005C1C0A999942F4D88E
:104CE00035005E46BB46109437004C46A9465546F3
:104CF00006E01D000134561C43465946C8473200A1
:104D00002078002804D0002FF4D06B1E002DF0D1A5
:104D100017004D460B9B002B03D1119B01331193C0
:104D200054E50A9F109B06E0561C43465946202036
:104D3000A847230032005C1C9F42F5D81700ECE71F
:104D400021231C431C9B1A1D1C921B680093059475
:104D500008230493534603931023029300230193E3
:104D600043463A0059462800FFF79CF80700119B7C
:104D7000013311932AE57C1C43463A00594625200D
:104D8000A847119B0133119327001FE57C1C434664
:104D90003A005946A847119B01331193270015E5A6
:104DA0000A4B9A4610E5AA46474502D343465A1E87
:104DB00000E03A00434659460020D047380013B07F
:104DC000F0BCBB46B246A946A046F0BDB13C0010BF
:104DD00000B585B0029003910121009313004A426F
:104DE00002A90248FFF7E2FC05B000BDB33C001089
:104DF00001480421014B1847400F00202D4E0010A0
:104E0000014B9B6818470000400F002010B50100BF
:104E100018231B8814221088984710BD10B5010074
:104E200018231B8816221088984710BDF0B5C64677
:104E300000B507000E0000250123984600E001356B
:104E4000B5420AD2AC003C192068FFF7DFFF2060B2
:104E50000028F4D100239846F1E7404680BCB846CC
:104E6000F0BD0000124A936F9B0815D29066D16680
:104E7000002905D0FFE7FFE7FFE7516F106F70478C
:104E800004B580210906C2175140002800D0C8434C
:104E900012F07EF8002104BDF0B5146E556E576F08
:104EA000166FFFF7E3FF1466556657671667F0BD88
:104EB000000000D0114A936F9B0813D21066516610
:104EC000002905D0FFE7FFE7FFE7516F106F70473C
:104ED00004B5002801D00020C04312F059F8002189
:104EE00004BDC046F0B5146E556E576F166FFFF7D0
:104EF000E5FF1466556657671667F0BD000000D0E1
:104F000094464A4A926F9208624601D228E0C0460F
:104F1000F0B5464E346E756E776F366F00F020F840
:104F20009446424A14665566576716676246F0BD56
:104F300094463E4A926F9208624601D254E0C046BF
:104F4000F0B53A4E346E756E776F366F00F04CF8F0
:104F50009446364A14665566576716676246F0BD32
:104F6000002B24DB11D000293EDA00B5C9434042B2
:104F700000D1013100F038F8C943404200D101317D
:104F8000DB43524200D1013300BD002AEBD100289F
:104F900001D1002905D00020C90FC90701D1C043A4
:104FA000410800B511F0DCFF0022002300BD00B570
:104FB00000290ADBDB43524200D1013300F014F830
:104FC000C943404200D1013100BDC943404200D134
:104FD0000131DB43524200D1013300F005F8DB43DD
:104FE000524200D1013300BD002923D1002B18D13A
:104FF000002A0CD0BC460D4F38667A66002100238B
:10500000FFE7FFE7FFE77A6F386F674670470028D2
:1050100001D00748010000B511F0A2FF00220023D3
:1050200000BD02000B00002000217047000000D0EE
:10503000FFFFFFFF002B00D0BFE0130C28D1002A98
:10504000E7D080B4114F39667A66FFE7FFE730B4E6
:10505000040C7B6F396F1B0423433B667A66FFE7C2
:10506000FFE7FFE7C04684B27B6F3D6F1B0423431D
:105070003B667A66FFE7FFE7C04600232C042D0C51
:105080007A6F386F00196941B0BC7047000000D0DA
:10509000F0B594460025140E01D112020835140F04
:1050A00001D112010435940F01D192000235D40FC1
:1050B00001D152000135D40B0134254F7C66254CBB
:1050C0003C660E0C93B2FFE7FFE7FFE73C6F6643D9
:1050D000360C7703BE467343DF0B5B04C01AB9413D
:1050E000130C7343DB18C91ACE086643360CB6445A
:1050F00093B273431F0F1B01C01AB941130C7343C2
:105100001F0B1B05C01AB941860D8F023E43664333
:10511000360C092D24DB520A7243801A7703460AA3
:105120006643360C16235B1BDE40DF40BF19644626
:105130006643821B7046043506330100D940A840FF
:10514000C01900D30131A24206D20023F0BD0000F5
:10515000000000D0FFFFFFFF121B0130F3D3F1E787
:1051600009277F1BFE406446A2B27243801A00D218
:105170000139220C7243130C1204821A99410B005C
:105180007046043513370100F940A840801900D358
:105190000131002B02D1A2420AD2F0BD013000D36E
:1051A0000131121BFAD2013BF8D1A24200D2F0BD6C
:1051B000013000D30131121BF7E7F0B51C0C00D011
:1051C00080E00CB400251C0A04D11B02160E3343E8
:1051D000120208351C0B04D11B01160F33431201B8
:1051E00004359C0B04D19B00960F3343920002358B
:1051F000DC0B02D192185B4101351C009718644109
:105200000134464F7C66464C3C660E0CFFE7FFE7D8
:10521000FFE7C0463C6F6643360C7703BE4697B245
:105220007743C01B00D20139C01B00D201399FB2A5
:105230007743C91BC91B170C77437E04FF0B801BE8
:10524000B941CE086643360C0C2D33DBB644120B45
:105250001F053A431B0B97B27743C01B00D201399D
:105260009FB27743C91B170C77433E043F0C801B4A
:10527000B941860D8F023E43664329277F1BFE40BE
:105280000C3D7746AF40BF1930BCA2B2ABB27243FF
:105290007343801A9941220C7243130C1204801A32
:1052A000994102000B000137001BA941F9D2781E79
:1052B0000021F0BD0C277F1BFE4077467F0BAF40DF
:1052C000FF19E0E700245D1C07D0144F7D663966A6
:1052D000FFE7FFE7FFE7FFE73C6F95B29EB265434C
:1052E0006643401BB141150C1E0C654366433604F2
:1052F0002F0C3E432D04401BB141994204D20200C1
:105300000B0020000021F0BD01D19042F7D3801A9C
:10531000994101349942F2D3F6E70000000000D031
:10532000FFFFFFFF48404140484018B4134B5B6803
:10533000019308BD18B4114B1B68019308BD944636
:105340000F4A926F920805D2624618B40B4BDB6885
:10535000019308BD0A4AF0B5146E556E576F166F6B
:105360006246FFF7F2FF064A1466556657671667EE
:10537000F0BD18B4014B9B68019308BDB0DE00205E
:10538000000000D0FFB550404240504059404B40D3
:10539000594000E0FFB5154F4C00640D03D0BC42EE
:1053A00004D10C0314D80020090D09055C00640D1C
:1053B00003D0BC4204D11C030AD800221B0D1B05DC
:1053C00001264B4009D44B4003D58B4200D1824289
:1053D000FFBD9942FCD19042FFBD0B43DB18034354
:1053E0001343F5D0C9434918FFBD0000FF07000073
:1053F00000B5FFF7CFFF804100BDC04600B5FFF705
:10540000C9FF01D9002000BD012000BD00B5FFF794
:10541000B9FF01D9002000BD012000BD00B5FFF794
:10542000B1FF804100BD012040054A00121804D898
:105430005A00121801D80020704701207047002040
:10544000704700000021002805D17047C11748406F
:10545000401AFAD0C90713B5064B1B6898470CBC15
:10546000441CA2401005120B0349091B09051943EE
:10547000114310BDB4DF00201F04000010B54C0024
:10548000620D8023D218DB00D21A5B057E2A10DD64
:105490009E3A13DACC170903490819435242D14006
:1054A000640001341532202A05DAD04008436043F5
:1054B00010BD002010BD0846604310BDC80FC018C5
:1054C000013810BD18B4024B5B6A019308BD00009F
:1054D000B0DE002018B4024BDB6F019308BD000062
:1054E000B0DE002010B50148FEF7C4FB788401103F
:1054F00070B513231C78012C14D0012C14DC022C61
:1055000002DC1F4A1F4B9A641F48FFF77FFC1F4BAA
:10551000186070BD99001E481A4A885001331F2B2D
:10552000F8D9EAE70023FAE71A48FFF777FC050005
:105530001948FFF773FC023803789B007F2B19DDB5
:10554000802229000F4800F09FF9022CD7D1134B7D
:105550001A88B5231B029A4209D1114B1A88114BA4
:105560009A4204D1104B1A88104B9A42C7D000209F
:10557000FEF780FB0E4B0F4A32210F48FEF7E0FA90
:10558000BD550010B0DE00204C330000B4DF002019
:10559000E554001053440000534600005438000006
:1055A000D8380000494600009C38000059460000E9
:1055B0009084011024850110E484011007B5604631
:1055C000002800D100BE01880A0A0230DF2AFAD181
:1055D000C9B2820804D3028840880004104300E066
:1055E0000068024A5050039007BD0000B0DE002062
:1055F00051434343C9188C46110C83B24B4310B43A
:10560000040C614392B280B2504362431C041B0CF1
:10561000001910BC59411304120CC01851416144C7
:10562000704700004840414048400E4B5B681847B7
:105630000C4B1B6818470C4A936F9B0802D2094B0E
:10564000DB681847F0B5146E556E576F166FFFF78D
:10565000F6FF054A1466556657671667F0BD014B9D
:105660009B681847B8DF0020000000D007B548400D
:105670004140484001E0C04607B54200120E03D049
:10568000FF2A03D1420218D8C00DC0054A00120EED
:1056900003D0FF2A03D14A020FD8C90DC905012240
:1056A000414005D4414001D5814207BD884207BD34
:1056B0000143491801D0C043001807BD00B5FFF7EA
:1056C000DBFF01D0002000BD012000BD00B5FFF7C9
:1056D000D3FF804100BDC04600B5FFF7C7FF804142
:1056E00000BD491A002807D108467047C10FC907F5
:1056F00000D54042002817D0F44603B40B4B1B687A
:10570000984706BC81409E384042803107D20B0644
:1057100007D04900490AC0051043084360470130DB
:10572000F8E7490A8902F5E770470000B4DF002076
:10573000014BDB6F18470000B8DF002010B50148AF
:10574000FEF798FAF073011070B513231E7818480D
:10575000FFF764FB0500012E11D0012E09DDAB1E01
:105760001B789B007F2B1DDD80222900114800F053
:105770008BF81148FFF74AFB104B186070BD54229C
:1057800001000C4800F080F8002300E001331F2BDB
:10579000E3D89A00074C1259002AF7D19A0008481A
:1057A0001051F3E7074B084A42210848FEF7C8F9B1
:1057B00053460000B8DF00204C330000B4DF002067
:1057C0003D57001038850110AC8501106C85011023
:1057D00070B504000A4E300011F042FC200010F0B9
:1057E000AFFE0500300011F0B3FB002D05D02C19E1
:1057F000044B9C4201D8280070BD0348FEF73AFADA
:105800004818002000000420C085011070B5050074
:105810000C000B4E300011F023FC2100280010F08A
:1058200055FE0500300011F093FB002D05D02C191A
:10583000044B9C4201D8280070BD0348FEF71AFAB9
:105840004818002000000420C085011070B5040035
:10585000054D280011F004FC200010F07BFE28000C
:1058600011F076FB70BDC0464818002001480421A5
:10587000014B1847500F00202D4E0010014B1B68A4
:1058800018470000500F0020014B5B6818470000CC
:10589000500F002010B50300080011001B68984746
:1058A00010BD0000F8B507000D001600437D002B69
:1058B00002D0002400200CE0036811002800984763
:1058C0002DE03B7D10E0022115483B689847601CA5
:1058D0000134B44214DA002CF3DD2B19013B1B78A0
:1058E0000D3B5A425341DBB22A5D0A2AF0D1002B0C
:1058F000EED1A042E7DA211A28183B689847E2E780
:10590000B04203DA311A28183B689847002E06DDAA
:10591000AD19013D2B780D3B5A4253413B75F8BD03
:105920005C86011070B505000368002B16D00C4B87
:105930001C6805E0290004C92000FFF7B3FF2469B3
:10594000002C09D02368002BF9D0064B1B68002BD4
:10595000F0D0A342F3D1EDE700232B6070BDC04629
:10596000403000204830002070B505000C000B6866
:10597000802B05D021684B1C23606418257170BDF5
:105980000800FFF7CFFFF5E710B5FDF73DFB02007C
:105990000B1E0BDB0D48002112184B41002B0BDBBB
:1059A000002B0DDB0A4811F02BFB10BD094B0A4AF6
:1059B0003F210A48FEF7C4F801225242084BEFE7A4
:1059C000044B054A3F210548FEF7BAF840420F0054
:1059D0005018002008730110448601102473011030
:1059E000FFFFFF7F10B5024811F0B2FA10BDC046AC
:1059F00050180020F0B5CE46474680B583B006006B
:105A00000D0090461C00FFF7BFFF81466B1C05D0C0
:105A1000002C08D0194F1A4B1C6807E0300011F019
:105A2000EDF80500F4E7174FF5E72469002C17D0CF
:105A30002368002BF9D0144B1B68002B01D0A34224
:105A4000F3D12A0031002000B8474346002BECD0A8
:105A50006B46D91D0A230B7001222000B847E4E7EA
:105A60004B46002B07D16B1E9D41E8B203B0C0BC72
:105A7000B946B046F0BDFFF7B5FFF4E79558001002
:105A800040300020A55800104830002010B582B0EA
:105A900004006B46D81D0470002300220121FFF78B
:105AA000A9FF200002B010BD094A01E010331A001E
:105AB0001368002B08D08342F8D1002907D103696D
:105AC00013600023036102E0002900D010607047DA
:105AD0004030002010B5064B1C6801E0984724694F
